{
  "abi": [
    {
      "inputs": [
        {
          "internalType": "address",
          "name": "oracle",
          "type": "address"
        },
        {
          "internalType": "string",
          "name": "sourceCode",
          "type": "string"
        },
        {
          "internalType": "uint64",
          "name": "subscriptionId",
          "type": "uint64"
        },
        {
          "internalType": "uint32",
          "name": "fulfillGasLimit",
          "type": "uint32"
        },
        {
          "internalType": "uint256",
          "name": "_mintInterval",
          "type": "uint256"
        },
        {
          "internalType": "uint256",
          "name": "_mintBatchSize",
          "type": "uint256"
        }
      ],
      "stateMutability": "nonpayable",
      "type": "constructor"
    },
    {
      "inputs": [],
      "name": "EmptyArgs",
      "type": "error"
    },
    {
      "inputs": [],
      "name": "EmptySecrets",
      "type": "error"
    },
    {
      "inputs": [],
      "name": "EmptySource",
      "type": "error"
    },
    {
      "inputs": [],
      "name": "NoInlineSecrets",
      "type": "error"
    },
    {
      "inputs": [],
      "name": "RequestIsAlreadyPending",
      "type": "error"
    },
    {
      "inputs": [],
      "name": "RequestIsNotPending",
      "type": "error"
    },
    {
      "inputs": [],
      "name": "SenderIsNotRegistry",
      "type": "error"
    },
    {
      "anonymous": false,
      "inputs": [
        {
          "indexed": true,
          "internalType": "address",
          "name": "account",
          "type": "address"
        },
        {
          "indexed": true,
          "internalType": "address",
          "name": "operator",
          "type": "address"
        },
        {
          "indexed": false,
          "internalType": "bool",
          "name": "approved",
          "type": "bool"
        }
      ],
      "name": "ApprovalForAll",
      "type": "event"
    },
    {
      "anonymous": false,
      "inputs": [
        {
          "indexed": true,
          "internalType": "bytes32",
          "name": "requestId",
          "type": "bytes32"
        },
        {
          "indexed": false,
          "internalType": "bytes",
          "name": "result",
          "type": "bytes"
        },
        {
          "indexed": false,
          "internalType": "bytes",
          "name": "err",
          "type": "bytes"
        }
      ],
      "name": "OCRResponse",
      "type": "event"
    },
    {
      "anonymous": false,
      "inputs": [
        {
          "indexed": true,
          "internalType": "address",
          "name": "from",
          "type": "address"
        },
        {
          "indexed": true,
          "internalType": "address",
          "name": "to",
          "type": "address"
        }
      ],
      "name": "OwnershipTransferRequested",
      "type": "event"
    },
    {
      "anonymous": false,
      "inputs": [
        {
          "indexed": true,
          "internalType": "address",
          "name": "from",
          "type": "address"
        },
        {
          "indexed": true,
          "internalType": "address",
          "name": "to",
          "type": "address"
        }
      ],
      "name": "OwnershipTransferred",
      "type": "event"
    },
    {
      "anonymous": false,
      "inputs": [
        {
          "indexed": true,
          "internalType": "bytes32",
          "name": "id",
          "type": "bytes32"
        }
      ],
      "name": "RequestFulfilled",
      "type": "event"
    },
    {
      "anonymous": false,
      "inputs": [
        {
          "indexed": true,
          "internalType": "bytes32",
          "name": "id",
          "type": "bytes32"
        }
      ],
      "name": "RequestSent",
      "type": "event"
    },
    {
      "anonymous": false,
      "inputs": [
        {
          "indexed": true,
          "internalType": "address",
          "name": "operator",
          "type": "address"
        },
        {
          "indexed": true,
          "internalType": "address",
          "name": "from",
          "type": "address"
        },
        {
          "indexed": true,
          "internalType": "address",
          "name": "to",
          "type": "address"
        },
        {
          "indexed": false,
          "internalType": "uint256[]",
          "name": "ids",
          "type": "uint256[]"
        },
        {
          "indexed": false,
          "internalType": "uint256[]",
          "name": "values",
          "type": "uint256[]"
        }
      ],
      "name": "TransferBatch",
      "type": "event"
    },
    {
      "anonymous": false,
      "inputs": [
        {
          "indexed": true,
          "internalType": "address",
          "name": "operator",
          "type": "address"
        },
        {
          "indexed": true,
          "internalType": "address",
          "name": "from",
          "type": "address"
        },
        {
          "indexed": true,
          "internalType": "address",
          "name": "to",
          "type": "address"
        },
        {
          "indexed": false,
          "internalType": "uint256",
          "name": "id",
          "type": "uint256"
        },
        {
          "indexed": false,
          "internalType": "uint256",
          "name": "value",
          "type": "uint256"
        }
      ],
      "name": "TransferSingle",
      "type": "event"
    },
    {
      "anonymous": false,
      "inputs": [
        {
          "indexed": false,
          "internalType": "string",
          "name": "value",
          "type": "string"
        },
        {
          "indexed": true,
          "internalType": "uint256",
          "name": "id",
          "type": "uint256"
        }
      ],
      "name": "URI",
      "type": "event"
    },
    {
      "anonymous": false,
      "inputs": [
        {
          "indexed": false,
          "internalType": "address",
          "name": "owner",
          "type": "address"
        },
        {
          "indexed": false,
          "internalType": "uint256",
          "name": "tokenId",
          "type": "uint256"
        },
        {
          "indexed": false,
          "internalType": "string",
          "name": "tokenURI",
          "type": "string"
        }
      ],
      "name": "token_minted",
      "type": "event"
    },
    {
      "inputs": [],
      "name": "acceptOwnership",
      "outputs": [],
      "stateMutability": "nonpayable",
      "type": "function"
    },
    {
      "inputs": [
        {
          "internalType": "address",
          "name": "account",
          "type": "address"
        },
        {
          "internalType": "uint256",
          "name": "id",
          "type": "uint256"
        }
      ],
      "name": "balanceOf",
      "outputs": [
        {
          "internalType": "uint256",
          "name": "",
          "type": "uint256"
        }
      ],
      "stateMutability": "view",
      "type": "function"
    },
    {
      "inputs": [
        {
          "internalType": "address[]",
          "name": "accounts",
          "type": "address[]"
        },
        {
          "internalType": "uint256[]",
          "name": "ids",
          "type": "uint256[]"
        }
      ],
      "name": "balanceOfBatch",
      "outputs": [
        {
          "internalType": "uint256[]",
          "name": "",
          "type": "uint256[]"
        }
      ],
      "stateMutability": "view",
      "type": "function"
    },
    {
      "inputs": [
        {
          "internalType": "bytes",
          "name": "",
          "type": "bytes"
        }
      ],
      "name": "checkUpkeep",
      "outputs": [
        {
          "internalType": "bool",
          "name": "upkeepNeeded",
          "type": "bool"
        },
        {
          "internalType": "bytes",
          "name": "",
          "type": "bytes"
        }
      ],
      "stateMutability": "view",
      "type": "function"
    },
    {
      "inputs": [],
      "name": "debug",
      "outputs": [
        {
          "internalType": "uint256",
          "name": "",
          "type": "uint256"
        },
        {
          "internalType": "bool",
          "name": "",
          "type": "bool"
        }
      ],
      "stateMutability": "view",
      "type": "function"
    },
    {
      "inputs": [
        {
          "components": [
            {
              "internalType": "enum Functions.Location",
              "name": "codeLocation",
              "type": "uint8"
            },
            {
              "internalType": "enum Functions.Location",
              "name": "secretsLocation",
              "type": "uint8"
            },
            {
              "internalType": "enum Functions.CodeLanguage",
              "name": "language",
              "type": "uint8"
            },
            {
              "internalType": "string",
              "name": "source",
              "type": "string"
            },
            {
              "internalType": "bytes",
              "name": "secrets",
              "type": "bytes"
            },
            {
              "internalType": "string[]",
              "name": "args",
              "type": "string[]"
            }
          ],
          "internalType": "struct Functions.Request",
          "name": "req",
          "type": "tuple"
        },
        {
          "internalType": "uint64",
          "name": "subscriptionId",
          "type": "uint64"
        },
        {
          "internalType": "uint32",
          "name": "gasLimit",
          "type": "uint32"
        },
        {
          "internalType": "uint256",
          "name": "gasPrice",
          "type": "uint256"
        }
      ],
      "name": "estimateCost",
      "outputs": [
        {
          "internalType": "uint96",
          "name": "",
          "type": "uint96"
        }
      ],
      "stateMutability": "view",
      "type": "function"
    },
    {
      "inputs": [],
      "name": "fulfillGasLimit",
      "outputs": [
        {
          "internalType": "uint32",
          "name": "",
          "type": "uint32"
        }
      ],
      "stateMutability": "view",
      "type": "function"
    },
    {
      "inputs": [],
      "name": "functions_status",
      "outputs": [
        {
          "internalType": "bytes32",
          "name": "",
          "type": "bytes32"
        },
        {
          "internalType": "bytes",
          "name": "",
          "type": "bytes"
        },
        {
          "internalType": "bytes",
          "name": "",
          "type": "bytes"
        },
        {
          "internalType": "string[]",
          "name": "",
          "type": "string[]"
        }
      ],
      "stateMutability": "view",
      "type": "function"
    },
    {
      "inputs": [],
      "name": "getDONPublicKey",
      "outputs": [
        {
          "internalType": "bytes",
          "name": "",
          "type": "bytes"
        }
      ],
      "stateMutability": "view",
      "type": "function"
    },
    {
      "inputs": [
        {
          "internalType": "bytes32",
          "name": "requestId",
          "type": "bytes32"
        },
        {
          "internalType": "bytes",
          "name": "response",
          "type": "bytes"
        },
        {
          "internalType": "bytes",
          "name": "err",
          "type": "bytes"
        }
      ],
      "name": "handleOracleFulfillment",
      "outputs": [],
      "stateMutability": "nonpayable",
      "type": "function"
    },
    {
      "inputs": [
        {
          "internalType": "address",
          "name": "account",
          "type": "address"
        },
        {
          "internalType": "address",
          "name": "operator",
          "type": "address"
        }
      ],
      "name": "isApprovedForAll",
      "outputs": [
        {
          "internalType": "bool",
          "name": "",
          "type": "bool"
        }
      ],
      "stateMutability": "view",
      "type": "function"
    },
    {
      "inputs": [
        {
          "internalType": "string",
          "name": "ipfsURL",
          "type": "string"
        }
      ],
      "name": "joinQueue",
      "outputs": [],
      "stateMutability": "nonpayable",
      "type": "function"
    },
    {
      "inputs": [],
      "name": "lastUpkeepTimeStamp",
      "outputs": [
        {
          "internalType": "uint256",
          "name": "",
          "type": "uint256"
        }
      ],
      "stateMutability": "view",
      "type": "function"
    },
    {
      "inputs": [],
      "name": "latestError",
      "outputs": [
        {
          "internalType": "bytes",
          "name": "",
          "type": "bytes"
        }
      ],
      "stateMutability": "view",
      "type": "function"
    },
    {
      "inputs": [],
      "name": "latestRequestId",
      "outputs": [
        {
          "internalType": "bytes32",
          "name": "",
          "type": "bytes32"
        }
      ],
      "stateMutability": "view",
      "type": "function"
    },
    {
      "inputs": [],
      "name": "latestResponse",
      "outputs": [
        {
          "internalType": "bytes",
          "name": "",
          "type": "bytes"
        }
      ],
      "stateMutability": "view",
      "type": "function"
    },
    {
      "inputs": [],
      "name": "mintBatchSize",
      "outputs": [
        {
          "internalType": "uint256",
          "name": "",
          "type": "uint256"
        }
      ],
      "stateMutability": "view",
      "type": "function"
    },
    {
      "inputs": [],
      "name": "mintInterval",
      "outputs": [
        {
          "internalType": "uint256",
          "name": "",
          "type": "uint256"
        }
      ],
      "stateMutability": "view",
      "type": "function"
    },
    {
      "inputs": [],
      "name": "owner",
      "outputs": [
        {
          "internalType": "address",
          "name": "",
          "type": "address"
        }
      ],
      "stateMutability": "view",
      "type": "function"
    },
    {
      "inputs": [
        {
          "internalType": "bytes",
          "name": "",
          "type": "bytes"
        }
      ],
      "name": "performUpkeep",
      "outputs": [],
      "stateMutability": "nonpayable",
      "type": "function"
    },
    {
      "inputs": [],
      "name": "queue_status",
      "outputs": [
        {
          "internalType": "enum CIDProcessorQueue.State",
          "name": "state",
          "type": "uint8"
        },
        {
          "internalType": "uint256",
          "name": "num_tickets",
          "type": "uint256"
        },
        {
          "internalType": "uint256",
          "name": "curr_ticket_no",
          "type": "uint256"
        },
        {
          "internalType": "address",
          "name": "user",
          "type": "address"
        },
        {
          "internalType": "string",
          "name": "ipfs_url",
          "type": "string"
        },
        {
          "internalType": "enum CIDProcessorQueue.Result",
          "name": "result",
          "type": "uint8"
        }
      ],
      "stateMutability": "view",
      "type": "function"
    },
    {
      "inputs": [],
      "name": "responseHeaderSize",
      "outputs": [
        {
          "internalType": "uint8",
          "name": "",
          "type": "uint8"
        }
      ],
      "stateMutability": "view",
      "type": "function"
    },
    {
      "inputs": [
        {
          "internalType": "address",
          "name": "from",
          "type": "address"
        },
        {
          "internalType": "address",
          "name": "to",
          "type": "address"
        },
        {
          "internalType": "uint256[]",
          "name": "ids",
          "type": "uint256[]"
        },
        {
          "internalType": "uint256[]",
          "name": "amounts",
          "type": "uint256[]"
        },
        {
          "internalType": "bytes",
          "name": "data",
          "type": "bytes"
        }
      ],
      "name": "safeBatchTransferFrom",
      "outputs": [],
      "stateMutability": "nonpayable",
      "type": "function"
    },
    {
      "inputs": [
        {
          "internalType": "address",
          "name": "from",
          "type": "address"
        },
        {
          "internalType": "address",
          "name": "to",
          "type": "address"
        },
        {
          "internalType": "uint256",
          "name": "id",
          "type": "uint256"
        },
        {
          "internalType": "uint256",
          "name": "amount",
          "type": "uint256"
        },
        {
          "internalType": "bytes",
          "name": "data",
          "type": "bytes"
        }
      ],
      "name": "safeTransferFrom",
      "outputs": [],
      "stateMutability": "nonpayable",
      "type": "function"
    },
    {
      "inputs": [
        {
          "internalType": "address",
          "name": "operator",
          "type": "address"
        },
        {
          "internalType": "bool",
          "name": "approved",
          "type": "bool"
        }
      ],
      "name": "setApprovalForAll",
      "outputs": [],
      "stateMutability": "nonpayable",
      "type": "function"
    },
    {
      "inputs": [],
      "name": "sourceCode",
      "outputs": [
        {
          "internalType": "string",
          "name": "",
          "type": "string"
        }
      ],
      "stateMutability": "view",
      "type": "function"
    },
    {
      "inputs": [],
      "name": "subscriptionId",
      "outputs": [
        {
          "internalType": "uint64",
          "name": "",
          "type": "uint64"
        }
      ],
      "stateMutability": "view",
      "type": "function"
    },
    {
      "inputs": [
        {
          "internalType": "bytes4",
          "name": "interfaceId",
          "type": "bytes4"
        }
      ],
      "name": "supportsInterface",
      "outputs": [
        {
          "internalType": "bool",
          "name": "",
          "type": "bool"
        }
      ],
      "stateMutability": "view",
      "type": "function"
    },
    {
      "inputs": [
        {
          "internalType": "uint256",
          "name": "ticket_no",
          "type": "uint256"
        }
      ],
      "name": "ticket_status",
      "outputs": [
        {
          "internalType": "address",
          "name": "user",
          "type": "address"
        },
        {
          "internalType": "string",
          "name": "ipfs_url",
          "type": "string"
        },
        {
          "internalType": "enum CIDProcessorQueue.Result",
          "name": "result",
          "type": "uint8"
        }
      ],
      "stateMutability": "view",
      "type": "function"
    },
    {
      "inputs": [
        {
          "internalType": "address",
          "name": "to",
          "type": "address"
        }
      ],
      "name": "transferOwnership",
      "outputs": [],
      "stateMutability": "nonpayable",
      "type": "function"
    },
    {
      "inputs": [
        {
          "internalType": "address",
          "name": "oracle",
          "type": "address"
        }
      ],
      "name": "updateOracleAddress",
      "outputs": [],
      "stateMutability": "nonpayable",
      "type": "function"
    },
    {
      "inputs": [
        {
          "internalType": "string",
          "name": "_sourceCode",
          "type": "string"
        }
      ],
      "name": "updateSourceCode",
      "outputs": [],
      "stateMutability": "nonpayable",
      "type": "function"
    },
    {
      "inputs": [
        {
          "internalType": "uint64",
          "name": "_subscriptionId",
          "type": "uint64"
        }
      ],
      "name": "updateSubscriptionId",
      "outputs": [],
      "stateMutability": "nonpayable",
      "type": "function"
    },
    {
      "inputs": [
        {
          "internalType": "uint256",
          "name": "tokenId",
          "type": "uint256"
        }
      ],
      "name": "uri",
      "outputs": [
        {
          "internalType": "string",
          "name": "",
          "type": "string"
        }
      ],
      "stateMutability": "view",
      "type": "function"
    }
  ],
  "bytecode": "6080604052600d805460ff191660041790553480156200001e57600080fd5b506040516200432f3803806200432f8339810160408190526200004191620003bf565b858585853380600086604051806020016040528060008152506200006b81620001ad60201b60201c565b50600580546001600160a01b0319166001600160a01b038316179055506001600160a01b038216620000e45760405162461bcd60e51b815260206004820152601860248201527f43616e6e6f7420736574206f776e657220746f207a65726f000000000000000060448201526064015b60405180910390fd5b600780546001600160a01b0319166001600160a01b038481169190911790915581161562000117576200011781620001c6565b505083516200012f91506009906020860190620002d1565b50600d8054610100600160681b0319166101006001600160401b0385160263ffffffff60481b191617690100000000000000000063ffffffff8416021790556200017862000272565b5050505081600e8190555080600f81905550620001a16011620002b660201b62000f7e1760201c565b50505050505062000532565b8051620001c2906002906020840190620002d1565b5050565b336001600160a01b03821603620002205760405162461bcd60e51b815260206004820152601760248201527f43616e6e6f74207472616e7366657220746f2073656c660000000000000000006044820152606401620000db565b600880546001600160a01b0319166001600160a01b03838116918217909255600754604051919216907fed8889f560326eb138920d842192f0eb3dd22b4f139c87a2c57538e05bae127890600090a350565b6040805160208101918290526000908190526200029291600b91620002d1565b50604080516020810191829052600090819052620002b391600c91620002d1565b50565b6000600282018190556003820155600401805460ff19169055565b828054620002df90620004f6565b90600052602060002090601f0160209004810192826200030357600085556200034e565b82601f106200031e57805160ff19168380011785556200034e565b828001600101855582156200034e579182015b828111156200034e57825182559160200191906001019062000331565b506200035c92915062000360565b5090565b5b808211156200035c576000815560010162000361565b634e487b7160e01b600052604160045260246000fd5b80516001600160401b0381168114620003a557600080fd5b919050565b805163ffffffff81168114620003a557600080fd5b60008060008060008060c08789031215620003d957600080fd5b86516001600160a01b0381168114620003f157600080fd5b602088810151919750906001600160401b03808211156200041157600080fd5b818a0191508a601f8301126200042657600080fd5b8151818111156200043b576200043b62000377565b604051601f8201601f19908116603f0116810190838211818310171562000466576200046662000377565b816040528281528d868487010111156200047f57600080fd5b600093505b82841015620004a3578484018601518185018701529285019262000484565b82841115620004b55760008684830101525b809a50505050505050620004cc604088016200038d565b9350620004dc60608801620003aa565b92506080870151915060a087015190509295509295509295565b600181811c908216806200050b57607f821691505b6020821081036200052c57634e487b7160e01b600052602260045260246000fd5b50919050565b613ded80620005426000396000f3fe608060405234801561001057600080fd5b50600436106102055760003560e01c806379ba50971161011a578063cd2bba53116100ad578063e985e9c51161007c578063e985e9c5146104b6578063f242432a146104f2578063f2fde38b14610505578063f7023bb614610518578063fffeb84e1461052b57600080fd5b8063cd2bba5314610445578063d328a91e14610464578063d4b391751461046c578063e706d69e1461049c57600080fd5b8063a22cb465116100e9578063a22cb465146103f5578063b3285e3214610408578063bcbdbe741461041b578063bef3a2f01461043d57600080fd5b806379ba5097146103a757806383231ccc146103af5780638c9bad23146103c75780638da5cb5b146103da57600080fd5b806313c601771161019d5780632eb2c2d61161016c5780632eb2c2d6146103235780634585e33b146103365780634e1273f414610349578063588ee29b146103695780636e04ff0d1461038657600080fd5b806313c60177146102d357806314b1dd1b146102db5780631aa46f59146102ee57806324b93e3e146102f757600080fd5b806309c1ba2e116101d957806309c1ba2e146102655780630ca76175146102955780630e726e6b146102aa5780630e89341c146102b357600080fd5b8062fdd58e1461020a57806301ffc9a71461023057806304b6d7ce14610253578063089ea02e1461025c575b600080fd5b61021d610218366004612ce4565b610533565b6040519081526020015b60405180910390f35b61024361023e366004612d26565b6105cc565b6040519015158152602001610227565b61021d600f5481565b61021d60105481565b600d5461027d9061010090046001600160401b031681565b6040516001600160401b039091168152602001610227565b6102a86102a3366004612e30565b61061c565b005b61021d600e5481565b6102c66102c1366004612e9c565b6106a9565b6040516102279190612f0d565b6102c661074b565b6102a86102e9366004612f3c565b6107d9565b61021d600a5481565b600d5461030e90600160481b900463ffffffff1681565b60405163ffffffff9091168152602001610227565b6102a8610331366004612feb565b61080a565b6102a86103443660046130e0565b610856565b61035c610357366004613121565b6108fe565b6040516102279190613228565b610371610a27565b60408051928352901515602083015201610227565b61039961039436600461323b565b610a4e565b60405161022792919061326f565b6102a8610aa6565b6103b7610b54565b604051610227949392919061328a565b6102a86103d53660046130e0565b610d60565b6007546040516001600160a01b039091168152602001610227565b6102a8610403366004613318565b610d71565b6102a861041636600461323b565b610d7c565b61042e610429366004612e9c565b610d97565b60405161022793929190613380565b6102c6610db4565b600d546104529060ff1681565b60405160ff9091168152602001610227565b6102c6610dc1565b61047f61047a36600461346f565b610e38565b6040516bffffffffffffffffffffffff9091168152602001610227565b6104a4610ec3565b60405161022796959493929190613580565b6102436104c43660046135dd565b6001600160a01b03918216600090815260016020908152604080832093909416825291909152205460ff1690565b6102a861050036600461360b565b610ef2565b6102a8610513366004613673565b610f37565b6102a8610526366004613673565b610f4b565b6102c6610f71565b60006001600160a01b0383166105a35760405162461bcd60e51b815260206004820152602a60248201527f455243313135353a2061646472657373207a65726f206973206e6f742061207660448201526930b634b21037bbb732b960b11b60648201526084015b60405180910390fd5b506000818152602081815260408083206001600160a01b03861684529091529020545b92915050565b60006001600160e01b03198216636cdb3d1360e11b14806105fd57506001600160e01b031982166303a24d0760e21b145b806105c657506301ffc9a760e01b6001600160e01b03198316146105c6565b60008381526006602052604090205483906001600160a01b031633146106555760405163a0c5ec6360e01b815260040160405180910390fd5b60008181526006602052604080822080546001600160a01b03191690555182917f85e1543bf2f84fe80c6badbce3648c8539ad1df4d2b3d822938ca0538be727e691a26106a3848484610fb5565b50505050565b60008181526003602052604090208054606091906106c690613690565b80601f01602080910402602001604051908101604052809291908181526020018280546106f290613690565b801561073f5780601f106107145761010080835404028352916020019161073f565b820191906000526020600020905b81548152906001019060200180831161072257829003601f168201915b50505050509050919050565b6009805461075890613690565b80601f016020809104026020016040519081016040528092919081815260200182805461078490613690565b80156107d15780601f106107a6576101008083540402835291602001916107d1565b820191906000526020600020905b8154815290600101906020018083116107b457829003601f168201915b505050505081565b6107e161101c565b600d80546001600160401b039092166101000268ffffffffffffffff0019909216919091179055565b6001600160a01b038516331480610826575061082685336104c4565b6108425760405162461bcd60e51b815260040161059a906136ca565b61084f8585858585611071565b5050505050565b600061087060405180602001604052806000815250610a4e565b509050806108b45760405162461bcd60e51b81526020600482015260116024820152701d5c1ad9595c081b9bdd081b9959591959607a1b604482015260640161059a565b600060155460ff1660028111156108cd576108cd613356565b036108df576108da61124e565b6108ef565b6108e761133c565b6108ef611417565b6108f96011611454565b505050565b606081518351146109635760405162461bcd60e51b815260206004820152602960248201527f455243313135353a206163636f756e747320616e6420696473206c656e677468604482015268040dad2e6dac2e8c6d60bb1b606482015260840161059a565b600083516001600160401b0381111561097e5761097e612d43565b6040519080825280602002602001820160405280156109a7578160200160208202803683370190505b50905060005b8451811015610a1f576109f28582815181106109cb576109cb613718565b60200260200101518583815181106109e5576109e5613718565b6020026020010151610533565b828281518110610a0457610a04613718565b6020908102919091010152610a1881613744565b90506109ad565b509392505050565b600080600b8054610a3790613690565b601254909150610a469061150d565b915091509091565b600060608160155460ff166002811115610a6a57610a6a613356565b03610a7d57601354601454109150610a8f565b610a8561159e565b15610a8f57600191505b506040805160208101909152600081529092909150565b6008546001600160a01b03163314610af95760405162461bcd60e51b815260206004820152601660248201527526bab9ba10313290383937b837b9b2b21037bbb732b960511b604482015260640161059a565b600780546001600160a01b0319808216339081179093556008805490911690556040516001600160a01b03909116919082907f8be0079c531659141344cd1fd0a4f28419497f9722a3daafe3b4186f6b6457e090600090a350565b60006060806060600a54600b600c6011600101828054610b7390613690565b80601f0160208091040260200160405190810160405280929190818152602001828054610b9f90613690565b8015610bec5780601f10610bc157610100808354040283529160200191610bec565b820191906000526020600020905b815481529060010190602001808311610bcf57829003601f168201915b50505050509250818054610bff90613690565b80601f0160208091040260200160405190810160405280929190818152602001828054610c2b90613690565b8015610c785780601f10610c4d57610100808354040283529160200191610c78565b820191906000526020600020905b815481529060010190602001808311610c5b57829003601f168201915b5050505050915080805480602002602001604051908101604052809291908181526020016000905b82821015610d4c578382906000526020600020018054610cbf90613690565b80601f0160208091040260200160405190810160405280929190818152602001828054610ceb90613690565b8015610d385780601f10610d0d57610100808354040283529160200191610d38565b820191906000526020600020905b815481529060010190602001808311610d1b57829003601f168201915b505050505081526020019060010190610ca0565b505050509050935093509350935090919293565b610d6d60113384846115c5565b5050565b610d6d338383611692565b610d8461101c565b8051610d6d906009906020840190612a44565b6000606081610da7601185611772565b9196909550909350915050565b600b805461075890613690565b60055460408051636994548f60e11b815290516060926001600160a01b03169163d328a91e9160048083019260009291908290030181865afa158015610e0b573d6000803e3d6000fd5b505050506040513d6000823e601f3d908101601f19168201604052610e33919081019061375d565b905090565b6005546000906001600160a01b031663d227d24585610e568861183c565b86866040518563ffffffff1660e01b8152600401610e7794939291906137de565b602060405180830381865afa158015610e94573d6000803e3d6000fd5b505050506040513d601f19601f82011682018060405250810190610eb89190613819565b90505b949350505050565b60155460135460145460ff909216916000606081610ee16011611a74565b979896979596919590945092509050565b6001600160a01b038516331480610f0e5750610f0e85336104c4565b610f2a5760405162461bcd60e51b815260040161059a906136ca565b61084f8585858585611b45565b610f3f61101c565b610f4881611c6f565b50565b610f5361101c565b600580546001600160a01b0319166001600160a01b03831617905550565b600c805461075890613690565b600060028201819055600382018190555b60048201805460ff19166001836002811115610fad57610fad613356565b021790555050565b8151610fc890600b906020850190612a44565b508051610fdc90600c906020840190612a44565b50827f7bab0ec163b5c132c72b8146ac4d6e067e82ed58f8b131150aa71c9258911562838360405161100f929190613847565b60405180910390a2505050565b6007546001600160a01b0316331461106f5760405162461bcd60e51b815260206004820152601660248201527527b7363c9031b0b63630b1363290313c9037bbb732b960511b604482015260640161059a565b565b81518351146110d35760405162461bcd60e51b815260206004820152602860248201527f455243313135353a2069647320616e6420616d6f756e7473206c656e677468206044820152670dad2e6dac2e8c6d60c31b606482015260840161059a565b6001600160a01b0384166110f95760405162461bcd60e51b815260040161059a90613875565b3360005b84518110156111e057600085828151811061111a5761111a613718565b60200260200101519050600085838151811061113857611138613718565b602090810291909101810151600084815280835260408082206001600160a01b038e1683529093529190912054909150818110156111885760405162461bcd60e51b815260040161059a906138ba565b6000838152602081815260408083206001600160a01b038e8116855292528083208585039055908b168252812080548492906111c5908490613904565b92505081905550505050806111d990613744565b90506110fd565b50846001600160a01b0316866001600160a01b0316826001600160a01b03167f4a39dc06d4c0dbc64b70af90fd698a233a518aa5d07e595d983b8c0526c8f7fb878760405161123092919061391c565b60405180910390a4611246818787878787611d19565b505050505050565b6112586011611e7d565b604080516020808201835260008083526012805485518185028101850190965280865261106f95939192909184015b828210156113335783829060005260206000200180546112a690613690565b80601f01602080910402602001604051908101604052809291908181526020018280546112d290613690565b801561131f5780601f106112f45761010080835404028352916020019161131f565b820191906000526020600020905b81548152906001019060200180831161130257829003601f168201915b505050505081526020019060010190611287565b50505050611f13565b6012546113489061150d565b61135157600080fd5b6000606060005b6012548110156108f95761136c6011611a74565b50600d549194509250600b9061138690839060ff16613904565b815461139190613690565b811061139f5761139f613718565b8154600116156113be5790600052602060002090602091828204019190065b9054901a600160f81b026001600160f81b031916603160f81b036113f9576113e883836001612047565b6113f4601160016120c8565b611405565b611405601160006120c8565b8061140f81613744565b915050611358565b60408051602081019182905260009081905261143591600b91612a44565b50604080516020810191829052600090819052610f4891600c91612a44565b61146060016002613941565b600281111561147157611471613356565b600281111561148257611482613356565b600482015460ff16600281111561149b5761149b613356565b60028111156114ac576114ac613356565b60028111156114bd576114bd613356565b036114d8576004810180546000919060ff1916600183610fad565b600481015460ff1660028111156114f1576114f1613356565b6114fc906001613904565b6002811115610f8f57610f8f613356565b600d54600b805460009260ff16919061152590613690565b905010156115755760405162461bcd60e51b815260206004820152601760248201527f496e76616c696420726573706f6e7365206c656e677468000000000000000000604482015260640161059a565b600d54600b8054849260ff16919061158c90613690565b611597929150613941565b1492915050565b6000600c80546115ad90613690565b9050600b80546115bc90613690565b90501415905090565b600284810154600081815260208790526040902080546001600160a01b0319166001600160a01b03871617815560018101829055909161160791018484612ac8565b506000818152602086905260409081902060038101805460ff191690558054600182015492517f90ea5f9329c731034cd76e56082631801f27cb8e4b8349f2958220ef9a31c9d79361166c936001600160a01b03909316929091600290910190613958565b60405180910390a160028501805490600061168683613744565b91905055505050505050565b816001600160a01b0316836001600160a01b0316036117055760405162461bcd60e51b815260206004820152602960248201527f455243313135353a2073657474696e6720617070726f76616c20737461747573604482015268103337b91039b2b63360b91b606482015260840161059a565b6001600160a01b03838116600081815260016020908152604080832094871680845294825291829020805460ff191686151590811790915591519182527f17307eab39ab6107e8899845ad3d59bd9653f200f220920489ca2b5937696c31910160405180910390a3505050565b6000818152602083905260408120805460038201546002909201805460609385936001600160a01b0316929160ff9091169082906117af90613690565b80601f01602080910402602001604051908101604052809291908181526020018280546117db90613690565b80156118285780601f106117fd57610100808354040283529160200191611828565b820191906000526020600020905b81548152906001019060200180831161180b57829003601f168201915b505050505091509250925092509250925092565b6060611846612b3c565b80516118549061010061215f565b50611883816040518060400160405280600c81526020016b31b7b232a637b1b0ba34b7b760a11b8152506121d6565b6118a2818460000151600181111561189d5761189d613356565b6121ef565b6118cc81604051806040016040528060088152602001676c616e677561676560c01b8152506121d6565b6118e6818460400151600081111561189d5761189d613356565b61190e8160405180604001604052806006815260200165736f7572636560d01b8152506121d6565b61191c8184606001516121d6565b60a083015151156119a95761194d81604051806040016040528060048152602001636172677360e01b8152506121d6565b61195681612228565b60005b8360a001515181101561199f5761198d828560a00151838151811061198057611980613718565b60200260200101516121d6565b8061199781613744565b915050611959565b506119a98161224c565b60808301515115611a6c576000836020015160018111156119cc576119cc613356565b036119ea5760405163a80d31f760e01b815260040160405180910390fd5b611a1b816040518060400160405280600f81526020016e39b2b1b932ba39a637b1b0ba34b7b760891b8152506121d6565b611a35818460200151600181111561189d5761189d613356565b611a5e81604051806040016040528060078152602001667365637265747360c81b8152506121d6565b611a6c81846080015161226a565b515192915050565b600381810154600090815260208390526040812080549281015460029091018054929360609385936001600160a01b03909216929160ff16908290611ab890613690565b80601f0160208091040260200160405190810160405280929190818152602001828054611ae490613690565b8015611b315780601f10611b0657610100808354040283529160200191611b31565b820191906000526020600020905b815481529060010190602001808311611b1457829003601f168201915b505050505091509250925092509193909250565b6001600160a01b038416611b6b5760405162461bcd60e51b815260040161059a90613875565b336000611b7785612277565b90506000611b8485612277565b90506000868152602081815260408083206001600160a01b038c16845290915290205485811015611bc75760405162461bcd60e51b815260040161059a906138ba565b6000878152602081815260408083206001600160a01b038d8116855292528083208985039055908a16825281208054889290611c04908490613904565b909155505060408051888152602081018890526001600160a01b03808b16928c821692918816917fc3d58168c5ae7397731d063d5bbf3d657854427343f4c083240f7aacaa2d0f62910160405180910390a4611c64848a8a8a8a8a6122c2565b505050505050505050565b336001600160a01b03821603611cc75760405162461bcd60e51b815260206004820152601760248201527f43616e6e6f74207472616e7366657220746f2073656c66000000000000000000604482015260640161059a565b600880546001600160a01b0319166001600160a01b03838116918217909255600754604051919216907fed8889f560326eb138920d842192f0eb3dd22b4f139c87a2c57538e05bae127890600090a350565b6001600160a01b0384163b156112465760405163bc197c8160e01b81526001600160a01b0385169063bc197c8190611d5d9089908990889088908890600401613a19565b6020604051808303816000875af1925050508015611d98575060408051601f3d908101601f19168201909252611d9591810190613a77565b60015b611e4457611da4613a94565b806308c379a003611ddd5750611db8613ab0565b80611dc35750611ddf565b8060405162461bcd60e51b815260040161059a9190612f0d565b505b60405162461bcd60e51b815260206004820152603460248201527f455243313135353a207472616e7366657220746f206e6f6e2d455243313135356044820152732932b1b2b4bb32b91034b6b83632b6b2b73a32b960611b606482015260840161059a565b6001600160e01b0319811663bc197c8160e01b14611e745760405162461bcd60e51b815260040161059a90613b39565b50505050505050565b611e8b600182016000612b71565b6040805160008082526020820190925290611eb6565b6060815260200190600190039081611ea15790505b508051611ecd916001840191602090910190612b8f565b5060038101546000908152602082815260408220600180850180549182018155845291909220600290920180549290910191611f0890613690565b610d6d929190612be8565b611f4d6040805160c08101909152806000815260200160008152602001600081526020016060815260200160608152602001606081525090565b611fef60008060098054611f6090613690565b80601f0160208091040260200160405190810160405280929190818152602001828054611f8c90613690565b8015611fd95780601f10611fae57610100808354040283529160200191611fd9565b820191906000526020600020905b815481529060010190602001808311611fbc57829003601f168201915b50505050508461237d909392919063ffffffff16565b8251156120005761200081846123fb565b81511561201157612011818361242c565b600d5460009061203e90839061010081046001600160401b031690600160481b900463ffffffff16612456565b600a5550505050565b600061205260045490565b905061206f848284604051806020016040528060008152506125ae565b61207981846126b9565b612087600480546001019055565b7f1e8f3e2f60d7bcccf9300c1696a0c0661e1da202a169dff4f00a494fb59be13d8482856040516120ba93929190613b81565b60405180910390a150505050565b80156120de576120d98260026126d8565b6120e9565b6120e98260036126d8565b6003820180549060006120fb83613744565b919050555060006060600061210f85611a74565b600388015460405193965091945092507f0a3713dd440cd98fc452b6e97a96264b833475dec4977120d4ca6768772eddca9161215091869186908690613ba8565b60405180910390a15050505050565b60408051808201909152606081526000602082015261217f602083613bde565b156121a75761218f602083613bde565b61219a906020613941565b6121a49083613904565b91505b6020808401839052604051808552600081529081840101818110156121cb57600080fd5b604052509192915050565b6121e38260038351612716565b81516108f9908261282f565b81516121fc9060c2612857565b50610d6d828260405160200161221491815260200190565b60405160208183030381529060405261226a565b6122338160046128c0565b6001816020018181516122469190613904565b90525050565b6122578160076128c0565b6001816020018181516122469190613941565b6121e38260028351612716565b604080516001808252818301909252606091600091906020808301908036833701905050905082816000815181106122b1576122b1613718565b602090810291909101015292915050565b6001600160a01b0384163b156112465760405163f23a6e6160e01b81526001600160a01b0385169063f23a6e61906123069089908990889088908890600401613c00565b6020604051808303816000875af1925050508015612341575060408051601f3d908101601f1916820190925261233e91810190613a77565b60015b61234d57611da4613a94565b6001600160e01b0319811663f23a6e6160e01b14611e745760405162461bcd60e51b815260040161059a90613b39565b805160000361239f576040516322ce3edd60e01b815260040160405180910390fd5b838360018111156123b2576123b2613356565b908160018111156123c5576123c5613356565b905250604084018280156123db576123db613356565b908180156123eb576123eb613356565b9052506060909301929092525050565b805160000361241d5760405163e889636f60e01b815260040160405180910390fd5b60016020830152608090910152565b805160000361244e5760405163fe936cb760e01b815260040160405180910390fd5b60a090910152565b60055460009081906001600160a01b03166328242b04856124768861183c565b866040518463ffffffff1660e01b815260040161249593929190613c3a565b6020604051808303816000875af11580156124b4573d6000803e3d6000fd5b505050506040513d601f19601f820116820180604052508101906124d89190613c72565b9050600560009054906101000a90046001600160a01b03166001600160a01b0316635ab1bd536040518163ffffffff1660e01b8152600401602060405180830381865afa15801561252d573d6000803e3d6000fd5b505050506040513d601f19601f820116820180604052508101906125519190613c8b565b60008281526006602052604080822080546001600160a01b0319166001600160a01b039490941693909317909255905182917f1131472297a800fee664d1d89cfa8f7676ff07189ecc53f80bbb5f4969099db891a2949350505050565b6001600160a01b03841661260e5760405162461bcd60e51b815260206004820152602160248201527f455243313135353a206d696e7420746f20746865207a65726f206164647265736044820152607360f81b606482015260840161059a565b33600061261a85612277565b9050600061262785612277565b90506000868152602081815260408083206001600160a01b038b16845290915281208054879290612659908490613904565b909155505060408051878152602081018790526001600160a01b03808a1692600092918716917fc3d58168c5ae7397731d063d5bbf3d657854427343f4c083240f7aacaa2d0f62910160405180910390a4611e74836000898989896122c2565b600082815260036020908152604090912082516108f992840190612a44565b600380830154600090815260208490526040902081018054839260ff1990911690600190849081111561270d5761270d613356565b02179055505050565b6017816001600160401b03161161273c5782516106a39060e0600585901b168317612857565b60ff816001600160401b03161161277c578251612764906018611fe0600586901b1617612857565b5082516106a3906001600160401b03831660016128d7565b61ffff816001600160401b0316116127bd5782516127a5906019611fe0600586901b1617612857565b5082516106a3906001600160401b03831660026128d7565b63ffffffff816001600160401b0316116128005782516127e890601a611fe0600586901b1617612857565b5082516106a3906001600160401b03831660046128d7565b825161281790601b611fe0600586901b1617612857565b5082516106a3906001600160401b03831660086128d7565b6040805180820190915260608152600060208201526128508383845161295c565b9392505050565b604080518082019091526060815260006020820152825151600061287c826001613904565b90508460200151821061289d5761289d85612898836002613ca8565b612a2d565b84516020838201018581535080518211156128b6578181525b5093949350505050565b81516108f990601f611fe0600585901b1617612857565b60408051808201909152606081526000602082015283515160006128fb8285613904565b905085602001518111156129185761291886612898836002613ca8565b6000600161292886610100613dab565b6129329190613941565b90508651828101878319825116178152508051831115612950578281525b50959695505050505050565b604080518082019091526060815260006020820152825182111561297f57600080fd5b835151600061298e8483613904565b905085602001518111156129ab576129ab86612898836002613ca8565b8551805183820160200191600091808511156129c5578482525b505050602086015b60208610612a0557805182526129e4602083613904565b91506129f1602082613904565b90506129fe602087613941565b95506129cd565b51815160001960208890036101000a0190811690199190911617905250849150509392505050565b8151612a39838361215f565b506106a3838261282f565b828054612a5090613690565b90600052602060002090601f016020900481019282612a725760008555612ab8565b82601f10612a8b57805160ff1916838001178555612ab8565b82800160010185558215612ab8579182015b82811115612ab8578251825591602001919060010190612a9d565b50612ac4929150612c63565b5090565b828054612ad490613690565b90600052602060002090601f016020900481019282612af65760008555612ab8565b82601f10612b0f5782800160ff19823516178555612ab8565b82800160010185558215612ab8579182015b82811115612ab8578235825591602001919060010190612b21565b6040518060400160405280612b64604051806040016040528060608152602001600081525090565b8152602001600081525090565b5080546000825590600052602060002090810190610f489190612c78565b828054828255906000526020600020908101928215612bdc579160200282015b82811115612bdc5782518051612bcc918491602090910190612a44565b5091602001919060010190612baf565b50612ac4929150612c78565b828054612bf490613690565b90600052602060002090601f016020900481019282612c165760008555612ab8565b82601f10612c275780548555612ab8565b82800160010185558215612ab857600052602060002091601f016020900482015b82811115612ab8578254825591600101919060010190612c48565b5b80821115612ac45760008155600101612c64565b80821115612ac4576000612c8c8282612c95565b50600101612c78565b508054612ca190613690565b6000825580601f10612cb1575050565b601f016020900490600052602060002090810190610f489190612c63565b6001600160a01b0381168114610f4857600080fd5b60008060408385031215612cf757600080fd5b8235612d0281612ccf565b946020939093013593505050565b6001600160e01b031981168114610f4857600080fd5b600060208284031215612d3857600080fd5b813561285081612d10565b634e487b7160e01b600052604160045260246000fd5b601f8201601f191681016001600160401b0381118282101715612d7e57612d7e612d43565b6040525050565b60405160c081016001600160401b0381118282101715612da757612da7612d43565b60405290565b60006001600160401b03821115612dc657612dc6612d43565b50601f01601f191660200190565b600082601f830112612de557600080fd5b8135612df081612dad565b604051612dfd8282612d59565b828152856020848701011115612e1257600080fd5b82602086016020830137600092810160200192909252509392505050565b600080600060608486031215612e4557600080fd5b8335925060208401356001600160401b0380821115612e6357600080fd5b612e6f87838801612dd4565b93506040860135915080821115612e8557600080fd5b50612e9286828701612dd4565b9150509250925092565b600060208284031215612eae57600080fd5b5035919050565b60005b83811015612ed0578181015183820152602001612eb8565b838111156106a35750506000910152565b60008151808452612ef9816020860160208601612eb5565b601f01601f19169290920160200192915050565b6020815260006128506020830184612ee1565b80356001600160401b0381168114612f3757600080fd5b919050565b600060208284031215612f4e57600080fd5b61285082612f20565b60006001600160401b03821115612f7057612f70612d43565b5060051b60200190565b600082601f830112612f8b57600080fd5b81356020612f9882612f57565b604051612fa58282612d59565b83815260059390931b8501820192828101915086841115612fc557600080fd5b8286015b84811015612fe05780358352918301918301612fc9565b509695505050505050565b600080600080600060a0868803121561300357600080fd5b853561300e81612ccf565b9450602086013561301e81612ccf565b935060408601356001600160401b038082111561303a57600080fd5b61304689838a01612f7a565b9450606088013591508082111561305c57600080fd5b61306889838a01612f7a565b9350608088013591508082111561307e57600080fd5b5061308b88828901612dd4565b9150509295509295909350565b60008083601f8401126130aa57600080fd5b5081356001600160401b038111156130c157600080fd5b6020830191508360208285010111156130d957600080fd5b9250929050565b600080602083850312156130f357600080fd5b82356001600160401b0381111561310957600080fd5b61311585828601613098565b90969095509350505050565b6000806040838503121561313457600080fd5b82356001600160401b038082111561314b57600080fd5b818501915085601f83011261315f57600080fd5b8135602061316c82612f57565b6040516131798282612d59565b83815260059390931b850182019282810191508984111561319957600080fd5b948201945b838610156131c05785356131b181612ccf565b8252948201949082019061319e565b965050860135925050808211156131d657600080fd5b506131e385828601612f7a565b9150509250929050565b600081518084526020808501945080840160005b8381101561321d57815187529582019590820190600101613201565b509495945050505050565b60208152600061285060208301846131ed565b60006020828403121561324d57600080fd5b81356001600160401b0381111561326357600080fd5b610ebb84828501612dd4565b8215158152604060208201526000610ebb6040830184612ee1565b848152600060206080818401526132a46080840187612ee1565b83810360408501526132b68187612ee1565b905083810360608501528085518083528383019150838160051b84010184880160005b8381101561330757601f198684030185526132f5838351612ee1565b948701949250908601906001016132d9565b50909b9a5050505050505050505050565b6000806040838503121561332b57600080fd5b823561333681612ccf565b91506020830135801515811461334b57600080fd5b809150509250929050565b634e487b7160e01b600052602160045260246000fd5b6004811061337c5761337c613356565b9052565b6001600160a01b03841681526060602082018190526000906133a490830185612ee1565b9050610ebb604083018461336c565b803560028110612f3757600080fd5b803560018110612f3757600080fd5b600082601f8301126133e257600080fd5b813560206133ef82612f57565b6040516133fc8282612d59565b83815260059390931b850182019282810191508684111561341c57600080fd5b8286015b84811015612fe05780356001600160401b0381111561343f5760008081fd5b61344d8986838b0101612dd4565b845250918301918301613420565b803563ffffffff81168114612f3757600080fd5b6000806000806080858703121561348557600080fd5b84356001600160401b038082111561349c57600080fd5b9086019060c082890312156134b057600080fd5b6134b8612d85565b6134c1836133b3565b81526134cf602084016133b3565b60208201526134e0604084016133c2565b60408201526060830135828111156134f757600080fd5b6135038a828601612dd4565b60608301525060808301358281111561351b57600080fd5b6135278a828601612dd4565b60808301525060a08301358281111561353f57600080fd5b61354b8a8286016133d1565b60a083015250955061356291505060208601612f20565b92506135706040860161345b565b9396929550929360600135925050565b60006003881061359257613592613356565b87825286602083015285604083015260018060a01b038516606083015260c060808301526135c360c0830185612ee1565b90506135d260a083018461336c565b979650505050505050565b600080604083850312156135f057600080fd5b82356135fb81612ccf565b9150602083013561334b81612ccf565b600080600080600060a0868803121561362357600080fd5b853561362e81612ccf565b9450602086013561363e81612ccf565b9350604086013592506060860135915060808601356001600160401b0381111561366757600080fd5b61308b88828901612dd4565b60006020828403121561368557600080fd5b813561285081612ccf565b600181811c908216806136a457607f821691505b6020821081036136c457634e487b7160e01b600052602260045260246000fd5b50919050565b6020808252602e908201527f455243313135353a2063616c6c6572206973206e6f7420746f6b656e206f776e60408201526d195c881bdc88185c1c1c9bdd995960921b606082015260800190565b634e487b7160e01b600052603260045260246000fd5b634e487b7160e01b600052601160045260246000fd5b6000600182016137565761375661372e565b5060010190565b60006020828403121561376f57600080fd5b81516001600160401b0381111561378557600080fd5b8201601f8101841361379657600080fd5b80516137a181612dad565b6040516137ae8282612d59565b8281528660208486010111156137c357600080fd5b6137d4836020830160208701612eb5565b9695505050505050565b6001600160401b03851681526080602082015260006138006080830186612ee1565b63ffffffff949094166040830152506060015292915050565b60006020828403121561382b57600080fd5b81516bffffffffffffffffffffffff8116811461285057600080fd5b60408152600061385a6040830185612ee1565b828103602084015261386c8185612ee1565b95945050505050565b60208082526025908201527f455243313135353a207472616e7366657220746f20746865207a65726f206164604082015264647265737360d81b606082015260800190565b6020808252602a908201527f455243313135353a20696e73756666696369656e742062616c616e636520666f60408201526939103a3930b739b332b960b11b606082015260800190565b600082198211156139175761391761372e565b500190565b60408152600061392f60408301856131ed565b828103602084015261386c81856131ed565b6000828210156139535761395361372e565b500390565b6001600160a01b03841681526020808201849052606060408301528254600091908290600181811c908281168061399057607f831692505b85831081036139ad57634e487b7160e01b85526022600452602485fd5b60608801839052608088018180156139cc57600181146139dd57613a08565b60ff19861682528782019650613a08565b60008b81526020902060005b86811015613a02578154848201529085019089016139e9565b83019750505b50949b9a5050505050505050505050565b6001600160a01b0386811682528516602082015260a060408201819052600090613a45908301866131ed565b8281036060840152613a5781866131ed565b90508281036080840152613a6b8185612ee1565b98975050505050505050565b600060208284031215613a8957600080fd5b815161285081612d10565b600060033d1115613aad5760046000803e5060005160e01c5b90565b600060443d1015613abe5790565b6040516003193d81016004833e81513d6001600160401b038160248401118184111715613aed57505050505090565b8285019150815181811115613b055750505050505090565b843d8701016020828501011115613b1f5750505050505090565b613b2e60208286010187612d59565b509095945050505050565b60208082526028908201527f455243313135353a204552433131353552656365697665722072656a656374656040820152676420746f6b656e7360c01b606082015260800190565b60018060a01b0384168152826020820152606060408201526000610eb86060830184612ee1565b60018060a01b0385168152836020820152608060408201526000613bcf6080830185612ee1565b905061386c606083018461336c565b600082613bfb57634e487b7160e01b600052601260045260246000fd5b500690565b6001600160a01b03868116825285166020820152604081018490526060810183905260a0608082018190526000906135d290830184612ee1565b6001600160401b0384168152606060208201526000613c5c6060830185612ee1565b905063ffffffff83166040830152949350505050565b600060208284031215613c8457600080fd5b5051919050565b600060208284031215613c9d57600080fd5b815161285081612ccf565b6000816000190483118215151615613cc257613cc261372e565b500290565b600181815b80851115613d02578160001904821115613ce857613ce861372e565b80851615613cf557918102915b93841c9390800290613ccc565b509250929050565b600082613d19575060016105c6565b81613d26575060006105c6565b8160018114613d3c5760028114613d4657613d62565b60019150506105c6565b60ff841115613d5757613d5761372e565b50506001821b6105c6565b5060208310610133831016604e8410600b8410161715613d85575081810a6105c6565b613d8f8383613cc7565b8060001904821115613da357613da361372e565b029392505050565b60006128508383613d0a56fea2646970667358221220db7593fe373afd1670f8af24a4b7d9da40223137a9194e4ffdc94e1c8ffed16e64736f6c634300080d0033",
  "bytecodeSha1": "762de5c181bdf354083fc79dfbfd14377cec6cc7",
  "compiler": {
    "evm_version": "istanbul",
    "optimizer": {
      "enabled": true,
      "runs": 200
    },
    "version": "0.8.13+commit.abaa5c0e"
  },
  "contractName": "PrimeCrusaders",
  "language": "Solidity",
  "natspec": {
    "kind": "dev",
    "methods": {
      "acceptOwnership()": {
        "notice": "Allows an ownership transfer to be completed by the recipient."
      },
      "balanceOf(address,uint256)": {
        "details": "See {IERC1155-balanceOf}. Requirements: - `account` cannot be the zero address."
      },
      "balanceOfBatch(address[],uint256[])": {
        "details": "See {IERC1155-balanceOfBatch}. Requirements: - `accounts` and `ids` must have the same length."
      },
      "checkUpkeep(bytes)": {
        "notice": "Used by Automation to check if performUpkeep should be called. The function's argument is unused in this example, but there is an option to have Automation pass custom data that can be used by the checkUpkeep function. Returns a tuple where the first element is a boolean which determines if upkeep is needed and the second element contains custom bytes data which is passed to performUpkeep when it is called by Automation."
      },
      "constructor": {
        "notice": "Executes once when a contract is created to initialize state variables",
        "params": {
          "_mintInterval": "Time interval at which Chainlink Automation should call performUpkeep",
          "fulfillGasLimit": "Maximum amount of gas used to call the client contract's `handleOracleFulfillment` function",
          "oracle": "The FunctionsOracle contract",
          "subscriptionId": "The Functions billing subscription ID used to pay for Functions requests"
        }
      },
      "estimateCost((uint8,uint8,uint8,string,bytes,string[]),uint64,uint32,uint256)": {
        "notice": "Estimate the total cost that will be charged to a subscription to make a request: gas re-imbursement, plus DON fee, plus Registry fee",
        "params": {
          "gasLimit": "gas limit for the fulfillment callback",
          "req": "The initialized Functions.Request",
          "subscriptionId": "The subscription ID"
        },
        "returns": {
          "_0": "billedCost Cost in Juels (1e18) of LINK"
        }
      },
      "getDONPublicKey()": {
        "details": "All Oracles nodes have the corresponding private key needed to decrypt the secrets encrypted with the public key",
        "notice": "Returns the DON's secp256k1 public key used to encrypt secrets",
        "returns": {
          "_0": "publicKey DON's public key"
        }
      },
      "handleOracleFulfillment(bytes32,bytes,bytes)": {
        "notice": "Chainlink Functions response handler called by the designated transmitter node in an OCR round.",
        "params": {
          "err": "Aggregated error either from the user code or from the execution pipeline. Either response or error parameter will be set, but never both.",
          "requestId": "The requestId returned by FunctionsClient.sendRequest().",
          "response": "Aggregated response from the user code."
        }
      },
      "isApprovedForAll(address,address)": {
        "details": "See {IERC1155-isApprovedForAll}."
      },
      "owner()": {
        "notice": "Get the current owner"
      },
      "performUpkeep(bytes)": {
        "notice": "Called by Automation to trigger a Functions request The function's argument is unused in this example, but there is an option to have Automation pass custom data returned by checkUpkeep (See Chainlink Automation documentation)"
      },
      "safeBatchTransferFrom(address,address,uint256[],uint256[],bytes)": {
        "details": "See {IERC1155-safeBatchTransferFrom}."
      },
      "safeTransferFrom(address,address,uint256,uint256,bytes)": {
        "details": "See {IERC1155-safeTransferFrom}."
      },
      "setApprovalForAll(address,bool)": {
        "details": "See {IERC1155-setApprovalForAll}."
      },
      "supportsInterface(bytes4)": {
        "details": "See {IERC165-supportsInterface}."
      },
      "transferOwnership(address)": {
        "notice": "Allows an owner to begin transferring ownership to a new address, pending."
      }
    },
    "version": 1
  },
  "opcodes": "PUSH1 0x80 PUSH1 0x40 MSTORE CALLVALUE DUP1 ISZERO PUSH2 0x10 JUMPI PUSH1 0x0 DUP1 REVERT JUMPDEST POP PUSH1 0x4 CALLDATASIZE LT PUSH2 0x205 JUMPI PUSH1 0x0 CALLDATALOAD PUSH1 0xE0 SHR DUP1 PUSH4 0x79BA5097 GT PUSH2 0x11A JUMPI DUP1 PUSH4 0xCD2BBA53 GT PUSH2 0xAD JUMPI DUP1 PUSH4 0xE985E9C5 GT PUSH2 0x7C JUMPI DUP1 PUSH4 0xE985E9C5 EQ PUSH2 0x4B6 JUMPI DUP1 PUSH4 0xF242432A EQ PUSH2 0x4F2 JUMPI DUP1 PUSH4 0xF2FDE38B EQ PUSH2 0x505 JUMPI DUP1 PUSH4 0xF7023BB6 EQ PUSH2 0x518 JUMPI DUP1 PUSH4 0xFFFEB84E EQ PUSH2 0x52B JUMPI PUSH1 0x0 DUP1 REVERT JUMPDEST DUP1 PUSH4 0xCD2BBA53 EQ PUSH2 0x445 JUMPI DUP1 PUSH4 0xD328A91E EQ PUSH2 0x464 JUMPI DUP1 PUSH4 0xD4B39175 EQ PUSH2 0x46C JUMPI DUP1 PUSH4 0xE706D69E EQ PUSH2 0x49C JUMPI PUSH1 0x0 DUP1 REVERT JUMPDEST DUP1 PUSH4 0xA22CB465 GT PUSH2 0xE9 JUMPI DUP1 PUSH4 0xA22CB465 EQ PUSH2 0x3F5 JUMPI DUP1 PUSH4 0xB3285E32 EQ PUSH2 0x408 JUMPI DUP1 PUSH4 0xBCBDBE74 EQ PUSH2 0x41B JUMPI DUP1 PUSH4 0xBEF3A2F0 EQ PUSH2 0x43D JUMPI PUSH1 0x0 DUP1 REVERT JUMPDEST DUP1 PUSH4 0x79BA5097 EQ PUSH2 0x3A7 JUMPI DUP1 PUSH4 0x83231CCC EQ PUSH2 0x3AF JUMPI DUP1 PUSH4 0x8C9BAD23 EQ PUSH2 0x3C7 JUMPI DUP1 PUSH4 0x8DA5CB5B EQ PUSH2 0x3DA JUMPI PUSH1 0x0 DUP1 REVERT JUMPDEST DUP1 PUSH4 0x13C60177 GT PUSH2 0x19D JUMPI DUP1 PUSH4 0x2EB2C2D6 GT PUSH2 0x16C JUMPI DUP1 PUSH4 0x2EB2C2D6 EQ PUSH2 0x323 JUMPI DUP1 PUSH4 0x4585E33B EQ PUSH2 0x336 JUMPI DUP1 PUSH4 0x4E1273F4 EQ PUSH2 0x349 JUMPI DUP1 PUSH4 0x588EE29B EQ PUSH2 0x369 JUMPI DUP1 PUSH4 0x6E04FF0D EQ PUSH2 0x386 JUMPI PUSH1 0x0 DUP1 REVERT JUMPDEST DUP1 PUSH4 0x13C60177 EQ PUSH2 0x2D3 JUMPI DUP1 PUSH4 0x14B1DD1B EQ PUSH2 0x2DB JUMPI DUP1 PUSH4 0x1AA46F59 EQ PUSH2 0x2EE JUMPI DUP1 PUSH4 0x24B93E3E EQ PUSH2 0x2F7 JUMPI PUSH1 0x0 DUP1 REVERT JUMPDEST DUP1 PUSH4 0x9C1BA2E GT PUSH2 0x1D9 JUMPI DUP1 PUSH4 0x9C1BA2E EQ PUSH2 0x265 JUMPI DUP1 PUSH4 0xCA76175 EQ PUSH2 0x295 JUMPI DUP1 PUSH4 0xE726E6B EQ PUSH2 0x2AA JUMPI DUP1 PUSH4 0xE89341C EQ PUSH2 0x2B3 JUMPI PUSH1 0x0 DUP1 REVERT JUMPDEST DUP1 PUSH3 0xFDD58E EQ PUSH2 0x20A JUMPI DUP1 PUSH4 0x1FFC9A7 EQ PUSH2 0x230 JUMPI DUP1 PUSH4 0x4B6D7CE EQ PUSH2 0x253 JUMPI DUP1 PUSH4 0x89EA02E EQ PUSH2 0x25C JUMPI JUMPDEST PUSH1 0x0 DUP1 REVERT JUMPDEST PUSH2 0x21D PUSH2 0x218 CALLDATASIZE PUSH1 0x4 PUSH2 0x2CE4 JUMP JUMPDEST PUSH2 0x533 JUMP JUMPDEST PUSH1 0x40 MLOAD SWAP1 DUP2 MSTORE PUSH1 0x20 ADD JUMPDEST PUSH1 0x40 MLOAD DUP1 SWAP2 SUB SWAP1 RETURN JUMPDEST PUSH2 0x243 PUSH2 0x23E CALLDATASIZE PUSH1 0x4 PUSH2 0x2D26 JUMP JUMPDEST PUSH2 0x5CC JUMP JUMPDEST PUSH1 0x40 MLOAD SWAP1 ISZERO ISZERO DUP2 MSTORE PUSH1 0x20 ADD PUSH2 0x227 JUMP JUMPDEST PUSH2 0x21D PUSH1 0xF SLOAD DUP2 JUMP JUMPDEST PUSH2 0x21D PUSH1 0x10 SLOAD DUP2 JUMP JUMPDEST PUSH1 0xD SLOAD PUSH2 0x27D SWAP1 PUSH2 0x100 SWAP1 DIV PUSH1 0x1 PUSH1 0x1 PUSH1 0x40 SHL SUB AND DUP2 JUMP JUMPDEST PUSH1 0x40 MLOAD PUSH1 0x1 PUSH1 0x1 PUSH1 0x40 SHL SUB SWAP1 SWAP2 AND DUP2 MSTORE PUSH1 0x20 ADD PUSH2 0x227 JUMP JUMPDEST PUSH2 0x2A8 PUSH2 0x2A3 CALLDATASIZE PUSH1 0x4 PUSH2 0x2E30 JUMP JUMPDEST PUSH2 0x61C JUMP JUMPDEST STOP JUMPDEST PUSH2 0x21D PUSH1 0xE SLOAD DUP2 JUMP JUMPDEST PUSH2 0x2C6 PUSH2 0x2C1 CALLDATASIZE PUSH1 0x4 PUSH2 0x2E9C JUMP JUMPDEST PUSH2 0x6A9 JUMP JUMPDEST PUSH1 0x40 MLOAD PUSH2 0x227 SWAP2 SWAP1 PUSH2 0x2F0D JUMP JUMPDEST PUSH2 0x2C6 PUSH2 0x74B JUMP JUMPDEST PUSH2 0x2A8 PUSH2 0x2E9 CALLDATASIZE PUSH1 0x4 PUSH2 0x2F3C JUMP JUMPDEST PUSH2 0x7D9 JUMP JUMPDEST PUSH2 0x21D PUSH1 0xA SLOAD DUP2 JUMP JUMPDEST PUSH1 0xD SLOAD PUSH2 0x30E SWAP1 PUSH1 0x1 PUSH1 0x48 SHL SWAP1 DIV PUSH4 0xFFFFFFFF AND DUP2 JUMP JUMPDEST PUSH1 0x40 MLOAD PUSH4 0xFFFFFFFF SWAP1 SWAP2 AND DUP2 MSTORE PUSH1 0x20 ADD PUSH2 0x227 JUMP JUMPDEST PUSH2 0x2A8 PUSH2 0x331 CALLDATASIZE PUSH1 0x4 PUSH2 0x2FEB JUMP JUMPDEST PUSH2 0x80A JUMP JUMPDEST PUSH2 0x2A8 PUSH2 0x344 CALLDATASIZE PUSH1 0x4 PUSH2 0x30E0 JUMP JUMPDEST PUSH2 0x856 JUMP JUMPDEST PUSH2 0x35C PUSH2 0x357 CALLDATASIZE PUSH1 0x4 PUSH2 0x3121 JUMP JUMPDEST PUSH2 0x8FE JUMP JUMPDEST PUSH1 0x40 MLOAD PUSH2 0x227 SWAP2 SWAP1 PUSH2 0x3228 JUMP JUMPDEST PUSH2 0x371 PUSH2 0xA27 JUMP JUMPDEST PUSH1 0x40 DUP1 MLOAD SWAP3 DUP4 MSTORE SWAP1 ISZERO ISZERO PUSH1 0x20 DUP4 ADD MSTORE ADD PUSH2 0x227 JUMP JUMPDEST PUSH2 0x399 PUSH2 0x394 CALLDATASIZE PUSH1 0x4 PUSH2 0x323B JUMP JUMPDEST PUSH2 0xA4E JUMP JUMPDEST PUSH1 0x40 MLOAD PUSH2 0x227 SWAP3 SWAP2 SWAP1 PUSH2 0x326F JUMP JUMPDEST PUSH2 0x2A8 PUSH2 0xAA6 JUMP JUMPDEST PUSH2 0x3B7 PUSH2 0xB54 JUMP JUMPDEST PUSH1 0x40 MLOAD PUSH2 0x227 SWAP5 SWAP4 SWAP3 SWAP2 SWAP1 PUSH2 0x328A JUMP JUMPDEST PUSH2 0x2A8 PUSH2 0x3D5 CALLDATASIZE PUSH1 0x4 PUSH2 0x30E0 JUMP JUMPDEST PUSH2 0xD60 JUMP JUMPDEST PUSH1 0x7 SLOAD PUSH1 0x40 MLOAD PUSH1 0x1 PUSH1 0x1 PUSH1 0xA0 SHL SUB SWAP1 SWAP2 AND DUP2 MSTORE PUSH1 0x20 ADD PUSH2 0x227 JUMP JUMPDEST PUSH2 0x2A8 PUSH2 0x403 CALLDATASIZE PUSH1 0x4 PUSH2 0x3318 JUMP JUMPDEST PUSH2 0xD71 JUMP JUMPDEST PUSH2 0x2A8 PUSH2 0x416 CALLDATASIZE PUSH1 0x4 PUSH2 0x323B JUMP JUMPDEST PUSH2 0xD7C JUMP JUMPDEST PUSH2 0x42E PUSH2 0x429 CALLDATASIZE PUSH1 0x4 PUSH2 0x2E9C JUMP JUMPDEST PUSH2 0xD97 JUMP JUMPDEST PUSH1 0x40 MLOAD PUSH2 0x227 SWAP4 SWAP3 SWAP2 SWAP1 PUSH2 0x3380 JUMP JUMPDEST PUSH2 0x2C6 PUSH2 0xDB4 JUMP JUMPDEST PUSH1 0xD SLOAD PUSH2 0x452 SWAP1 PUSH1 0xFF AND DUP2 JUMP JUMPDEST PUSH1 0x40 MLOAD PUSH1 0xFF SWAP1 SWAP2 AND DUP2 MSTORE PUSH1 0x20 ADD PUSH2 0x227 JUMP JUMPDEST PUSH2 0x2C6 PUSH2 0xDC1 JUMP JUMPDEST PUSH2 0x47F PUSH2 0x47A CALLDATASIZE PUSH1 0x4 PUSH2 0x346F JUMP JUMPDEST PUSH2 0xE38 JUMP JUMPDEST PUSH1 0x40 MLOAD PUSH12 0xFFFFFFFFFFFFFFFFFFFFFFFF SWAP1 SWAP2 AND DUP2 MSTORE PUSH1 0x20 ADD PUSH2 0x227 JUMP JUMPDEST PUSH2 0x4A4 PUSH2 0xEC3 JUMP JUMPDEST PUSH1 0x40 MLOAD PUSH2 0x227 SWAP7 SWAP6 SWAP5 SWAP4 SWAP3 SWAP2 SWAP1 PUSH2 0x3580 JUMP JUMPDEST PUSH2 0x243 PUSH2 0x4C4 CALLDATASIZE PUSH1 0x4 PUSH2 0x35DD JUMP JUMPDEST PUSH1 0x1 PUSH1 0x1 PUSH1 0xA0 SHL SUB SWAP2 DUP3 AND PUSH1 0x0 SWAP1 DUP2 MSTORE PUSH1 0x1 PUSH1 0x20 SWAP1 DUP2 MSTORE PUSH1 0x40 DUP1 DUP4 KECCAK256 SWAP4 SWAP1 SWAP5 AND DUP3 MSTORE SWAP2 SWAP1 SWAP2 MSTORE KECCAK256 SLOAD PUSH1 0xFF AND SWAP1 JUMP JUMPDEST PUSH2 0x2A8 PUSH2 0x500 CALLDATASIZE PUSH1 0x4 PUSH2 0x360B JUMP JUMPDEST PUSH2 0xEF2 JUMP JUMPDEST PUSH2 0x2A8 PUSH2 0x513 CALLDATASIZE PUSH1 0x4 PUSH2 0x3673 JUMP JUMPDEST PUSH2 0xF37 JUMP JUMPDEST PUSH2 0x2A8 PUSH2 0x526 CALLDATASIZE PUSH1 0x4 PUSH2 0x3673 JUMP JUMPDEST PUSH2 0xF4B JUMP JUMPDEST PUSH2 0x2C6 PUSH2 0xF71 JUMP JUMPDEST PUSH1 0x0 PUSH1 0x1 PUSH1 0x1 PUSH1 0xA0 SHL SUB DUP4 AND PUSH2 0x5A3 JUMPI PUSH1 0x40 MLOAD PUSH3 0x461BCD PUSH1 0xE5 SHL DUP2 MSTORE PUSH1 0x20 PUSH1 0x4 DUP3 ADD MSTORE PUSH1 0x2A PUSH1 0x24 DUP3 ADD MSTORE PUSH32 0x455243313135353A2061646472657373207A65726F206973206E6F7420612076 PUSH1 0x44 DUP3 ADD MSTORE PUSH10 0x30B634B21037BBB732B9 PUSH1 0xB1 SHL PUSH1 0x64 DUP3 ADD MSTORE PUSH1 0x84 ADD JUMPDEST PUSH1 0x40 MLOAD DUP1 SWAP2 SUB SWAP1 REVERT JUMPDEST POP PUSH1 0x0 DUP2 DUP2 MSTORE PUSH1 0x20 DUP2 DUP2 MSTORE PUSH1 0x40 DUP1 DUP4 KECCAK256 PUSH1 0x1 PUSH1 0x1 PUSH1 0xA0 SHL SUB DUP7 AND DUP5 MSTORE SWAP1 SWAP2 MSTORE SWAP1 KECCAK256 SLOAD JUMPDEST SWAP3 SWAP2 POP POP JUMP JUMPDEST PUSH1 0x0 PUSH1 0x1 PUSH1 0x1 PUSH1 0xE0 SHL SUB NOT DUP3 AND PUSH4 0x6CDB3D13 PUSH1 0xE1 SHL EQ DUP1 PUSH2 0x5FD JUMPI POP PUSH1 0x1 PUSH1 0x1 PUSH1 0xE0 SHL SUB NOT DUP3 AND PUSH4 0x3A24D07 PUSH1 0xE2 SHL EQ JUMPDEST DUP1 PUSH2 0x5C6 JUMPI POP PUSH4 0x1FFC9A7 PUSH1 0xE0 SHL PUSH1 0x1 PUSH1 0x1 PUSH1 0xE0 SHL SUB NOT DUP4 AND EQ PUSH2 0x5C6 JUMP JUMPDEST PUSH1 0x0 DUP4 DUP2 MSTORE PUSH1 0x6 PUSH1 0x20 MSTORE PUSH1 0x40 SWAP1 KECCAK256 SLOAD DUP4 SWAP1 PUSH1 0x1 PUSH1 0x1 PUSH1 0xA0 SHL SUB AND CALLER EQ PUSH2 0x655 JUMPI PUSH1 0x40 MLOAD PUSH4 0xA0C5EC63 PUSH1 0xE0 SHL DUP2 MSTORE PUSH1 0x4 ADD PUSH1 0x40 MLOAD DUP1 SWAP2 SUB SWAP1 REVERT JUMPDEST PUSH1 0x0 DUP2 DUP2 MSTORE PUSH1 0x6 PUSH1 0x20 MSTORE PUSH1 0x40 DUP1 DUP3 KECCAK256 DUP1 SLOAD PUSH1 0x1 PUSH1 0x1 PUSH1 0xA0 SHL SUB NOT AND SWAP1 SSTORE MLOAD DUP3 SWAP2 PUSH32 0x85E1543BF2F84FE80C6BADBCE3648C8539AD1DF4D2B3D822938CA0538BE727E6 SWAP2 LOG2 PUSH2 0x6A3 DUP5 DUP5 DUP5 PUSH2 0xFB5 JUMP JUMPDEST POP POP POP POP JUMP JUMPDEST PUSH1 0x0 DUP2 DUP2 MSTORE PUSH1 0x3 PUSH1 0x20 MSTORE PUSH1 0x40 SWAP1 KECCAK256 DUP1 SLOAD PUSH1 0x60 SWAP2 SWAP1 PUSH2 0x6C6 SWAP1 PUSH2 0x3690 JUMP JUMPDEST DUP1 PUSH1 0x1F ADD PUSH1 0x20 DUP1 SWAP2 DIV MUL PUSH1 0x20 ADD PUSH1 0x40 MLOAD SWAP1 DUP2 ADD PUSH1 0x40 MSTORE DUP1 SWAP3 SWAP2 SWAP1 DUP2 DUP2 MSTORE PUSH1 0x20 ADD DUP3 DUP1 SLOAD PUSH2 0x6F2 SWAP1 PUSH2 0x3690 JUMP JUMPDEST DUP1 ISZERO PUSH2 0x73F JUMPI DUP1 PUSH1 0x1F LT PUSH2 0x714 JUMPI PUSH2 0x100 DUP1 DUP4 SLOAD DIV MUL DUP4 MSTORE SWAP2 PUSH1 0x20 ADD SWAP2 PUSH2 0x73F JUMP JUMPDEST DUP3 ADD SWAP2 SWAP1 PUSH1 0x0 MSTORE PUSH1 0x20 PUSH1 0x0 KECCAK256 SWAP1 JUMPDEST DUP2 SLOAD DUP2 MSTORE SWAP1 PUSH1 0x1 ADD SWAP1 PUSH1 0x20 ADD DUP1 DUP4 GT PUSH2 0x722 JUMPI DUP3 SWAP1 SUB PUSH1 0x1F AND DUP3 ADD SWAP2 JUMPDEST POP POP POP POP POP SWAP1 POP SWAP2 SWAP1 POP JUMP JUMPDEST PUSH1 0x9 DUP1 SLOAD PUSH2 0x758 SWAP1 PUSH2 0x3690 JUMP JUMPDEST DUP1 PUSH1 0x1F ADD PUSH1 0x20 DUP1 SWAP2 DIV MUL PUSH1 0x20 ADD PUSH1 0x40 MLOAD SWAP1 DUP2 ADD PUSH1 0x40 MSTORE DUP1 SWAP3 SWAP2 SWAP1 DUP2 DUP2 MSTORE PUSH1 0x20 ADD DUP3 DUP1 SLOAD PUSH2 0x784 SWAP1 PUSH2 0x3690 JUMP JUMPDEST DUP1 ISZERO PUSH2 0x7D1 JUMPI DUP1 PUSH1 0x1F LT PUSH2 0x7A6 JUMPI PUSH2 0x100 DUP1 DUP4 SLOAD DIV MUL DUP4 MSTORE SWAP2 PUSH1 0x20 ADD SWAP2 PUSH2 0x7D1 JUMP JUMPDEST DUP3 ADD SWAP2 SWAP1 PUSH1 0x0 MSTORE PUSH1 0x20 PUSH1 0x0 KECCAK256 SWAP1 JUMPDEST DUP2 SLOAD DUP2 MSTORE SWAP1 PUSH1 0x1 ADD SWAP1 PUSH1 0x20 ADD DUP1 DUP4 GT PUSH2 0x7B4 JUMPI DUP3 SWAP1 SUB PUSH1 0x1F AND DUP3 ADD SWAP2 JUMPDEST POP POP POP POP POP DUP2 JUMP JUMPDEST PUSH2 0x7E1 PUSH2 0x101C JUMP JUMPDEST PUSH1 0xD DUP1 SLOAD PUSH1 0x1 PUSH1 0x1 PUSH1 0x40 SHL SUB SWAP1 SWAP3 AND PUSH2 0x100 MUL PUSH9 0xFFFFFFFFFFFFFFFF00 NOT SWAP1 SWAP3 AND SWAP2 SWAP1 SWAP2 OR SWAP1 SSTORE JUMP JUMPDEST PUSH1 0x1 PUSH1 0x1 PUSH1 0xA0 SHL SUB DUP6 AND CALLER EQ DUP1 PUSH2 0x826 JUMPI POP PUSH2 0x826 DUP6 CALLER PUSH2 0x4C4 JUMP JUMPDEST PUSH2 0x842 JUMPI PUSH1 0x40 MLOAD PUSH3 0x461BCD PUSH1 0xE5 SHL DUP2 MSTORE PUSH1 0x4 ADD PUSH2 0x59A SWAP1 PUSH2 0x36CA JUMP JUMPDEST PUSH2 0x84F DUP6 DUP6 DUP6 DUP6 DUP6 PUSH2 0x1071 JUMP JUMPDEST POP POP POP POP POP JUMP JUMPDEST PUSH1 0x0 PUSH2 0x870 PUSH1 0x40 MLOAD DUP1 PUSH1 0x20 ADD PUSH1 0x40 MSTORE DUP1 PUSH1 0x0 DUP2 MSTORE POP PUSH2 0xA4E JUMP JUMPDEST POP SWAP1 POP DUP1 PUSH2 0x8B4 JUMPI PUSH1 0x40 MLOAD PUSH3 0x461BCD PUSH1 0xE5 SHL DUP2 MSTORE PUSH1 0x20 PUSH1 0x4 DUP3 ADD MSTORE PUSH1 0x11 PUSH1 0x24 DUP3 ADD MSTORE PUSH17 0x1D5C1AD9595C081B9BDD081B9959591959 PUSH1 0x7A SHL PUSH1 0x44 DUP3 ADD MSTORE PUSH1 0x64 ADD PUSH2 0x59A JUMP JUMPDEST PUSH1 0x0 PUSH1 0x15 SLOAD PUSH1 0xFF AND PUSH1 0x2 DUP2 GT ISZERO PUSH2 0x8CD JUMPI PUSH2 0x8CD PUSH2 0x3356 JUMP JUMPDEST SUB PUSH2 0x8DF JUMPI PUSH2 0x8DA PUSH2 0x124E JUMP JUMPDEST PUSH2 0x8EF JUMP JUMPDEST PUSH2 0x8E7 PUSH2 0x133C JUMP JUMPDEST PUSH2 0x8EF PUSH2 0x1417 JUMP JUMPDEST PUSH2 0x8F9 PUSH1 0x11 PUSH2 0x1454 JUMP JUMPDEST POP POP POP JUMP JUMPDEST PUSH1 0x60 DUP2 MLOAD DUP4 MLOAD EQ PUSH2 0x963 JUMPI PUSH1 0x40 MLOAD PUSH3 0x461BCD PUSH1 0xE5 SHL DUP2 MSTORE PUSH1 0x20 PUSH1 0x4 DUP3 ADD MSTORE PUSH1 0x29 PUSH1 0x24 DUP3 ADD MSTORE PUSH32 0x455243313135353A206163636F756E747320616E6420696473206C656E677468 PUSH1 0x44 DUP3 ADD MSTORE PUSH9 0x40DAD2E6DAC2E8C6D PUSH1 0xBB SHL PUSH1 0x64 DUP3 ADD MSTORE PUSH1 0x84 ADD PUSH2 0x59A JUMP JUMPDEST PUSH1 0x0 DUP4 MLOAD PUSH1 0x1 PUSH1 0x1 PUSH1 0x40 SHL SUB DUP2 GT ISZERO PUSH2 0x97E JUMPI PUSH2 0x97E PUSH2 0x2D43 JUMP JUMPDEST PUSH1 0x40 MLOAD SWAP1 DUP1 DUP3 MSTORE DUP1 PUSH1 0x20 MUL PUSH1 0x20 ADD DUP3 ADD PUSH1 0x40 MSTORE DUP1 ISZERO PUSH2 0x9A7 JUMPI DUP2 PUSH1 0x20 ADD PUSH1 0x20 DUP3 MUL DUP1 CALLDATASIZE DUP4 CALLDATACOPY ADD SWAP1 POP JUMPDEST POP SWAP1 POP PUSH1 0x0 JUMPDEST DUP5 MLOAD DUP2 LT ISZERO PUSH2 0xA1F JUMPI PUSH2 0x9F2 DUP6 DUP3 DUP2 MLOAD DUP2 LT PUSH2 0x9CB JUMPI PUSH2 0x9CB PUSH2 0x3718 JUMP JUMPDEST PUSH1 0x20 MUL PUSH1 0x20 ADD ADD MLOAD DUP6 DUP4 DUP2 MLOAD DUP2 LT PUSH2 0x9E5 JUMPI PUSH2 0x9E5 PUSH2 0x3718 JUMP JUMPDEST PUSH1 0x20 MUL PUSH1 0x20 ADD ADD MLOAD PUSH2 0x533 JUMP JUMPDEST DUP3 DUP3 DUP2 MLOAD DUP2 LT PUSH2 0xA04 JUMPI PUSH2 0xA04 PUSH2 0x3718 JUMP JUMPDEST PUSH1 0x20 SWAP1 DUP2 MUL SWAP2 SWAP1 SWAP2 ADD ADD MSTORE PUSH2 0xA18 DUP2 PUSH2 0x3744 JUMP JUMPDEST SWAP1 POP PUSH2 0x9AD JUMP JUMPDEST POP SWAP4 SWAP3 POP POP POP JUMP JUMPDEST PUSH1 0x0 DUP1 PUSH1 0xB DUP1 SLOAD PUSH2 0xA37 SWAP1 PUSH2 0x3690 JUMP JUMPDEST PUSH1 0x12 SLOAD SWAP1 SWAP2 POP PUSH2 0xA46 SWAP1 PUSH2 0x150D JUMP JUMPDEST SWAP2 POP SWAP2 POP SWAP1 SWAP2 JUMP JUMPDEST PUSH1 0x0 PUSH1 0x60 DUP2 PUSH1 0x15 SLOAD PUSH1 0xFF AND PUSH1 0x2 DUP2 GT ISZERO PUSH2 0xA6A JUMPI PUSH2 0xA6A PUSH2 0x3356 JUMP JUMPDEST SUB PUSH2 0xA7D JUMPI PUSH1 0x13 SLOAD PUSH1 0x14 SLOAD LT SWAP2 POP PUSH2 0xA8F JUMP JUMPDEST PUSH2 0xA85 PUSH2 0x159E JUMP JUMPDEST ISZERO PUSH2 0xA8F JUMPI PUSH1 0x1 SWAP2 POP JUMPDEST POP PUSH1 0x40 DUP1 MLOAD PUSH1 0x20 DUP2 ADD SWAP1 SWAP2 MSTORE PUSH1 0x0 DUP2 MSTORE SWAP1 SWAP3 SWAP1 SWAP2 POP JUMP JUMPDEST PUSH1 0x8 SLOAD PUSH1 0x1 PUSH1 0x1 PUSH1 0xA0 SHL SUB AND CALLER EQ PUSH2 0xAF9 JUMPI PUSH1 0x40 MLOAD PUSH3 0x461BCD PUSH1 0xE5 SHL DUP2 MSTORE PUSH1 0x20 PUSH1 0x4 DUP3 ADD MSTORE PUSH1 0x16 PUSH1 0x24 DUP3 ADD MSTORE PUSH22 0x26BAB9BA10313290383937B837B9B2B21037BBB732B9 PUSH1 0x51 SHL PUSH1 0x44 DUP3 ADD MSTORE PUSH1 0x64 ADD PUSH2 0x59A JUMP JUMPDEST PUSH1 0x7 DUP1 SLOAD PUSH1 0x1 PUSH1 0x1 PUSH1 0xA0 SHL SUB NOT DUP1 DUP3 AND CALLER SWAP1 DUP2 OR SWAP1 SWAP4 SSTORE PUSH1 0x8 DUP1 SLOAD SWAP1 SWAP2 AND SWAP1 SSTORE PUSH1 0x40 MLOAD PUSH1 0x1 PUSH1 0x1 PUSH1 0xA0 SHL SUB SWAP1 SWAP2 AND SWAP2 SWAP1 DUP3 SWAP1 PUSH32 0x8BE0079C531659141344CD1FD0A4F28419497F9722A3DAAFE3B4186F6B6457E0 SWAP1 PUSH1 0x0 SWAP1 LOG3 POP JUMP JUMPDEST PUSH1 0x0 PUSH1 0x60 DUP1 PUSH1 0x60 PUSH1 0xA SLOAD PUSH1 0xB PUSH1 0xC PUSH1 0x11 PUSH1 0x1 ADD DUP3 DUP1 SLOAD PUSH2 0xB73 SWAP1 PUSH2 0x3690 JUMP JUMPDEST DUP1 PUSH1 0x1F ADD PUSH1 0x20 DUP1 SWAP2 DIV MUL PUSH1 0x20 ADD PUSH1 0x40 MLOAD SWAP1 DUP2 ADD PUSH1 0x40 MSTORE DUP1 SWAP3 SWAP2 SWAP1 DUP2 DUP2 MSTORE PUSH1 0x20 ADD DUP3 DUP1 SLOAD PUSH2 0xB9F SWAP1 PUSH2 0x3690 JUMP JUMPDEST DUP1 ISZERO PUSH2 0xBEC JUMPI DUP1 PUSH1 0x1F LT PUSH2 0xBC1 JUMPI PUSH2 0x100 DUP1 DUP4 SLOAD DIV MUL DUP4 MSTORE SWAP2 PUSH1 0x20 ADD SWAP2 PUSH2 0xBEC JUMP JUMPDEST DUP3 ADD SWAP2 SWAP1 PUSH1 0x0 MSTORE PUSH1 0x20 PUSH1 0x0 KECCAK256 SWAP1 JUMPDEST DUP2 SLOAD DUP2 MSTORE SWAP1 PUSH1 0x1 ADD SWAP1 PUSH1 0x20 ADD DUP1 DUP4 GT PUSH2 0xBCF JUMPI DUP3 SWAP1 SUB PUSH1 0x1F AND DUP3 ADD SWAP2 JUMPDEST POP POP POP POP POP SWAP3 POP DUP2 DUP1 SLOAD PUSH2 0xBFF SWAP1 PUSH2 0x3690 JUMP JUMPDEST DUP1 PUSH1 0x1F ADD PUSH1 0x20 DUP1 SWAP2 DIV MUL PUSH1 0x20 ADD PUSH1 0x40 MLOAD SWAP1 DUP2 ADD PUSH1 0x40 MSTORE DUP1 SWAP3 SWAP2 SWAP1 DUP2 DUP2 MSTORE PUSH1 0x20 ADD DUP3 DUP1 SLOAD PUSH2 0xC2B SWAP1 PUSH2 0x3690 JUMP JUMPDEST DUP1 ISZERO PUSH2 0xC78 JUMPI DUP1 PUSH1 0x1F LT PUSH2 0xC4D JUMPI PUSH2 0x100 DUP1 DUP4 SLOAD DIV MUL DUP4 MSTORE SWAP2 PUSH1 0x20 ADD SWAP2 PUSH2 0xC78 JUMP JUMPDEST DUP3 ADD SWAP2 SWAP1 PUSH1 0x0 MSTORE PUSH1 0x20 PUSH1 0x0 KECCAK256 SWAP1 JUMPDEST DUP2 SLOAD DUP2 MSTORE SWAP1 PUSH1 0x1 ADD SWAP1 PUSH1 0x20 ADD DUP1 DUP4 GT PUSH2 0xC5B JUMPI DUP3 SWAP1 SUB PUSH1 0x1F AND DUP3 ADD SWAP2 JUMPDEST POP POP POP POP POP SWAP2 POP DUP1 DUP1 SLOAD DUP1 PUSH1 0x20 MUL PUSH1 0x20 ADD PUSH1 0x40 MLOAD SWAP1 DUP2 ADD PUSH1 0x40 MSTORE DUP1 SWAP3 SWAP2 SWAP1 DUP2 DUP2 MSTORE PUSH1 0x20 ADD PUSH1 0x0 SWAP1 JUMPDEST DUP3 DUP3 LT ISZERO PUSH2 0xD4C JUMPI DUP4 DUP3 SWAP1 PUSH1 0x0 MSTORE PUSH1 0x20 PUSH1 0x0 KECCAK256 ADD DUP1 SLOAD PUSH2 0xCBF SWAP1 PUSH2 0x3690 JUMP JUMPDEST DUP1 PUSH1 0x1F ADD PUSH1 0x20 DUP1 SWAP2 DIV MUL PUSH1 0x20 ADD PUSH1 0x40 MLOAD SWAP1 DUP2 ADD PUSH1 0x40 MSTORE DUP1 SWAP3 SWAP2 SWAP1 DUP2 DUP2 MSTORE PUSH1 0x20 ADD DUP3 DUP1 SLOAD PUSH2 0xCEB SWAP1 PUSH2 0x3690 JUMP JUMPDEST DUP1 ISZERO PUSH2 0xD38 JUMPI DUP1 PUSH1 0x1F LT PUSH2 0xD0D JUMPI PUSH2 0x100 DUP1 DUP4 SLOAD DIV MUL DUP4 MSTORE SWAP2 PUSH1 0x20 ADD SWAP2 PUSH2 0xD38 JUMP JUMPDEST DUP3 ADD SWAP2 SWAP1 PUSH1 0x0 MSTORE PUSH1 0x20 PUSH1 0x0 KECCAK256 SWAP1 JUMPDEST DUP2 SLOAD DUP2 MSTORE SWAP1 PUSH1 0x1 ADD SWAP1 PUSH1 0x20 ADD DUP1 DUP4 GT PUSH2 0xD1B JUMPI DUP3 SWAP1 SUB PUSH1 0x1F AND DUP3 ADD SWAP2 JUMPDEST POP POP POP POP POP DUP2 MSTORE PUSH1 0x20 ADD SWAP1 PUSH1 0x1 ADD SWAP1 PUSH2 0xCA0 JUMP JUMPDEST POP POP POP POP SWAP1 POP SWAP4 POP SWAP4 POP SWAP4 POP SWAP4 POP SWAP1 SWAP2 SWAP3 SWAP4 JUMP JUMPDEST PUSH2 0xD6D PUSH1 0x11 CALLER DUP5 DUP5 PUSH2 0x15C5 JUMP JUMPDEST POP POP JUMP JUMPDEST PUSH2 0xD6D CALLER DUP4 DUP4 PUSH2 0x1692 JUMP JUMPDEST PUSH2 0xD84 PUSH2 0x101C JUMP JUMPDEST DUP1 MLOAD PUSH2 0xD6D SWAP1 PUSH1 0x9 SWAP1 PUSH1 0x20 DUP5 ADD SWAP1 PUSH2 0x2A44 JUMP JUMPDEST PUSH1 0x0 PUSH1 0x60 DUP2 PUSH2 0xDA7 PUSH1 0x11 DUP6 PUSH2 0x1772 JUMP JUMPDEST SWAP2 SWAP7 SWAP1 SWAP6 POP SWAP1 SWAP4 POP SWAP2 POP POP JUMP JUMPDEST PUSH1 0xB DUP1 SLOAD PUSH2 0x758 SWAP1 PUSH2 0x3690 JUMP JUMPDEST PUSH1 0x5 SLOAD PUSH1 0x40 DUP1 MLOAD PUSH4 0x6994548F PUSH1 0xE1 SHL DUP2 MSTORE SWAP1 MLOAD PUSH1 0x60 SWAP3 PUSH1 0x1 PUSH1 0x1 PUSH1 0xA0 SHL SUB AND SWAP2 PUSH4 0xD328A91E SWAP2 PUSH1 0x4 DUP1 DUP4 ADD SWAP3 PUSH1 0x0 SWAP3 SWAP2 SWAP1 DUP3 SWAP1 SUB ADD DUP2 DUP7 GAS STATICCALL ISZERO DUP1 ISZERO PUSH2 0xE0B JUMPI RETURNDATASIZE PUSH1 0x0 DUP1 RETURNDATACOPY RETURNDATASIZE PUSH1 0x0 REVERT JUMPDEST POP POP POP POP PUSH1 0x40 MLOAD RETURNDATASIZE PUSH1 0x0 DUP3 RETURNDATACOPY PUSH1 0x1F RETURNDATASIZE SWAP1 DUP2 ADD PUSH1 0x1F NOT AND DUP3 ADD PUSH1 0x40 MSTORE PUSH2 0xE33 SWAP2 SWAP1 DUP2 ADD SWAP1 PUSH2 0x375D JUMP JUMPDEST SWAP1 POP SWAP1 JUMP JUMPDEST PUSH1 0x5 SLOAD PUSH1 0x0 SWAP1 PUSH1 0x1 PUSH1 0x1 PUSH1 0xA0 SHL SUB AND PUSH4 0xD227D245 DUP6 PUSH2 0xE56 DUP9 PUSH2 0x183C JUMP JUMPDEST DUP7 DUP7 PUSH1 0x40 MLOAD DUP6 PUSH4 0xFFFFFFFF AND PUSH1 0xE0 SHL DUP2 MSTORE PUSH1 0x4 ADD PUSH2 0xE77 SWAP5 SWAP4 SWAP3 SWAP2 SWAP1 PUSH2 0x37DE JUMP JUMPDEST PUSH1 0x20 PUSH1 0x40 MLOAD DUP1 DUP4 SUB DUP2 DUP7 GAS STATICCALL ISZERO DUP1 ISZERO PUSH2 0xE94 JUMPI RETURNDATASIZE PUSH1 0x0 DUP1 RETURNDATACOPY RETURNDATASIZE PUSH1 0x0 REVERT JUMPDEST POP POP POP POP PUSH1 0x40 MLOAD RETURNDATASIZE PUSH1 0x1F NOT PUSH1 0x1F DUP3 ADD AND DUP3 ADD DUP1 PUSH1 0x40 MSTORE POP DUP2 ADD SWAP1 PUSH2 0xEB8 SWAP2 SWAP1 PUSH2 0x3819 JUMP JUMPDEST SWAP1 POP JUMPDEST SWAP5 SWAP4 POP POP POP POP JUMP JUMPDEST PUSH1 0x15 SLOAD PUSH1 0x13 SLOAD PUSH1 0x14 SLOAD PUSH1 0xFF SWAP1 SWAP3 AND SWAP2 PUSH1 0x0 PUSH1 0x60 DUP2 PUSH2 0xEE1 PUSH1 0x11 PUSH2 0x1A74 JUMP JUMPDEST SWAP8 SWAP9 SWAP7 SWAP8 SWAP6 SWAP7 SWAP2 SWAP6 SWAP1 SWAP5 POP SWAP3 POP SWAP1 POP JUMP JUMPDEST PUSH1 0x1 PUSH1 0x1 PUSH1 0xA0 SHL SUB DUP6 AND CALLER EQ DUP1 PUSH2 0xF0E JUMPI POP PUSH2 0xF0E DUP6 CALLER PUSH2 0x4C4 JUMP JUMPDEST PUSH2 0xF2A JUMPI PUSH1 0x40 MLOAD PUSH3 0x461BCD PUSH1 0xE5 SHL DUP2 MSTORE PUSH1 0x4 ADD PUSH2 0x59A SWAP1 PUSH2 0x36CA JUMP JUMPDEST PUSH2 0x84F DUP6 DUP6 DUP6 DUP6 DUP6 PUSH2 0x1B45 JUMP JUMPDEST PUSH2 0xF3F PUSH2 0x101C JUMP JUMPDEST PUSH2 0xF48 DUP2 PUSH2 0x1C6F JUMP JUMPDEST POP JUMP JUMPDEST PUSH2 0xF53 PUSH2 0x101C JUMP JUMPDEST PUSH1 0x5 DUP1 SLOAD PUSH1 0x1 PUSH1 0x1 PUSH1 0xA0 SHL SUB NOT AND PUSH1 0x1 PUSH1 0x1 PUSH1 0xA0 SHL SUB DUP4 AND OR SWAP1 SSTORE POP JUMP JUMPDEST PUSH1 0xC DUP1 SLOAD PUSH2 0x758 SWAP1 PUSH2 0x3690 JUMP JUMPDEST PUSH1 0x0 PUSH1 0x2 DUP3 ADD DUP2 SWAP1 SSTORE PUSH1 0x3 DUP3 ADD DUP2 SWAP1 SSTORE JUMPDEST PUSH1 0x4 DUP3 ADD DUP1 SLOAD PUSH1 0xFF NOT AND PUSH1 0x1 DUP4 PUSH1 0x2 DUP2 GT ISZERO PUSH2 0xFAD JUMPI PUSH2 0xFAD PUSH2 0x3356 JUMP JUMPDEST MUL OR SWAP1 SSTORE POP POP JUMP JUMPDEST DUP2 MLOAD PUSH2 0xFC8 SWAP1 PUSH1 0xB SWAP1 PUSH1 0x20 DUP6 ADD SWAP1 PUSH2 0x2A44 JUMP JUMPDEST POP DUP1 MLOAD PUSH2 0xFDC SWAP1 PUSH1 0xC SWAP1 PUSH1 0x20 DUP5 ADD SWAP1 PUSH2 0x2A44 JUMP JUMPDEST POP DUP3 PUSH32 0x7BAB0EC163B5C132C72B8146AC4D6E067E82ED58F8B131150AA71C9258911562 DUP4 DUP4 PUSH1 0x40 MLOAD PUSH2 0x100F SWAP3 SWAP2 SWAP1 PUSH2 0x3847 JUMP JUMPDEST PUSH1 0x40 MLOAD DUP1 SWAP2 SUB SWAP1 LOG2 POP POP POP JUMP JUMPDEST PUSH1 0x7 SLOAD PUSH1 0x1 PUSH1 0x1 PUSH1 0xA0 SHL SUB AND CALLER EQ PUSH2 0x106F JUMPI PUSH1 0x40 MLOAD PUSH3 0x461BCD PUSH1 0xE5 SHL DUP2 MSTORE PUSH1 0x20 PUSH1 0x4 DUP3 ADD MSTORE PUSH1 0x16 PUSH1 0x24 DUP3 ADD MSTORE PUSH22 0x27B7363C9031B0B63630B1363290313C9037BBB732B9 PUSH1 0x51 SHL PUSH1 0x44 DUP3 ADD MSTORE PUSH1 0x64 ADD PUSH2 0x59A JUMP JUMPDEST JUMP JUMPDEST DUP2 MLOAD DUP4 MLOAD EQ PUSH2 0x10D3 JUMPI PUSH1 0x40 MLOAD PUSH3 0x461BCD PUSH1 0xE5 SHL DUP2 MSTORE PUSH1 0x20 PUSH1 0x4 DUP3 ADD MSTORE PUSH1 0x28 PUSH1 0x24 DUP3 ADD MSTORE PUSH32 0x455243313135353A2069647320616E6420616D6F756E7473206C656E67746820 PUSH1 0x44 DUP3 ADD MSTORE PUSH8 0xDAD2E6DAC2E8C6D PUSH1 0xC3 SHL PUSH1 0x64 DUP3 ADD MSTORE PUSH1 0x84 ADD PUSH2 0x59A JUMP JUMPDEST PUSH1 0x1 PUSH1 0x1 PUSH1 0xA0 SHL SUB DUP5 AND PUSH2 0x10F9 JUMPI PUSH1 0x40 MLOAD PUSH3 0x461BCD PUSH1 0xE5 SHL DUP2 MSTORE PUSH1 0x4 ADD PUSH2 0x59A SWAP1 PUSH2 0x3875 JUMP JUMPDEST CALLER PUSH1 0x0 JUMPDEST DUP5 MLOAD DUP2 LT ISZERO PUSH2 0x11E0 JUMPI PUSH1 0x0 DUP6 DUP3 DUP2 MLOAD DUP2 LT PUSH2 0x111A JUMPI PUSH2 0x111A PUSH2 0x3718 JUMP JUMPDEST PUSH1 0x20 MUL PUSH1 0x20 ADD ADD MLOAD SWAP1 POP PUSH1 0x0 DUP6 DUP4 DUP2 MLOAD DUP2 LT PUSH2 0x1138 JUMPI PUSH2 0x1138 PUSH2 0x3718 JUMP JUMPDEST PUSH1 0x20 SWAP1 DUP2 MUL SWAP2 SWAP1 SWAP2 ADD DUP2 ADD MLOAD PUSH1 0x0 DUP5 DUP2 MSTORE DUP1 DUP4 MSTORE PUSH1 0x40 DUP1 DUP3 KECCAK256 PUSH1 0x1 PUSH1 0x1 PUSH1 0xA0 SHL SUB DUP15 AND DUP4 MSTORE SWAP1 SWAP4 MSTORE SWAP2 SWAP1 SWAP2 KECCAK256 SLOAD SWAP1 SWAP2 POP DUP2 DUP2 LT ISZERO PUSH2 0x1188 JUMPI PUSH1 0x40 MLOAD PUSH3 0x461BCD PUSH1 0xE5 SHL DUP2 MSTORE PUSH1 0x4 ADD PUSH2 0x59A SWAP1 PUSH2 0x38BA JUMP JUMPDEST PUSH1 0x0 DUP4 DUP2 MSTORE PUSH1 0x20 DUP2 DUP2 MSTORE PUSH1 0x40 DUP1 DUP4 KECCAK256 PUSH1 0x1 PUSH1 0x1 PUSH1 0xA0 SHL SUB DUP15 DUP2 AND DUP6 MSTORE SWAP3 MSTORE DUP1 DUP4 KECCAK256 DUP6 DUP6 SUB SWAP1 SSTORE SWAP1 DUP12 AND DUP3 MSTORE DUP2 KECCAK256 DUP1 SLOAD DUP5 SWAP3 SWAP1 PUSH2 0x11C5 SWAP1 DUP5 SWAP1 PUSH2 0x3904 JUMP JUMPDEST SWAP3 POP POP DUP2 SWAP1 SSTORE POP POP POP POP DUP1 PUSH2 0x11D9 SWAP1 PUSH2 0x3744 JUMP JUMPDEST SWAP1 POP PUSH2 0x10FD JUMP JUMPDEST POP DUP5 PUSH1 0x1 PUSH1 0x1 PUSH1 0xA0 SHL SUB AND DUP7 PUSH1 0x1 PUSH1 0x1 PUSH1 0xA0 SHL SUB AND DUP3 PUSH1 0x1 PUSH1 0x1 PUSH1 0xA0 SHL SUB AND PUSH32 0x4A39DC06D4C0DBC64B70AF90FD698A233A518AA5D07E595D983B8C0526C8F7FB DUP8 DUP8 PUSH1 0x40 MLOAD PUSH2 0x1230 SWAP3 SWAP2 SWAP1 PUSH2 0x391C JUMP JUMPDEST PUSH1 0x40 MLOAD DUP1 SWAP2 SUB SWAP1 LOG4 PUSH2 0x1246 DUP2 DUP8 DUP8 DUP8 DUP8 DUP8 PUSH2 0x1D19 JUMP JUMPDEST POP POP POP POP POP POP JUMP JUMPDEST PUSH2 0x1258 PUSH1 0x11 PUSH2 0x1E7D JUMP JUMPDEST PUSH1 0x40 DUP1 MLOAD PUSH1 0x20 DUP1 DUP3 ADD DUP4 MSTORE PUSH1 0x0 DUP1 DUP4 MSTORE PUSH1 0x12 DUP1 SLOAD DUP6 MLOAD DUP2 DUP6 MUL DUP2 ADD DUP6 ADD SWAP1 SWAP7 MSTORE DUP1 DUP7 MSTORE PUSH2 0x106F SWAP6 SWAP4 SWAP2 SWAP3 SWAP1 SWAP2 DUP5 ADD JUMPDEST DUP3 DUP3 LT ISZERO PUSH2 0x1333 JUMPI DUP4 DUP3 SWAP1 PUSH1 0x0 MSTORE PUSH1 0x20 PUSH1 0x0 KECCAK256 ADD DUP1 SLOAD PUSH2 0x12A6 SWAP1 PUSH2 0x3690 JUMP JUMPDEST DUP1 PUSH1 0x1F ADD PUSH1 0x20 DUP1 SWAP2 DIV MUL PUSH1 0x20 ADD PUSH1 0x40 MLOAD SWAP1 DUP2 ADD PUSH1 0x40 MSTORE DUP1 SWAP3 SWAP2 SWAP1 DUP2 DUP2 MSTORE PUSH1 0x20 ADD DUP3 DUP1 SLOAD PUSH2 0x12D2 SWAP1 PUSH2 0x3690 JUMP JUMPDEST DUP1 ISZERO PUSH2 0x131F JUMPI DUP1 PUSH1 0x1F LT PUSH2 0x12F4 JUMPI PUSH2 0x100 DUP1 DUP4 SLOAD DIV MUL DUP4 MSTORE SWAP2 PUSH1 0x20 ADD SWAP2 PUSH2 0x131F JUMP JUMPDEST DUP3 ADD SWAP2 SWAP1 PUSH1 0x0 MSTORE PUSH1 0x20 PUSH1 0x0 KECCAK256 SWAP1 JUMPDEST DUP2 SLOAD DUP2 MSTORE SWAP1 PUSH1 0x1 ADD SWAP1 PUSH1 0x20 ADD DUP1 DUP4 GT PUSH2 0x1302 JUMPI DUP3 SWAP1 SUB PUSH1 0x1F AND DUP3 ADD SWAP2 JUMPDEST POP POP POP POP POP DUP2 MSTORE PUSH1 0x20 ADD SWAP1 PUSH1 0x1 ADD SWAP1 PUSH2 0x1287 JUMP JUMPDEST POP POP POP POP PUSH2 0x1F13 JUMP JUMPDEST PUSH1 0x12 SLOAD PUSH2 0x1348 SWAP1 PUSH2 0x150D JUMP JUMPDEST PUSH2 0x1351 JUMPI PUSH1 0x0 DUP1 REVERT JUMPDEST PUSH1 0x0 PUSH1 0x60 PUSH1 0x0 JUMPDEST PUSH1 0x12 SLOAD DUP2 LT ISZERO PUSH2 0x8F9 JUMPI PUSH2 0x136C PUSH1 0x11 PUSH2 0x1A74 JUMP JUMPDEST POP PUSH1 0xD SLOAD SWAP2 SWAP5 POP SWAP3 POP PUSH1 0xB SWAP1 PUSH2 0x1386 SWAP1 DUP4 SWAP1 PUSH1 0xFF AND PUSH2 0x3904 JUMP JUMPDEST DUP2 SLOAD PUSH2 0x1391 SWAP1 PUSH2 0x3690 JUMP JUMPDEST DUP2 LT PUSH2 0x139F JUMPI PUSH2 0x139F PUSH2 0x3718 JUMP JUMPDEST DUP2 SLOAD PUSH1 0x1 AND ISZERO PUSH2 0x13BE JUMPI SWAP1 PUSH1 0x0 MSTORE PUSH1 0x20 PUSH1 0x0 KECCAK256 SWAP1 PUSH1 0x20 SWAP2 DUP3 DUP3 DIV ADD SWAP2 SWAP1 MOD JUMPDEST SWAP1 SLOAD SWAP1 BYTE PUSH1 0x1 PUSH1 0xF8 SHL MUL PUSH1 0x1 PUSH1 0x1 PUSH1 0xF8 SHL SUB NOT AND PUSH1 0x31 PUSH1 0xF8 SHL SUB PUSH2 0x13F9 JUMPI PUSH2 0x13E8 DUP4 DUP4 PUSH1 0x1 PUSH2 0x2047 JUMP JUMPDEST PUSH2 0x13F4 PUSH1 0x11 PUSH1 0x1 PUSH2 0x20C8 JUMP JUMPDEST PUSH2 0x1405 JUMP JUMPDEST PUSH2 0x1405 PUSH1 0x11 PUSH1 0x0 PUSH2 0x20C8 JUMP JUMPDEST DUP1 PUSH2 0x140F DUP2 PUSH2 0x3744 JUMP JUMPDEST SWAP2 POP POP PUSH2 0x1358 JUMP JUMPDEST PUSH1 0x40 DUP1 MLOAD PUSH1 0x20 DUP2 ADD SWAP2 DUP3 SWAP1 MSTORE PUSH1 0x0 SWAP1 DUP2 SWAP1 MSTORE PUSH2 0x1435 SWAP2 PUSH1 0xB SWAP2 PUSH2 0x2A44 JUMP JUMPDEST POP PUSH1 0x40 DUP1 MLOAD PUSH1 0x20 DUP2 ADD SWAP2 DUP3 SWAP1 MSTORE PUSH1 0x0 SWAP1 DUP2 SWAP1 MSTORE PUSH2 0xF48 SWAP2 PUSH1 0xC SWAP2 PUSH2 0x2A44 JUMP JUMPDEST PUSH2 0x1460 PUSH1 0x1 PUSH1 0x2 PUSH2 0x3941 JUMP JUMPDEST PUSH1 0x2 DUP2 GT ISZERO PUSH2 0x1471 JUMPI PUSH2 0x1471 PUSH2 0x3356 JUMP JUMPDEST PUSH1 0x2 DUP2 GT ISZERO PUSH2 0x1482 JUMPI PUSH2 0x1482 PUSH2 0x3356 JUMP JUMPDEST PUSH1 0x4 DUP3 ADD SLOAD PUSH1 0xFF AND PUSH1 0x2 DUP2 GT ISZERO PUSH2 0x149B JUMPI PUSH2 0x149B PUSH2 0x3356 JUMP JUMPDEST PUSH1 0x2 DUP2 GT ISZERO PUSH2 0x14AC JUMPI PUSH2 0x14AC PUSH2 0x3356 JUMP JUMPDEST PUSH1 0x2 DUP2 GT ISZERO PUSH2 0x14BD JUMPI PUSH2 0x14BD PUSH2 0x3356 JUMP JUMPDEST SUB PUSH2 0x14D8 JUMPI PUSH1 0x4 DUP2 ADD DUP1 SLOAD PUSH1 0x0 SWAP2 SWAP1 PUSH1 0xFF NOT AND PUSH1 0x1 DUP4 PUSH2 0xFAD JUMP JUMPDEST PUSH1 0x4 DUP2 ADD SLOAD PUSH1 0xFF AND PUSH1 0x2 DUP2 GT ISZERO PUSH2 0x14F1 JUMPI PUSH2 0x14F1 PUSH2 0x3356 JUMP JUMPDEST PUSH2 0x14FC SWAP1 PUSH1 0x1 PUSH2 0x3904 JUMP JUMPDEST PUSH1 0x2 DUP2 GT ISZERO PUSH2 0xF8F JUMPI PUSH2 0xF8F PUSH2 0x3356 JUMP JUMPDEST PUSH1 0xD SLOAD PUSH1 0xB DUP1 SLOAD PUSH1 0x0 SWAP3 PUSH1 0xFF AND SWAP2 SWAP1 PUSH2 0x1525 SWAP1 PUSH2 0x3690 JUMP JUMPDEST SWAP1 POP LT ISZERO PUSH2 0x1575 JUMPI PUSH1 0x40 MLOAD PUSH3 0x461BCD PUSH1 0xE5 SHL DUP2 MSTORE PUSH1 0x20 PUSH1 0x4 DUP3 ADD MSTORE PUSH1 0x17 PUSH1 0x24 DUP3 ADD MSTORE PUSH32 0x496E76616C696420726573706F6E7365206C656E677468000000000000000000 PUSH1 0x44 DUP3 ADD MSTORE PUSH1 0x64 ADD PUSH2 0x59A JUMP JUMPDEST PUSH1 0xD SLOAD PUSH1 0xB DUP1 SLOAD DUP5 SWAP3 PUSH1 0xFF AND SWAP2 SWAP1 PUSH2 0x158C SWAP1 PUSH2 0x3690 JUMP JUMPDEST PUSH2 0x1597 SWAP3 SWAP2 POP PUSH2 0x3941 JUMP JUMPDEST EQ SWAP3 SWAP2 POP POP JUMP JUMPDEST PUSH1 0x0 PUSH1 0xC DUP1 SLOAD PUSH2 0x15AD SWAP1 PUSH2 0x3690 JUMP JUMPDEST SWAP1 POP PUSH1 0xB DUP1 SLOAD PUSH2 0x15BC SWAP1 PUSH2 0x3690 JUMP JUMPDEST SWAP1 POP EQ ISZERO SWAP1 POP SWAP1 JUMP JUMPDEST PUSH1 0x2 DUP5 DUP2 ADD SLOAD PUSH1 0x0 DUP2 DUP2 MSTORE PUSH1 0x20 DUP8 SWAP1 MSTORE PUSH1 0x40 SWAP1 KECCAK256 DUP1 SLOAD PUSH1 0x1 PUSH1 0x1 PUSH1 0xA0 SHL SUB NOT AND PUSH1 0x1 PUSH1 0x1 PUSH1 0xA0 SHL SUB DUP8 AND OR DUP2 SSTORE PUSH1 0x1 DUP2 ADD DUP3 SWAP1 SSTORE SWAP1 SWAP2 PUSH2 0x1607 SWAP2 ADD DUP5 DUP5 PUSH2 0x2AC8 JUMP JUMPDEST POP PUSH1 0x0 DUP2 DUP2 MSTORE PUSH1 0x20 DUP7 SWAP1 MSTORE PUSH1 0x40 SWAP1 DUP2 SWAP1 KECCAK256 PUSH1 0x3 DUP2 ADD DUP1 SLOAD PUSH1 0xFF NOT AND SWAP1 SSTORE DUP1 SLOAD PUSH1 0x1 DUP3 ADD SLOAD SWAP3 MLOAD PUSH32 0x90EA5F9329C731034CD76E56082631801F27CB8E4B8349F2958220EF9A31C9D7 SWAP4 PUSH2 0x166C SWAP4 PUSH1 0x1 PUSH1 0x1 PUSH1 0xA0 SHL SUB SWAP1 SWAP4 AND SWAP3 SWAP1 SWAP2 PUSH1 0x2 SWAP1 SWAP2 ADD SWAP1 PUSH2 0x3958 JUMP JUMPDEST PUSH1 0x40 MLOAD DUP1 SWAP2 SUB SWAP1 LOG1 PUSH1 0x2 DUP6 ADD DUP1 SLOAD SWAP1 PUSH1 0x0 PUSH2 0x1686 DUP4 PUSH2 0x3744 JUMP JUMPDEST SWAP2 SWAP1 POP SSTORE POP POP POP POP POP POP JUMP JUMPDEST DUP2 PUSH1 0x1 PUSH1 0x1 PUSH1 0xA0 SHL SUB AND DUP4 PUSH1 0x1 PUSH1 0x1 PUSH1 0xA0 SHL SUB AND SUB PUSH2 0x1705 JUMPI PUSH1 0x40 MLOAD PUSH3 0x461BCD PUSH1 0xE5 SHL DUP2 MSTORE PUSH1 0x20 PUSH1 0x4 DUP3 ADD MSTORE PUSH1 0x29 PUSH1 0x24 DUP3 ADD MSTORE PUSH32 0x455243313135353A2073657474696E6720617070726F76616C20737461747573 PUSH1 0x44 DUP3 ADD MSTORE PUSH9 0x103337B91039B2B633 PUSH1 0xB9 SHL PUSH1 0x64 DUP3 ADD MSTORE PUSH1 0x84 ADD PUSH2 0x59A JUMP JUMPDEST PUSH1 0x1 PUSH1 0x1 PUSH1 0xA0 SHL SUB DUP4 DUP2 AND PUSH1 0x0 DUP2 DUP2 MSTORE PUSH1 0x1 PUSH1 0x20 SWAP1 DUP2 MSTORE PUSH1 0x40 DUP1 DUP4 KECCAK256 SWAP5 DUP8 AND DUP1 DUP5 MSTORE SWAP5 DUP3 MSTORE SWAP2 DUP3 SWAP1 KECCAK256 DUP1 SLOAD PUSH1 0xFF NOT AND DUP7 ISZERO ISZERO SWAP1 DUP2 OR SWAP1 SWAP2 SSTORE SWAP2 MLOAD SWAP2 DUP3 MSTORE PUSH32 0x17307EAB39AB6107E8899845AD3D59BD9653F200F220920489CA2B5937696C31 SWAP2 ADD PUSH1 0x40 MLOAD DUP1 SWAP2 SUB SWAP1 LOG3 POP POP POP JUMP JUMPDEST PUSH1 0x0 DUP2 DUP2 MSTORE PUSH1 0x20 DUP4 SWAP1 MSTORE PUSH1 0x40 DUP2 KECCAK256 DUP1 SLOAD PUSH1 0x3 DUP3 ADD SLOAD PUSH1 0x2 SWAP1 SWAP3 ADD DUP1 SLOAD PUSH1 0x60 SWAP4 DUP6 SWAP4 PUSH1 0x1 PUSH1 0x1 PUSH1 0xA0 SHL SUB AND SWAP3 SWAP2 PUSH1 0xFF SWAP1 SWAP2 AND SWAP1 DUP3 SWAP1 PUSH2 0x17AF SWAP1 PUSH2 0x3690 JUMP JUMPDEST DUP1 PUSH1 0x1F ADD PUSH1 0x20 DUP1 SWAP2 DIV MUL PUSH1 0x20 ADD PUSH1 0x40 MLOAD SWAP1 DUP2 ADD PUSH1 0x40 MSTORE DUP1 SWAP3 SWAP2 SWAP1 DUP2 DUP2 MSTORE PUSH1 0x20 ADD DUP3 DUP1 SLOAD PUSH2 0x17DB SWAP1 PUSH2 0x3690 JUMP JUMPDEST DUP1 ISZERO PUSH2 0x1828 JUMPI DUP1 PUSH1 0x1F LT PUSH2 0x17FD JUMPI PUSH2 0x100 DUP1 DUP4 SLOAD DIV MUL DUP4 MSTORE SWAP2 PUSH1 0x20 ADD SWAP2 PUSH2 0x1828 JUMP JUMPDEST DUP3 ADD SWAP2 SWAP1 PUSH1 0x0 MSTORE PUSH1 0x20 PUSH1 0x0 KECCAK256 SWAP1 JUMPDEST DUP2 SLOAD DUP2 MSTORE SWAP1 PUSH1 0x1 ADD SWAP1 PUSH1 0x20 ADD DUP1 DUP4 GT PUSH2 0x180B JUMPI DUP3 SWAP1 SUB PUSH1 0x1F AND DUP3 ADD SWAP2 JUMPDEST POP POP POP POP POP SWAP2 POP SWAP3 POP SWAP3 POP SWAP3 POP SWAP3 POP SWAP3 POP SWAP3 JUMP JUMPDEST PUSH1 0x60 PUSH2 0x1846 PUSH2 0x2B3C JUMP JUMPDEST DUP1 MLOAD PUSH2 0x1854 SWAP1 PUSH2 0x100 PUSH2 0x215F JUMP JUMPDEST POP PUSH2 0x1883 DUP2 PUSH1 0x40 MLOAD DUP1 PUSH1 0x40 ADD PUSH1 0x40 MSTORE DUP1 PUSH1 0xC DUP2 MSTORE PUSH1 0x20 ADD PUSH12 0x31B7B232A637B1B0BA34B7B7 PUSH1 0xA1 SHL DUP2 MSTORE POP PUSH2 0x21D6 JUMP JUMPDEST PUSH2 0x18A2 DUP2 DUP5 PUSH1 0x0 ADD MLOAD PUSH1 0x1 DUP2 GT ISZERO PUSH2 0x189D JUMPI PUSH2 0x189D PUSH2 0x3356 JUMP JUMPDEST PUSH2 0x21EF JUMP JUMPDEST PUSH2 0x18CC DUP2 PUSH1 0x40 MLOAD DUP1 PUSH1 0x40 ADD PUSH1 0x40 MSTORE DUP1 PUSH1 0x8 DUP2 MSTORE PUSH1 0x20 ADD PUSH8 0x6C616E6775616765 PUSH1 0xC0 SHL DUP2 MSTORE POP PUSH2 0x21D6 JUMP JUMPDEST PUSH2 0x18E6 DUP2 DUP5 PUSH1 0x40 ADD MLOAD PUSH1 0x0 DUP2 GT ISZERO PUSH2 0x189D JUMPI PUSH2 0x189D PUSH2 0x3356 JUMP JUMPDEST PUSH2 0x190E DUP2 PUSH1 0x40 MLOAD DUP1 PUSH1 0x40 ADD PUSH1 0x40 MSTORE DUP1 PUSH1 0x6 DUP2 MSTORE PUSH1 0x20 ADD PUSH6 0x736F75726365 PUSH1 0xD0 SHL DUP2 MSTORE POP PUSH2 0x21D6 JUMP JUMPDEST PUSH2 0x191C DUP2 DUP5 PUSH1 0x60 ADD MLOAD PUSH2 0x21D6 JUMP JUMPDEST PUSH1 0xA0 DUP4 ADD MLOAD MLOAD ISZERO PUSH2 0x19A9 JUMPI PUSH2 0x194D DUP2 PUSH1 0x40 MLOAD DUP1 PUSH1 0x40 ADD PUSH1 0x40 MSTORE DUP1 PUSH1 0x4 DUP2 MSTORE PUSH1 0x20 ADD PUSH4 0x61726773 PUSH1 0xE0 SHL DUP2 MSTORE POP PUSH2 0x21D6 JUMP JUMPDEST PUSH2 0x1956 DUP2 PUSH2 0x2228 JUMP JUMPDEST PUSH1 0x0 JUMPDEST DUP4 PUSH1 0xA0 ADD MLOAD MLOAD DUP2 LT ISZERO PUSH2 0x199F JUMPI PUSH2 0x198D DUP3 DUP6 PUSH1 0xA0 ADD MLOAD DUP4 DUP2 MLOAD DUP2 LT PUSH2 0x1980 JUMPI PUSH2 0x1980 PUSH2 0x3718 JUMP JUMPDEST PUSH1 0x20 MUL PUSH1 0x20 ADD ADD MLOAD PUSH2 0x21D6 JUMP JUMPDEST DUP1 PUSH2 0x1997 DUP2 PUSH2 0x3744 JUMP JUMPDEST SWAP2 POP POP PUSH2 0x1959 JUMP JUMPDEST POP PUSH2 0x19A9 DUP2 PUSH2 0x224C JUMP JUMPDEST PUSH1 0x80 DUP4 ADD MLOAD MLOAD ISZERO PUSH2 0x1A6C JUMPI PUSH1 0x0 DUP4 PUSH1 0x20 ADD MLOAD PUSH1 0x1 DUP2 GT ISZERO PUSH2 0x19CC JUMPI PUSH2 0x19CC PUSH2 0x3356 JUMP JUMPDEST SUB PUSH2 0x19EA JUMPI PUSH1 0x40 MLOAD PUSH4 0xA80D31F7 PUSH1 0xE0 SHL DUP2 MSTORE PUSH1 0x4 ADD PUSH1 0x40 MLOAD DUP1 SWAP2 SUB SWAP1 REVERT JUMPDEST PUSH2 0x1A1B DUP2 PUSH1 0x40 MLOAD DUP1 PUSH1 0x40 ADD PUSH1 0x40 MSTORE DUP1 PUSH1 0xF DUP2 MSTORE PUSH1 0x20 ADD PUSH15 0x39B2B1B932BA39A637B1B0BA34B7B7 PUSH1 0x89 SHL DUP2 MSTORE POP PUSH2 0x21D6 JUMP JUMPDEST PUSH2 0x1A35 DUP2 DUP5 PUSH1 0x20 ADD MLOAD PUSH1 0x1 DUP2 GT ISZERO PUSH2 0x189D JUMPI PUSH2 0x189D PUSH2 0x3356 JUMP JUMPDEST PUSH2 0x1A5E DUP2 PUSH1 0x40 MLOAD DUP1 PUSH1 0x40 ADD PUSH1 0x40 MSTORE DUP1 PUSH1 0x7 DUP2 MSTORE PUSH1 0x20 ADD PUSH7 0x73656372657473 PUSH1 0xC8 SHL DUP2 MSTORE POP PUSH2 0x21D6 JUMP JUMPDEST PUSH2 0x1A6C DUP2 DUP5 PUSH1 0x80 ADD MLOAD PUSH2 0x226A JUMP JUMPDEST MLOAD MLOAD SWAP3 SWAP2 POP POP JUMP JUMPDEST PUSH1 0x3 DUP2 DUP2 ADD SLOAD PUSH1 0x0 SWAP1 DUP2 MSTORE PUSH1 0x20 DUP4 SWAP1 MSTORE PUSH1 0x40 DUP2 KECCAK256 DUP1 SLOAD SWAP3 DUP2 ADD SLOAD PUSH1 0x2 SWAP1 SWAP2 ADD DUP1 SLOAD SWAP3 SWAP4 PUSH1 0x60 SWAP4 DUP6 SWAP4 PUSH1 0x1 PUSH1 0x1 PUSH1 0xA0 SHL SUB SWAP1 SWAP3 AND SWAP3 SWAP2 PUSH1 0xFF AND SWAP1 DUP3 SWAP1 PUSH2 0x1AB8 SWAP1 PUSH2 0x3690 JUMP JUMPDEST DUP1 PUSH1 0x1F ADD PUSH1 0x20 DUP1 SWAP2 DIV MUL PUSH1 0x20 ADD PUSH1 0x40 MLOAD SWAP1 DUP2 ADD PUSH1 0x40 MSTORE DUP1 SWAP3 SWAP2 SWAP1 DUP2 DUP2 MSTORE PUSH1 0x20 ADD DUP3 DUP1 SLOAD PUSH2 0x1AE4 SWAP1 PUSH2 0x3690 JUMP JUMPDEST DUP1 ISZERO PUSH2 0x1B31 JUMPI DUP1 PUSH1 0x1F LT PUSH2 0x1B06 JUMPI PUSH2 0x100 DUP1 DUP4 SLOAD DIV MUL DUP4 MSTORE SWAP2 PUSH1 0x20 ADD SWAP2 PUSH2 0x1B31 JUMP JUMPDEST DUP3 ADD SWAP2 SWAP1 PUSH1 0x0 MSTORE PUSH1 0x20 PUSH1 0x0 KECCAK256 SWAP1 JUMPDEST DUP2 SLOAD DUP2 MSTORE SWAP1 PUSH1 0x1 ADD SWAP1 PUSH1 0x20 ADD DUP1 DUP4 GT PUSH2 0x1B14 JUMPI DUP3 SWAP1 SUB PUSH1 0x1F AND DUP3 ADD SWAP2 JUMPDEST POP POP POP POP POP SWAP2 POP SWAP3 POP SWAP3 POP SWAP3 POP SWAP2 SWAP4 SWAP1 SWAP3 POP JUMP JUMPDEST PUSH1 0x1 PUSH1 0x1 PUSH1 0xA0 SHL SUB DUP5 AND PUSH2 0x1B6B JUMPI PUSH1 0x40 MLOAD PUSH3 0x461BCD PUSH1 0xE5 SHL DUP2 MSTORE PUSH1 0x4 ADD PUSH2 0x59A SWAP1 PUSH2 0x3875 JUMP JUMPDEST CALLER PUSH1 0x0 PUSH2 0x1B77 DUP6 PUSH2 0x2277 JUMP JUMPDEST SWAP1 POP PUSH1 0x0 PUSH2 0x1B84 DUP6 PUSH2 0x2277 JUMP JUMPDEST SWAP1 POP PUSH1 0x0 DUP7 DUP2 MSTORE PUSH1 0x20 DUP2 DUP2 MSTORE PUSH1 0x40 DUP1 DUP4 KECCAK256 PUSH1 0x1 PUSH1 0x1 PUSH1 0xA0 SHL SUB DUP13 AND DUP5 MSTORE SWAP1 SWAP2 MSTORE SWAP1 KECCAK256 SLOAD DUP6 DUP2 LT ISZERO PUSH2 0x1BC7 JUMPI PUSH1 0x40 MLOAD PUSH3 0x461BCD PUSH1 0xE5 SHL DUP2 MSTORE PUSH1 0x4 ADD PUSH2 0x59A SWAP1 PUSH2 0x38BA JUMP JUMPDEST PUSH1 0x0 DUP8 DUP2 MSTORE PUSH1 0x20 DUP2 DUP2 MSTORE PUSH1 0x40 DUP1 DUP4 KECCAK256 PUSH1 0x1 PUSH1 0x1 PUSH1 0xA0 SHL SUB DUP14 DUP2 AND DUP6 MSTORE SWAP3 MSTORE DUP1 DUP4 KECCAK256 DUP10 DUP6 SUB SWAP1 SSTORE SWAP1 DUP11 AND DUP3 MSTORE DUP2 KECCAK256 DUP1 SLOAD DUP9 SWAP3 SWAP1 PUSH2 0x1C04 SWAP1 DUP5 SWAP1 PUSH2 0x3904 JUMP JUMPDEST SWAP1 SWAP2 SSTORE POP POP PUSH1 0x40 DUP1 MLOAD DUP9 DUP2 MSTORE PUSH1 0x20 DUP2 ADD DUP9 SWAP1 MSTORE PUSH1 0x1 PUSH1 0x1 PUSH1 0xA0 SHL SUB DUP1 DUP12 AND SWAP3 DUP13 DUP3 AND SWAP3 SWAP2 DUP9 AND SWAP2 PUSH32 0xC3D58168C5AE7397731D063D5BBF3D657854427343F4C083240F7AACAA2D0F62 SWAP2 ADD PUSH1 0x40 MLOAD DUP1 SWAP2 SUB SWAP1 LOG4 PUSH2 0x1C64 DUP5 DUP11 DUP11 DUP11 DUP11 DUP11 PUSH2 0x22C2 JUMP JUMPDEST POP POP POP POP POP POP POP POP POP JUMP JUMPDEST CALLER PUSH1 0x1 PUSH1 0x1 PUSH1 0xA0 SHL SUB DUP3 AND SUB PUSH2 0x1CC7 JUMPI PUSH1 0x40 MLOAD PUSH3 0x461BCD PUSH1 0xE5 SHL DUP2 MSTORE PUSH1 0x20 PUSH1 0x4 DUP3 ADD MSTORE PUSH1 0x17 PUSH1 0x24 DUP3 ADD MSTORE PUSH32 0x43616E6E6F74207472616E7366657220746F2073656C66000000000000000000 PUSH1 0x44 DUP3 ADD MSTORE PUSH1 0x64 ADD PUSH2 0x59A JUMP JUMPDEST PUSH1 0x8 DUP1 SLOAD PUSH1 0x1 PUSH1 0x1 PUSH1 0xA0 SHL SUB NOT AND PUSH1 0x1 PUSH1 0x1 PUSH1 0xA0 SHL SUB DUP4 DUP2 AND SWAP2 DUP3 OR SWAP1 SWAP3 SSTORE PUSH1 0x7 SLOAD PUSH1 0x40 MLOAD SWAP2 SWAP3 AND SWAP1 PUSH32 0xED8889F560326EB138920D842192F0EB3DD22B4F139C87A2C57538E05BAE1278 SWAP1 PUSH1 0x0 SWAP1 LOG3 POP JUMP JUMPDEST PUSH1 0x1 PUSH1 0x1 PUSH1 0xA0 SHL SUB DUP5 AND EXTCODESIZE ISZERO PUSH2 0x1246 JUMPI PUSH1 0x40 MLOAD PUSH4 0xBC197C81 PUSH1 0xE0 SHL DUP2 MSTORE PUSH1 0x1 PUSH1 0x1 PUSH1 0xA0 SHL SUB DUP6 AND SWAP1 PUSH4 0xBC197C81 SWAP1 PUSH2 0x1D5D SWAP1 DUP10 SWAP1 DUP10 SWAP1 DUP9 SWAP1 DUP9 SWAP1 DUP9 SWAP1 PUSH1 0x4 ADD PUSH2 0x3A19 JUMP JUMPDEST PUSH1 0x20 PUSH1 0x40 MLOAD DUP1 DUP4 SUB DUP2 PUSH1 0x0 DUP8 GAS CALL SWAP3 POP POP POP DUP1 ISZERO PUSH2 0x1D98 JUMPI POP PUSH1 0x40 DUP1 MLOAD PUSH1 0x1F RETURNDATASIZE SWAP1 DUP2 ADD PUSH1 0x1F NOT AND DUP3 ADD SWAP1 SWAP3 MSTORE PUSH2 0x1D95 SWAP2 DUP2 ADD SWAP1 PUSH2 0x3A77 JUMP JUMPDEST PUSH1 0x1 JUMPDEST PUSH2 0x1E44 JUMPI PUSH2 0x1DA4 PUSH2 0x3A94 JUMP JUMPDEST DUP1 PUSH4 0x8C379A0 SUB PUSH2 0x1DDD JUMPI POP PUSH2 0x1DB8 PUSH2 0x3AB0 JUMP JUMPDEST DUP1 PUSH2 0x1DC3 JUMPI POP PUSH2 0x1DDF JUMP JUMPDEST DUP1 PUSH1 0x40 MLOAD PUSH3 0x461BCD PUSH1 0xE5 SHL DUP2 MSTORE PUSH1 0x4 ADD PUSH2 0x59A SWAP2 SWAP1 PUSH2 0x2F0D JUMP JUMPDEST POP JUMPDEST PUSH1 0x40 MLOAD PUSH3 0x461BCD PUSH1 0xE5 SHL DUP2 MSTORE PUSH1 0x20 PUSH1 0x4 DUP3 ADD MSTORE PUSH1 0x34 PUSH1 0x24 DUP3 ADD MSTORE PUSH32 0x455243313135353A207472616E7366657220746F206E6F6E2D45524331313535 PUSH1 0x44 DUP3 ADD MSTORE PUSH20 0x2932B1B2B4BB32B91034B6B83632B6B2B73A32B9 PUSH1 0x61 SHL PUSH1 0x64 DUP3 ADD MSTORE PUSH1 0x84 ADD PUSH2 0x59A JUMP JUMPDEST PUSH1 0x1 PUSH1 0x1 PUSH1 0xE0 SHL SUB NOT DUP2 AND PUSH4 0xBC197C81 PUSH1 0xE0 SHL EQ PUSH2 0x1E74 JUMPI PUSH1 0x40 MLOAD PUSH3 0x461BCD PUSH1 0xE5 SHL DUP2 MSTORE PUSH1 0x4 ADD PUSH2 0x59A SWAP1 PUSH2 0x3B39 JUMP JUMPDEST POP POP POP POP POP POP POP JUMP JUMPDEST PUSH2 0x1E8B PUSH1 0x1 DUP3 ADD PUSH1 0x0 PUSH2 0x2B71 JUMP JUMPDEST PUSH1 0x40 DUP1 MLOAD PUSH1 0x0 DUP1 DUP3 MSTORE PUSH1 0x20 DUP3 ADD SWAP1 SWAP3 MSTORE SWAP1 PUSH2 0x1EB6 JUMP JUMPDEST PUSH1 0x60 DUP2 MSTORE PUSH1 0x20 ADD SWAP1 PUSH1 0x1 SWAP1 SUB SWAP1 DUP2 PUSH2 0x1EA1 JUMPI SWAP1 POP JUMPDEST POP DUP1 MLOAD PUSH2 0x1ECD SWAP2 PUSH1 0x1 DUP5 ADD SWAP2 PUSH1 0x20 SWAP1 SWAP2 ADD SWAP1 PUSH2 0x2B8F JUMP JUMPDEST POP PUSH1 0x3 DUP2 ADD SLOAD PUSH1 0x0 SWAP1 DUP2 MSTORE PUSH1 0x20 DUP3 DUP2 MSTORE PUSH1 0x40 DUP3 KECCAK256 PUSH1 0x1 DUP1 DUP6 ADD DUP1 SLOAD SWAP2 DUP3 ADD DUP2 SSTORE DUP5 MSTORE SWAP2 SWAP1 SWAP3 KECCAK256 PUSH1 0x2 SWAP1 SWAP3 ADD DUP1 SLOAD SWAP3 SWAP1 SWAP2 ADD SWAP2 PUSH2 0x1F08 SWAP1 PUSH2 0x3690 JUMP JUMPDEST PUSH2 0xD6D SWAP3 SWAP2 SWAP1 PUSH2 0x2BE8 JUMP JUMPDEST PUSH2 0x1F4D PUSH1 0x40 DUP1 MLOAD PUSH1 0xC0 DUP2 ADD SWAP1 SWAP2 MSTORE DUP1 PUSH1 0x0 DUP2 MSTORE PUSH1 0x20 ADD PUSH1 0x0 DUP2 MSTORE PUSH1 0x20 ADD PUSH1 0x0 DUP2 MSTORE PUSH1 0x20 ADD PUSH1 0x60 DUP2 MSTORE PUSH1 0x20 ADD PUSH1 0x60 DUP2 MSTORE PUSH1 0x20 ADD PUSH1 0x60 DUP2 MSTORE POP SWAP1 JUMP JUMPDEST PUSH2 0x1FEF PUSH1 0x0 DUP1 PUSH1 0x9 DUP1 SLOAD PUSH2 0x1F60 SWAP1 PUSH2 0x3690 JUMP JUMPDEST DUP1 PUSH1 0x1F ADD PUSH1 0x20 DUP1 SWAP2 DIV MUL PUSH1 0x20 ADD PUSH1 0x40 MLOAD SWAP1 DUP2 ADD PUSH1 0x40 MSTORE DUP1 SWAP3 SWAP2 SWAP1 DUP2 DUP2 MSTORE PUSH1 0x20 ADD DUP3 DUP1 SLOAD PUSH2 0x1F8C SWAP1 PUSH2 0x3690 JUMP JUMPDEST DUP1 ISZERO PUSH2 0x1FD9 JUMPI DUP1 PUSH1 0x1F LT PUSH2 0x1FAE JUMPI PUSH2 0x100 DUP1 DUP4 SLOAD DIV MUL DUP4 MSTORE SWAP2 PUSH1 0x20 ADD SWAP2 PUSH2 0x1FD9 JUMP JUMPDEST DUP3 ADD SWAP2 SWAP1 PUSH1 0x0 MSTORE PUSH1 0x20 PUSH1 0x0 KECCAK256 SWAP1 JUMPDEST DUP2 SLOAD DUP2 MSTORE SWAP1 PUSH1 0x1 ADD SWAP1 PUSH1 0x20 ADD DUP1 DUP4 GT PUSH2 0x1FBC JUMPI DUP3 SWAP1 SUB PUSH1 0x1F AND DUP3 ADD SWAP2 JUMPDEST POP POP POP POP POP DUP5 PUSH2 0x237D SWAP1 SWAP4 SWAP3 SWAP2 SWAP1 PUSH4 0xFFFFFFFF AND JUMP JUMPDEST DUP3 MLOAD ISZERO PUSH2 0x2000 JUMPI PUSH2 0x2000 DUP2 DUP5 PUSH2 0x23FB JUMP JUMPDEST DUP2 MLOAD ISZERO PUSH2 0x2011 JUMPI PUSH2 0x2011 DUP2 DUP4 PUSH2 0x242C JUMP JUMPDEST PUSH1 0xD SLOAD PUSH1 0x0 SWAP1 PUSH2 0x203E SWAP1 DUP4 SWAP1 PUSH2 0x100 DUP2 DIV PUSH1 0x1 PUSH1 0x1 PUSH1 0x40 SHL SUB AND SWAP1 PUSH1 0x1 PUSH1 0x48 SHL SWAP1 DIV PUSH4 0xFFFFFFFF AND PUSH2 0x2456 JUMP JUMPDEST PUSH1 0xA SSTORE POP POP POP POP JUMP JUMPDEST PUSH1 0x0 PUSH2 0x2052 PUSH1 0x4 SLOAD SWAP1 JUMP JUMPDEST SWAP1 POP PUSH2 0x206F DUP5 DUP3 DUP5 PUSH1 0x40 MLOAD DUP1 PUSH1 0x20 ADD PUSH1 0x40 MSTORE DUP1 PUSH1 0x0 DUP2 MSTORE POP PUSH2 0x25AE JUMP JUMPDEST PUSH2 0x2079 DUP2 DUP5 PUSH2 0x26B9 JUMP JUMPDEST PUSH2 0x2087 PUSH1 0x4 DUP1 SLOAD PUSH1 0x1 ADD SWAP1 SSTORE JUMP JUMPDEST PUSH32 0x1E8F3E2F60D7BCCCF9300C1696A0C0661E1DA202A169DFF4F00A494FB59BE13D DUP5 DUP3 DUP6 PUSH1 0x40 MLOAD PUSH2 0x20BA SWAP4 SWAP3 SWAP2 SWAP1 PUSH2 0x3B81 JUMP JUMPDEST PUSH1 0x40 MLOAD DUP1 SWAP2 SUB SWAP1 LOG1 POP POP POP POP JUMP JUMPDEST DUP1 ISZERO PUSH2 0x20DE JUMPI PUSH2 0x20D9 DUP3 PUSH1 0x2 PUSH2 0x26D8 JUMP JUMPDEST PUSH2 0x20E9 JUMP JUMPDEST PUSH2 0x20E9 DUP3 PUSH1 0x3 PUSH2 0x26D8 JUMP JUMPDEST PUSH1 0x3 DUP3 ADD DUP1 SLOAD SWAP1 PUSH1 0x0 PUSH2 0x20FB DUP4 PUSH2 0x3744 JUMP JUMPDEST SWAP2 SWAP1 POP SSTORE POP PUSH1 0x0 PUSH1 0x60 PUSH1 0x0 PUSH2 0x210F DUP6 PUSH2 0x1A74 JUMP JUMPDEST PUSH1 0x3 DUP9 ADD SLOAD PUSH1 0x40 MLOAD SWAP4 SWAP7 POP SWAP2 SWAP5 POP SWAP3 POP PUSH32 0xA3713DD440CD98FC452B6E97A96264B833475DEC4977120D4CA6768772EDDCA SWAP2 PUSH2 0x2150 SWAP2 DUP7 SWAP2 DUP7 SWAP1 DUP7 SWAP1 PUSH2 0x3BA8 JUMP JUMPDEST PUSH1 0x40 MLOAD DUP1 SWAP2 SUB SWAP1 LOG1 POP POP POP POP POP JUMP JUMPDEST PUSH1 0x40 DUP1 MLOAD DUP1 DUP3 ADD SWAP1 SWAP2 MSTORE PUSH1 0x60 DUP2 MSTORE PUSH1 0x0 PUSH1 0x20 DUP3 ADD MSTORE PUSH2 0x217F PUSH1 0x20 DUP4 PUSH2 0x3BDE JUMP JUMPDEST ISZERO PUSH2 0x21A7 JUMPI PUSH2 0x218F PUSH1 0x20 DUP4 PUSH2 0x3BDE JUMP JUMPDEST PUSH2 0x219A SWAP1 PUSH1 0x20 PUSH2 0x3941 JUMP JUMPDEST PUSH2 0x21A4 SWAP1 DUP4 PUSH2 0x3904 JUMP JUMPDEST SWAP2 POP JUMPDEST PUSH1 0x20 DUP1 DUP5 ADD DUP4 SWAP1 MSTORE PUSH1 0x40 MLOAD DUP1 DUP6 MSTORE PUSH1 0x0 DUP2 MSTORE SWAP1 DUP2 DUP5 ADD ADD DUP2 DUP2 LT ISZERO PUSH2 0x21CB JUMPI PUSH1 0x0 DUP1 REVERT JUMPDEST PUSH1 0x40 MSTORE POP SWAP2 SWAP3 SWAP2 POP POP JUMP JUMPDEST PUSH2 0x21E3 DUP3 PUSH1 0x3 DUP4 MLOAD PUSH2 0x2716 JUMP JUMPDEST DUP2 MLOAD PUSH2 0x8F9 SWAP1 DUP3 PUSH2 0x282F JUMP JUMPDEST DUP2 MLOAD PUSH2 0x21FC SWAP1 PUSH1 0xC2 PUSH2 0x2857 JUMP JUMPDEST POP PUSH2 0xD6D DUP3 DUP3 PUSH1 0x40 MLOAD PUSH1 0x20 ADD PUSH2 0x2214 SWAP2 DUP2 MSTORE PUSH1 0x20 ADD SWAP1 JUMP JUMPDEST PUSH1 0x40 MLOAD PUSH1 0x20 DUP2 DUP4 SUB SUB DUP2 MSTORE SWAP1 PUSH1 0x40 MSTORE PUSH2 0x226A JUMP JUMPDEST PUSH2 0x2233 DUP2 PUSH1 0x4 PUSH2 0x28C0 JUMP JUMPDEST PUSH1 0x1 DUP2 PUSH1 0x20 ADD DUP2 DUP2 MLOAD PUSH2 0x2246 SWAP2 SWAP1 PUSH2 0x3904 JUMP JUMPDEST SWAP1 MSTORE POP POP JUMP JUMPDEST PUSH2 0x2257 DUP2 PUSH1 0x7 PUSH2 0x28C0 JUMP JUMPDEST PUSH1 0x1 DUP2 PUSH1 0x20 ADD DUP2 DUP2 MLOAD PUSH2 0x2246 SWAP2 SWAP1 PUSH2 0x3941 JUMP JUMPDEST PUSH2 0x21E3 DUP3 PUSH1 0x2 DUP4 MLOAD PUSH2 0x2716 JUMP JUMPDEST PUSH1 0x40 DUP1 MLOAD PUSH1 0x1 DUP1 DUP3 MSTORE DUP2 DUP4 ADD SWAP1 SWAP3 MSTORE PUSH1 0x60 SWAP2 PUSH1 0x0 SWAP2 SWAP1 PUSH1 0x20 DUP1 DUP4 ADD SWAP1 DUP1 CALLDATASIZE DUP4 CALLDATACOPY ADD SWAP1 POP POP SWAP1 POP DUP3 DUP2 PUSH1 0x0 DUP2 MLOAD DUP2 LT PUSH2 0x22B1 JUMPI PUSH2 0x22B1 PUSH2 0x3718 JUMP JUMPDEST PUSH1 0x20 SWAP1 DUP2 MUL SWAP2 SWAP1 SWAP2 ADD ADD MSTORE SWAP3 SWAP2 POP POP JUMP JUMPDEST PUSH1 0x1 PUSH1 0x1 PUSH1 0xA0 SHL SUB DUP5 AND EXTCODESIZE ISZERO PUSH2 0x1246 JUMPI PUSH1 0x40 MLOAD PUSH4 0xF23A6E61 PUSH1 0xE0 SHL DUP2 MSTORE PUSH1 0x1 PUSH1 0x1 PUSH1 0xA0 SHL SUB DUP6 AND SWAP1 PUSH4 0xF23A6E61 SWAP1 PUSH2 0x2306 SWAP1 DUP10 SWAP1 DUP10 SWAP1 DUP9 SWAP1 DUP9 SWAP1 DUP9 SWAP1 PUSH1 0x4 ADD PUSH2 0x3C00 JUMP JUMPDEST PUSH1 0x20 PUSH1 0x40 MLOAD DUP1 DUP4 SUB DUP2 PUSH1 0x0 DUP8 GAS CALL SWAP3 POP POP POP DUP1 ISZERO PUSH2 0x2341 JUMPI POP PUSH1 0x40 DUP1 MLOAD PUSH1 0x1F RETURNDATASIZE SWAP1 DUP2 ADD PUSH1 0x1F NOT AND DUP3 ADD SWAP1 SWAP3 MSTORE PUSH2 0x233E SWAP2 DUP2 ADD SWAP1 PUSH2 0x3A77 JUMP JUMPDEST PUSH1 0x1 JUMPDEST PUSH2 0x234D JUMPI PUSH2 0x1DA4 PUSH2 0x3A94 JUMP JUMPDEST PUSH1 0x1 PUSH1 0x1 PUSH1 0xE0 SHL SUB NOT DUP2 AND PUSH4 0xF23A6E61 PUSH1 0xE0 SHL EQ PUSH2 0x1E74 JUMPI PUSH1 0x40 MLOAD PUSH3 0x461BCD PUSH1 0xE5 SHL DUP2 MSTORE PUSH1 0x4 ADD PUSH2 0x59A SWAP1 PUSH2 0x3B39 JUMP JUMPDEST DUP1 MLOAD PUSH1 0x0 SUB PUSH2 0x239F JUMPI PUSH1 0x40 MLOAD PUSH4 0x22CE3EDD PUSH1 0xE0 SHL DUP2 MSTORE PUSH1 0x4 ADD PUSH1 0x40 MLOAD DUP1 SWAP2 SUB SWAP1 REVERT JUMPDEST DUP4 DUP4 PUSH1 0x1 DUP2 GT ISZERO PUSH2 0x23B2 JUMPI PUSH2 0x23B2 PUSH2 0x3356 JUMP JUMPDEST SWAP1 DUP2 PUSH1 0x1 DUP2 GT ISZERO PUSH2 0x23C5 JUMPI PUSH2 0x23C5 PUSH2 0x3356 JUMP JUMPDEST SWAP1 MSTORE POP PUSH1 0x40 DUP5 ADD DUP3 DUP1 ISZERO PUSH2 0x23DB JUMPI PUSH2 0x23DB PUSH2 0x3356 JUMP JUMPDEST SWAP1 DUP2 DUP1 ISZERO PUSH2 0x23EB JUMPI PUSH2 0x23EB PUSH2 0x3356 JUMP JUMPDEST SWAP1 MSTORE POP PUSH1 0x60 SWAP1 SWAP4 ADD SWAP3 SWAP1 SWAP3 MSTORE POP POP JUMP JUMPDEST DUP1 MLOAD PUSH1 0x0 SUB PUSH2 0x241D JUMPI PUSH1 0x40 MLOAD PUSH4 0xE889636F PUSH1 0xE0 SHL DUP2 MSTORE PUSH1 0x4 ADD PUSH1 0x40 MLOAD DUP1 SWAP2 SUB SWAP1 REVERT JUMPDEST PUSH1 0x1 PUSH1 0x20 DUP4 ADD MSTORE PUSH1 0x80 SWAP1 SWAP2 ADD MSTORE JUMP JUMPDEST DUP1 MLOAD PUSH1 0x0 SUB PUSH2 0x244E JUMPI PUSH1 0x40 MLOAD PUSH4 0xFE936CB7 PUSH1 0xE0 SHL DUP2 MSTORE PUSH1 0x4 ADD PUSH1 0x40 MLOAD DUP1 SWAP2 SUB SWAP1 REVERT JUMPDEST PUSH1 0xA0 SWAP1 SWAP2 ADD MSTORE JUMP JUMPDEST PUSH1 0x5 SLOAD PUSH1 0x0 SWAP1 DUP2 SWAP1 PUSH1 0x1 PUSH1 0x1 PUSH1 0xA0 SHL SUB AND PUSH4 0x28242B04 DUP6 PUSH2 0x2476 DUP9 PUSH2 0x183C JUMP JUMPDEST DUP7 PUSH1 0x40 MLOAD DUP5 PUSH4 0xFFFFFFFF AND PUSH1 0xE0 SHL DUP2 MSTORE PUSH1 0x4 ADD PUSH2 0x2495 SWAP4 SWAP3 SWAP2 SWAP1 PUSH2 0x3C3A JUMP JUMPDEST PUSH1 0x20 PUSH1 0x40 MLOAD DUP1 DUP4 SUB DUP2 PUSH1 0x0 DUP8 GAS CALL ISZERO DUP1 ISZERO PUSH2 0x24B4 JUMPI RETURNDATASIZE PUSH1 0x0 DUP1 RETURNDATACOPY RETURNDATASIZE PUSH1 0x0 REVERT JUMPDEST POP POP POP POP PUSH1 0x40 MLOAD RETURNDATASIZE PUSH1 0x1F NOT PUSH1 0x1F DUP3 ADD AND DUP3 ADD DUP1 PUSH1 0x40 MSTORE POP DUP2 ADD SWAP1 PUSH2 0x24D8 SWAP2 SWAP1 PUSH2 0x3C72 JUMP JUMPDEST SWAP1 POP PUSH1 0x5 PUSH1 0x0 SWAP1 SLOAD SWAP1 PUSH2 0x100 EXP SWAP1 DIV PUSH1 0x1 PUSH1 0x1 PUSH1 0xA0 SHL SUB AND PUSH1 0x1 PUSH1 0x1 PUSH1 0xA0 SHL SUB AND PUSH4 0x5AB1BD53 PUSH1 0x40 MLOAD DUP2 PUSH4 0xFFFFFFFF AND PUSH1 0xE0 SHL DUP2 MSTORE PUSH1 0x4 ADD PUSH1 0x20 PUSH1 0x40 MLOAD DUP1 DUP4 SUB DUP2 DUP7 GAS STATICCALL ISZERO DUP1 ISZERO PUSH2 0x252D JUMPI RETURNDATASIZE PUSH1 0x0 DUP1 RETURNDATACOPY RETURNDATASIZE PUSH1 0x0 REVERT JUMPDEST POP POP POP POP PUSH1 0x40 MLOAD RETURNDATASIZE PUSH1 0x1F NOT PUSH1 0x1F DUP3 ADD AND DUP3 ADD DUP1 PUSH1 0x40 MSTORE POP DUP2 ADD SWAP1 PUSH2 0x2551 SWAP2 SWAP1 PUSH2 0x3C8B JUMP JUMPDEST PUSH1 0x0 DUP3 DUP2 MSTORE PUSH1 0x6 PUSH1 0x20 MSTORE PUSH1 0x40 DUP1 DUP3 KECCAK256 DUP1 SLOAD PUSH1 0x1 PUSH1 0x1 PUSH1 0xA0 SHL SUB NOT AND PUSH1 0x1 PUSH1 0x1 PUSH1 0xA0 SHL SUB SWAP5 SWAP1 SWAP5 AND SWAP4 SWAP1 SWAP4 OR SWAP1 SWAP3 SSTORE SWAP1 MLOAD DUP3 SWAP2 PUSH32 0x1131472297A800FEE664D1D89CFA8F7676FF07189ECC53F80BBB5F4969099DB8 SWAP2 LOG2 SWAP5 SWAP4 POP POP POP POP JUMP JUMPDEST PUSH1 0x1 PUSH1 0x1 PUSH1 0xA0 SHL SUB DUP5 AND PUSH2 0x260E JUMPI PUSH1 0x40 MLOAD PUSH3 0x461BCD PUSH1 0xE5 SHL DUP2 MSTORE PUSH1 0x20 PUSH1 0x4 DUP3 ADD MSTORE PUSH1 0x21 PUSH1 0x24 DUP3 ADD MSTORE PUSH32 0x455243313135353A206D696E7420746F20746865207A65726F20616464726573 PUSH1 0x44 DUP3 ADD MSTORE PUSH1 0x73 PUSH1 0xF8 SHL PUSH1 0x64 DUP3 ADD MSTORE PUSH1 0x84 ADD PUSH2 0x59A JUMP JUMPDEST CALLER PUSH1 0x0 PUSH2 0x261A DUP6 PUSH2 0x2277 JUMP JUMPDEST SWAP1 POP PUSH1 0x0 PUSH2 0x2627 DUP6 PUSH2 0x2277 JUMP JUMPDEST SWAP1 POP PUSH1 0x0 DUP7 DUP2 MSTORE PUSH1 0x20 DUP2 DUP2 MSTORE PUSH1 0x40 DUP1 DUP4 KECCAK256 PUSH1 0x1 PUSH1 0x1 PUSH1 0xA0 SHL SUB DUP12 AND DUP5 MSTORE SWAP1 SWAP2 MSTORE DUP2 KECCAK256 DUP1 SLOAD DUP8 SWAP3 SWAP1 PUSH2 0x2659 SWAP1 DUP5 SWAP1 PUSH2 0x3904 JUMP JUMPDEST SWAP1 SWAP2 SSTORE POP POP PUSH1 0x40 DUP1 MLOAD DUP8 DUP2 MSTORE PUSH1 0x20 DUP2 ADD DUP8 SWAP1 MSTORE PUSH1 0x1 PUSH1 0x1 PUSH1 0xA0 SHL SUB DUP1 DUP11 AND SWAP3 PUSH1 0x0 SWAP3 SWAP2 DUP8 AND SWAP2 PUSH32 0xC3D58168C5AE7397731D063D5BBF3D657854427343F4C083240F7AACAA2D0F62 SWAP2 ADD PUSH1 0x40 MLOAD DUP1 SWAP2 SUB SWAP1 LOG4 PUSH2 0x1E74 DUP4 PUSH1 0x0 DUP10 DUP10 DUP10 DUP10 PUSH2 0x22C2 JUMP JUMPDEST PUSH1 0x0 DUP3 DUP2 MSTORE PUSH1 0x3 PUSH1 0x20 SWAP1 DUP2 MSTORE PUSH1 0x40 SWAP1 SWAP2 KECCAK256 DUP3 MLOAD PUSH2 0x8F9 SWAP3 DUP5 ADD SWAP1 PUSH2 0x2A44 JUMP JUMPDEST PUSH1 0x3 DUP1 DUP4 ADD SLOAD PUSH1 0x0 SWAP1 DUP2 MSTORE PUSH1 0x20 DUP5 SWAP1 MSTORE PUSH1 0x40 SWAP1 KECCAK256 DUP2 ADD DUP1 SLOAD DUP4 SWAP3 PUSH1 0xFF NOT SWAP1 SWAP2 AND SWAP1 PUSH1 0x1 SWAP1 DUP5 SWAP1 DUP2 GT ISZERO PUSH2 0x270D JUMPI PUSH2 0x270D PUSH2 0x3356 JUMP JUMPDEST MUL OR SWAP1 SSTORE POP POP POP JUMP JUMPDEST PUSH1 0x17 DUP2 PUSH1 0x1 PUSH1 0x1 PUSH1 0x40 SHL SUB AND GT PUSH2 0x273C JUMPI DUP3 MLOAD PUSH2 0x6A3 SWAP1 PUSH1 0xE0 PUSH1 0x5 DUP6 SWAP1 SHL AND DUP4 OR PUSH2 0x2857 JUMP JUMPDEST PUSH1 0xFF DUP2 PUSH1 0x1 PUSH1 0x1 PUSH1 0x40 SHL SUB AND GT PUSH2 0x277C JUMPI DUP3 MLOAD PUSH2 0x2764 SWAP1 PUSH1 0x18 PUSH2 0x1FE0 PUSH1 0x5 DUP7 SWAP1 SHL AND OR PUSH2 0x2857 JUMP JUMPDEST POP DUP3 MLOAD PUSH2 0x6A3 SWAP1 PUSH1 0x1 PUSH1 0x1 PUSH1 0x40 SHL SUB DUP4 AND PUSH1 0x1 PUSH2 0x28D7 JUMP JUMPDEST PUSH2 0xFFFF DUP2 PUSH1 0x1 PUSH1 0x1 PUSH1 0x40 SHL SUB AND GT PUSH2 0x27BD JUMPI DUP3 MLOAD PUSH2 0x27A5 SWAP1 PUSH1 0x19 PUSH2 0x1FE0 PUSH1 0x5 DUP7 SWAP1 SHL AND OR PUSH2 0x2857 JUMP JUMPDEST POP DUP3 MLOAD PUSH2 0x6A3 SWAP1 PUSH1 0x1 PUSH1 0x1 PUSH1 0x40 SHL SUB DUP4 AND PUSH1 0x2 PUSH2 0x28D7 JUMP JUMPDEST PUSH4 0xFFFFFFFF DUP2 PUSH1 0x1 PUSH1 0x1 PUSH1 0x40 SHL SUB AND GT PUSH2 0x2800 JUMPI DUP3 MLOAD PUSH2 0x27E8 SWAP1 PUSH1 0x1A PUSH2 0x1FE0 PUSH1 0x5 DUP7 SWAP1 SHL AND OR PUSH2 0x2857 JUMP JUMPDEST POP DUP3 MLOAD PUSH2 0x6A3 SWAP1 PUSH1 0x1 PUSH1 0x1 PUSH1 0x40 SHL SUB DUP4 AND PUSH1 0x4 PUSH2 0x28D7 JUMP JUMPDEST DUP3 MLOAD PUSH2 0x2817 SWAP1 PUSH1 0x1B PUSH2 0x1FE0 PUSH1 0x5 DUP7 SWAP1 SHL AND OR PUSH2 0x2857 JUMP JUMPDEST POP DUP3 MLOAD PUSH2 0x6A3 SWAP1 PUSH1 0x1 PUSH1 0x1 PUSH1 0x40 SHL SUB DUP4 AND PUSH1 0x8 PUSH2 0x28D7 JUMP JUMPDEST PUSH1 0x40 DUP1 MLOAD DUP1 DUP3 ADD SWAP1 SWAP2 MSTORE PUSH1 0x60 DUP2 MSTORE PUSH1 0x0 PUSH1 0x20 DUP3 ADD MSTORE PUSH2 0x2850 DUP4 DUP4 DUP5 MLOAD PUSH2 0x295C JUMP JUMPDEST SWAP4 SWAP3 POP POP POP JUMP JUMPDEST PUSH1 0x40 DUP1 MLOAD DUP1 DUP3 ADD SWAP1 SWAP2 MSTORE PUSH1 0x60 DUP2 MSTORE PUSH1 0x0 PUSH1 0x20 DUP3 ADD MSTORE DUP3 MLOAD MLOAD PUSH1 0x0 PUSH2 0x287C DUP3 PUSH1 0x1 PUSH2 0x3904 JUMP JUMPDEST SWAP1 POP DUP5 PUSH1 0x20 ADD MLOAD DUP3 LT PUSH2 0x289D JUMPI PUSH2 0x289D DUP6 PUSH2 0x2898 DUP4 PUSH1 0x2 PUSH2 0x3CA8 JUMP JUMPDEST PUSH2 0x2A2D JUMP JUMPDEST DUP5 MLOAD PUSH1 0x20 DUP4 DUP3 ADD ADD DUP6 DUP2 MSTORE8 POP DUP1 MLOAD DUP3 GT ISZERO PUSH2 0x28B6 JUMPI DUP2 DUP2 MSTORE JUMPDEST POP SWAP4 SWAP5 SWAP4 POP POP POP POP JUMP JUMPDEST DUP2 MLOAD PUSH2 0x8F9 SWAP1 PUSH1 0x1F PUSH2 0x1FE0 PUSH1 0x5 DUP6 SWAP1 SHL AND OR PUSH2 0x2857 JUMP JUMPDEST PUSH1 0x40 DUP1 MLOAD DUP1 DUP3 ADD SWAP1 SWAP2 MSTORE PUSH1 0x60 DUP2 MSTORE PUSH1 0x0 PUSH1 0x20 DUP3 ADD MSTORE DUP4 MLOAD MLOAD PUSH1 0x0 PUSH2 0x28FB DUP3 DUP6 PUSH2 0x3904 JUMP JUMPDEST SWAP1 POP DUP6 PUSH1 0x20 ADD MLOAD DUP2 GT ISZERO PUSH2 0x2918 JUMPI PUSH2 0x2918 DUP7 PUSH2 0x2898 DUP4 PUSH1 0x2 PUSH2 0x3CA8 JUMP JUMPDEST PUSH1 0x0 PUSH1 0x1 PUSH2 0x2928 DUP7 PUSH2 0x100 PUSH2 0x3DAB JUMP JUMPDEST PUSH2 0x2932 SWAP2 SWAP1 PUSH2 0x3941 JUMP JUMPDEST SWAP1 POP DUP7 MLOAD DUP3 DUP2 ADD DUP8 DUP4 NOT DUP3 MLOAD AND OR DUP2 MSTORE POP DUP1 MLOAD DUP4 GT ISZERO PUSH2 0x2950 JUMPI DUP3 DUP2 MSTORE JUMPDEST POP SWAP6 SWAP7 SWAP6 POP POP POP POP POP POP JUMP JUMPDEST PUSH1 0x40 DUP1 MLOAD DUP1 DUP3 ADD SWAP1 SWAP2 MSTORE PUSH1 0x60 DUP2 MSTORE PUSH1 0x0 PUSH1 0x20 DUP3 ADD MSTORE DUP3 MLOAD DUP3 GT ISZERO PUSH2 0x297F JUMPI PUSH1 0x0 DUP1 REVERT JUMPDEST DUP4 MLOAD MLOAD PUSH1 0x0 PUSH2 0x298E DUP5 DUP4 PUSH2 0x3904 JUMP JUMPDEST SWAP1 POP DUP6 PUSH1 0x20 ADD MLOAD DUP2 GT ISZERO PUSH2 0x29AB JUMPI PUSH2 0x29AB DUP7 PUSH2 0x2898 DUP4 PUSH1 0x2 PUSH2 0x3CA8 JUMP JUMPDEST DUP6 MLOAD DUP1 MLOAD DUP4 DUP3 ADD PUSH1 0x20 ADD SWAP2 PUSH1 0x0 SWAP2 DUP1 DUP6 GT ISZERO PUSH2 0x29C5 JUMPI DUP5 DUP3 MSTORE JUMPDEST POP POP POP PUSH1 0x20 DUP7 ADD JUMPDEST PUSH1 0x20 DUP7 LT PUSH2 0x2A05 JUMPI DUP1 MLOAD DUP3 MSTORE PUSH2 0x29E4 PUSH1 0x20 DUP4 PUSH2 0x3904 JUMP JUMPDEST SWAP2 POP PUSH2 0x29F1 PUSH1 0x20 DUP3 PUSH2 0x3904 JUMP JUMPDEST SWAP1 POP PUSH2 0x29FE PUSH1 0x20 DUP8 PUSH2 0x3941 JUMP JUMPDEST SWAP6 POP PUSH2 0x29CD JUMP JUMPDEST MLOAD DUP2 MLOAD PUSH1 0x0 NOT PUSH1 0x20 DUP9 SWAP1 SUB PUSH2 0x100 EXP ADD SWAP1 DUP2 AND SWAP1 NOT SWAP2 SWAP1 SWAP2 AND OR SWAP1 MSTORE POP DUP5 SWAP2 POP POP SWAP4 SWAP3 POP POP POP JUMP JUMPDEST DUP2 MLOAD PUSH2 0x2A39 DUP4 DUP4 PUSH2 0x215F JUMP JUMPDEST POP PUSH2 0x6A3 DUP4 DUP3 PUSH2 0x282F JUMP JUMPDEST DUP3 DUP1 SLOAD PUSH2 0x2A50 SWAP1 PUSH2 0x3690 JUMP JUMPDEST SWAP1 PUSH1 0x0 MSTORE PUSH1 0x20 PUSH1 0x0 KECCAK256 SWAP1 PUSH1 0x1F ADD PUSH1 0x20 SWAP1 DIV DUP2 ADD SWAP3 DUP3 PUSH2 0x2A72 JUMPI PUSH1 0x0 DUP6 SSTORE PUSH2 0x2AB8 JUMP JUMPDEST DUP3 PUSH1 0x1F LT PUSH2 0x2A8B JUMPI DUP1 MLOAD PUSH1 0xFF NOT AND DUP4 DUP1 ADD OR DUP6 SSTORE PUSH2 0x2AB8 JUMP JUMPDEST DUP3 DUP1 ADD PUSH1 0x1 ADD DUP6 SSTORE DUP3 ISZERO PUSH2 0x2AB8 JUMPI SWAP2 DUP3 ADD JUMPDEST DUP3 DUP2 GT ISZERO PUSH2 0x2AB8 JUMPI DUP3 MLOAD DUP3 SSTORE SWAP2 PUSH1 0x20 ADD SWAP2 SWAP1 PUSH1 0x1 ADD SWAP1 PUSH2 0x2A9D JUMP JUMPDEST POP PUSH2 0x2AC4 SWAP3 SWAP2 POP PUSH2 0x2C63 JUMP JUMPDEST POP SWAP1 JUMP JUMPDEST DUP3 DUP1 SLOAD PUSH2 0x2AD4 SWAP1 PUSH2 0x3690 JUMP JUMPDEST SWAP1 PUSH1 0x0 MSTORE PUSH1 0x20 PUSH1 0x0 KECCAK256 SWAP1 PUSH1 0x1F ADD PUSH1 0x20 SWAP1 DIV DUP2 ADD SWAP3 DUP3 PUSH2 0x2AF6 JUMPI PUSH1 0x0 DUP6 SSTORE PUSH2 0x2AB8 JUMP JUMPDEST DUP3 PUSH1 0x1F LT PUSH2 0x2B0F JUMPI DUP3 DUP1 ADD PUSH1 0xFF NOT DUP3 CALLDATALOAD AND OR DUP6 SSTORE PUSH2 0x2AB8 JUMP JUMPDEST DUP3 DUP1 ADD PUSH1 0x1 ADD DUP6 SSTORE DUP3 ISZERO PUSH2 0x2AB8 JUMPI SWAP2 DUP3 ADD JUMPDEST DUP3 DUP2 GT ISZERO PUSH2 0x2AB8 JUMPI DUP3 CALLDATALOAD DUP3 SSTORE SWAP2 PUSH1 0x20 ADD SWAP2 SWAP1 PUSH1 0x1 ADD SWAP1 PUSH2 0x2B21 JUMP JUMPDEST PUSH1 0x40 MLOAD DUP1 PUSH1 0x40 ADD PUSH1 0x40 MSTORE DUP1 PUSH2 0x2B64 PUSH1 0x40 MLOAD DUP1 PUSH1 0x40 ADD PUSH1 0x40 MSTORE DUP1 PUSH1 0x60 DUP2 MSTORE PUSH1 0x20 ADD PUSH1 0x0 DUP2 MSTORE POP SWAP1 JUMP JUMPDEST DUP2 MSTORE PUSH1 0x20 ADD PUSH1 0x0 DUP2 MSTORE POP SWAP1 JUMP JUMPDEST POP DUP1 SLOAD PUSH1 0x0 DUP3 SSTORE SWAP1 PUSH1 0x0 MSTORE PUSH1 0x20 PUSH1 0x0 KECCAK256 SWAP1 DUP2 ADD SWAP1 PUSH2 0xF48 SWAP2 SWAP1 PUSH2 0x2C78 JUMP JUMPDEST DUP3 DUP1 SLOAD DUP3 DUP3 SSTORE SWAP1 PUSH1 0x0 MSTORE PUSH1 0x20 PUSH1 0x0 KECCAK256 SWAP1 DUP2 ADD SWAP3 DUP3 ISZERO PUSH2 0x2BDC JUMPI SWAP2 PUSH1 0x20 MUL DUP3 ADD JUMPDEST DUP3 DUP2 GT ISZERO PUSH2 0x2BDC JUMPI DUP3 MLOAD DUP1 MLOAD PUSH2 0x2BCC SWAP2 DUP5 SWAP2 PUSH1 0x20 SWAP1 SWAP2 ADD SWAP1 PUSH2 0x2A44 JUMP JUMPDEST POP SWAP2 PUSH1 0x20 ADD SWAP2 SWAP1 PUSH1 0x1 ADD SWAP1 PUSH2 0x2BAF JUMP JUMPDEST POP PUSH2 0x2AC4 SWAP3 SWAP2 POP PUSH2 0x2C78 JUMP JUMPDEST DUP3 DUP1 SLOAD PUSH2 0x2BF4 SWAP1 PUSH2 0x3690 JUMP JUMPDEST SWAP1 PUSH1 0x0 MSTORE PUSH1 0x20 PUSH1 0x0 KECCAK256 SWAP1 PUSH1 0x1F ADD PUSH1 0x20 SWAP1 DIV DUP2 ADD SWAP3 DUP3 PUSH2 0x2C16 JUMPI PUSH1 0x0 DUP6 SSTORE PUSH2 0x2AB8 JUMP JUMPDEST DUP3 PUSH1 0x1F LT PUSH2 0x2C27 JUMPI DUP1 SLOAD DUP6 SSTORE PUSH2 0x2AB8 JUMP JUMPDEST DUP3 DUP1 ADD PUSH1 0x1 ADD DUP6 SSTORE DUP3 ISZERO PUSH2 0x2AB8 JUMPI PUSH1 0x0 MSTORE PUSH1 0x20 PUSH1 0x0 KECCAK256 SWAP2 PUSH1 0x1F ADD PUSH1 0x20 SWAP1 DIV DUP3 ADD JUMPDEST DUP3 DUP2 GT ISZERO PUSH2 0x2AB8 JUMPI DUP3 SLOAD DUP3 SSTORE SWAP2 PUSH1 0x1 ADD SWAP2 SWAP1 PUSH1 0x1 ADD SWAP1 PUSH2 0x2C48 JUMP JUMPDEST JUMPDEST DUP1 DUP3 GT ISZERO PUSH2 0x2AC4 JUMPI PUSH1 0x0 DUP2 SSTORE PUSH1 0x1 ADD PUSH2 0x2C64 JUMP JUMPDEST DUP1 DUP3 GT ISZERO PUSH2 0x2AC4 JUMPI PUSH1 0x0 PUSH2 0x2C8C DUP3 DUP3 PUSH2 0x2C95 JUMP JUMPDEST POP PUSH1 0x1 ADD PUSH2 0x2C78 JUMP JUMPDEST POP DUP1 SLOAD PUSH2 0x2CA1 SWAP1 PUSH2 0x3690 JUMP JUMPDEST PUSH1 0x0 DUP3 SSTORE DUP1 PUSH1 0x1F LT PUSH2 0x2CB1 JUMPI POP POP JUMP JUMPDEST PUSH1 0x1F ADD PUSH1 0x20 SWAP1 DIV SWAP1 PUSH1 0x0 MSTORE PUSH1 0x20 PUSH1 0x0 KECCAK256 SWAP1 DUP2 ADD SWAP1 PUSH2 0xF48 SWAP2 SWAP1 PUSH2 0x2C63 JUMP JUMPDEST PUSH1 0x1 PUSH1 0x1 PUSH1 0xA0 SHL SUB DUP2 AND DUP2 EQ PUSH2 0xF48 JUMPI PUSH1 0x0 DUP1 REVERT JUMPDEST PUSH1 0x0 DUP1 PUSH1 0x40 DUP4 DUP6 SUB SLT ISZERO PUSH2 0x2CF7 JUMPI PUSH1 0x0 DUP1 REVERT JUMPDEST DUP3 CALLDATALOAD PUSH2 0x2D02 DUP2 PUSH2 0x2CCF JUMP JUMPDEST SWAP5 PUSH1 0x20 SWAP4 SWAP1 SWAP4 ADD CALLDATALOAD SWAP4 POP POP POP JUMP JUMPDEST PUSH1 0x1 PUSH1 0x1 PUSH1 0xE0 SHL SUB NOT DUP2 AND DUP2 EQ PUSH2 0xF48 JUMPI PUSH1 0x0 DUP1 REVERT JUMPDEST PUSH1 0x0 PUSH1 0x20 DUP3 DUP5 SUB SLT ISZERO PUSH2 0x2D38 JUMPI PUSH1 0x0 DUP1 REVERT JUMPDEST DUP2 CALLDATALOAD PUSH2 0x2850 DUP2 PUSH2 0x2D10 JUMP JUMPDEST PUSH4 0x4E487B71 PUSH1 0xE0 SHL PUSH1 0x0 MSTORE PUSH1 0x41 PUSH1 0x4 MSTORE PUSH1 0x24 PUSH1 0x0 REVERT JUMPDEST PUSH1 0x1F DUP3 ADD PUSH1 0x1F NOT AND DUP2 ADD PUSH1 0x1 PUSH1 0x1 PUSH1 0x40 SHL SUB DUP2 GT DUP3 DUP3 LT OR ISZERO PUSH2 0x2D7E JUMPI PUSH2 0x2D7E PUSH2 0x2D43 JUMP JUMPDEST PUSH1 0x40 MSTORE POP POP JUMP JUMPDEST PUSH1 0x40 MLOAD PUSH1 0xC0 DUP2 ADD PUSH1 0x1 PUSH1 0x1 PUSH1 0x40 SHL SUB DUP2 GT DUP3 DUP3 LT OR ISZERO PUSH2 0x2DA7 JUMPI PUSH2 0x2DA7 PUSH2 0x2D43 JUMP JUMPDEST PUSH1 0x40 MSTORE SWAP1 JUMP JUMPDEST PUSH1 0x0 PUSH1 0x1 PUSH1 0x1 PUSH1 0x40 SHL SUB DUP3 GT ISZERO PUSH2 0x2DC6 JUMPI PUSH2 0x2DC6 PUSH2 0x2D43 JUMP JUMPDEST POP PUSH1 0x1F ADD PUSH1 0x1F NOT AND PUSH1 0x20 ADD SWAP1 JUMP JUMPDEST PUSH1 0x0 DUP3 PUSH1 0x1F DUP4 ADD SLT PUSH2 0x2DE5 JUMPI PUSH1 0x0 DUP1 REVERT JUMPDEST DUP2 CALLDATALOAD PUSH2 0x2DF0 DUP2 PUSH2 0x2DAD JUMP JUMPDEST PUSH1 0x40 MLOAD PUSH2 0x2DFD DUP3 DUP3 PUSH2 0x2D59 JUMP JUMPDEST DUP3 DUP2 MSTORE DUP6 PUSH1 0x20 DUP5 DUP8 ADD ADD GT ISZERO PUSH2 0x2E12 JUMPI PUSH1 0x0 DUP1 REVERT JUMPDEST DUP3 PUSH1 0x20 DUP7 ADD PUSH1 0x20 DUP4 ADD CALLDATACOPY PUSH1 0x0 SWAP3 DUP2 ADD PUSH1 0x20 ADD SWAP3 SWAP1 SWAP3 MSTORE POP SWAP4 SWAP3 POP POP POP JUMP JUMPDEST PUSH1 0x0 DUP1 PUSH1 0x0 PUSH1 0x60 DUP5 DUP7 SUB SLT ISZERO PUSH2 0x2E45 JUMPI PUSH1 0x0 DUP1 REVERT JUMPDEST DUP4 CALLDATALOAD SWAP3 POP PUSH1 0x20 DUP5 ADD CALLDATALOAD PUSH1 0x1 PUSH1 0x1 PUSH1 0x40 SHL SUB DUP1 DUP3 GT ISZERO PUSH2 0x2E63 JUMPI PUSH1 0x0 DUP1 REVERT JUMPDEST PUSH2 0x2E6F DUP8 DUP4 DUP9 ADD PUSH2 0x2DD4 JUMP JUMPDEST SWAP4 POP PUSH1 0x40 DUP7 ADD CALLDATALOAD SWAP2 POP DUP1 DUP3 GT ISZERO PUSH2 0x2E85 JUMPI PUSH1 0x0 DUP1 REVERT JUMPDEST POP PUSH2 0x2E92 DUP7 DUP3 DUP8 ADD PUSH2 0x2DD4 JUMP JUMPDEST SWAP2 POP POP SWAP3 POP SWAP3 POP SWAP3 JUMP JUMPDEST PUSH1 0x0 PUSH1 0x20 DUP3 DUP5 SUB SLT ISZERO PUSH2 0x2EAE JUMPI PUSH1 0x0 DUP1 REVERT JUMPDEST POP CALLDATALOAD SWAP2 SWAP1 POP JUMP JUMPDEST PUSH1 0x0 JUMPDEST DUP4 DUP2 LT ISZERO PUSH2 0x2ED0 JUMPI DUP2 DUP2 ADD MLOAD DUP4 DUP3 ADD MSTORE PUSH1 0x20 ADD PUSH2 0x2EB8 JUMP JUMPDEST DUP4 DUP2 GT ISZERO PUSH2 0x6A3 JUMPI POP POP PUSH1 0x0 SWAP2 ADD MSTORE JUMP JUMPDEST PUSH1 0x0 DUP2 MLOAD DUP1 DUP5 MSTORE PUSH2 0x2EF9 DUP2 PUSH1 0x20 DUP7 ADD PUSH1 0x20 DUP7 ADD PUSH2 0x2EB5 JUMP JUMPDEST PUSH1 0x1F ADD PUSH1 0x1F NOT AND SWAP3 SWAP1 SWAP3 ADD PUSH1 0x20 ADD SWAP3 SWAP2 POP POP JUMP JUMPDEST PUSH1 0x20 DUP2 MSTORE PUSH1 0x0 PUSH2 0x2850 PUSH1 0x20 DUP4 ADD DUP5 PUSH2 0x2EE1 JUMP JUMPDEST DUP1 CALLDATALOAD PUSH1 0x1 PUSH1 0x1 PUSH1 0x40 SHL SUB DUP2 AND DUP2 EQ PUSH2 0x2F37 JUMPI PUSH1 0x0 DUP1 REVERT JUMPDEST SWAP2 SWAP1 POP JUMP JUMPDEST PUSH1 0x0 PUSH1 0x20 DUP3 DUP5 SUB SLT ISZERO PUSH2 0x2F4E JUMPI PUSH1 0x0 DUP1 REVERT JUMPDEST PUSH2 0x2850 DUP3 PUSH2 0x2F20 JUMP JUMPDEST PUSH1 0x0 PUSH1 0x1 PUSH1 0x1 PUSH1 0x40 SHL SUB DUP3 GT ISZERO PUSH2 0x2F70 JUMPI PUSH2 0x2F70 PUSH2 0x2D43 JUMP JUMPDEST POP PUSH1 0x5 SHL PUSH1 0x20 ADD SWAP1 JUMP JUMPDEST PUSH1 0x0 DUP3 PUSH1 0x1F DUP4 ADD SLT PUSH2 0x2F8B JUMPI PUSH1 0x0 DUP1 REVERT JUMPDEST DUP2 CALLDATALOAD PUSH1 0x20 PUSH2 0x2F98 DUP3 PUSH2 0x2F57 JUMP JUMPDEST PUSH1 0x40 MLOAD PUSH2 0x2FA5 DUP3 DUP3 PUSH2 0x2D59 JUMP JUMPDEST DUP4 DUP2 MSTORE PUSH1 0x5 SWAP4 SWAP1 SWAP4 SHL DUP6 ADD DUP3 ADD SWAP3 DUP3 DUP2 ADD SWAP2 POP DUP7 DUP5 GT ISZERO PUSH2 0x2FC5 JUMPI PUSH1 0x0 DUP1 REVERT JUMPDEST DUP3 DUP7 ADD JUMPDEST DUP5 DUP2 LT ISZERO PUSH2 0x2FE0 JUMPI DUP1 CALLDATALOAD DUP4 MSTORE SWAP2 DUP4 ADD SWAP2 DUP4 ADD PUSH2 0x2FC9 JUMP JUMPDEST POP SWAP7 SWAP6 POP POP POP POP POP POP JUMP JUMPDEST PUSH1 0x0 DUP1 PUSH1 0x0 DUP1 PUSH1 0x0 PUSH1 0xA0 DUP7 DUP9 SUB SLT ISZERO PUSH2 0x3003 JUMPI PUSH1 0x0 DUP1 REVERT JUMPDEST DUP6 CALLDATALOAD PUSH2 0x300E DUP2 PUSH2 0x2CCF JUMP JUMPDEST SWAP5 POP PUSH1 0x20 DUP7 ADD CALLDATALOAD PUSH2 0x301E DUP2 PUSH2 0x2CCF JUMP JUMPDEST SWAP4 POP PUSH1 0x40 DUP7 ADD CALLDATALOAD PUSH1 0x1 PUSH1 0x1 PUSH1 0x40 SHL SUB DUP1 DUP3 GT ISZERO PUSH2 0x303A JUMPI PUSH1 0x0 DUP1 REVERT JUMPDEST PUSH2 0x3046 DUP10 DUP4 DUP11 ADD PUSH2 0x2F7A JUMP JUMPDEST SWAP5 POP PUSH1 0x60 DUP9 ADD CALLDATALOAD SWAP2 POP DUP1 DUP3 GT ISZERO PUSH2 0x305C JUMPI PUSH1 0x0 DUP1 REVERT JUMPDEST PUSH2 0x3068 DUP10 DUP4 DUP11 ADD PUSH2 0x2F7A JUMP JUMPDEST SWAP4 POP PUSH1 0x80 DUP9 ADD CALLDATALOAD SWAP2 POP DUP1 DUP3 GT ISZERO PUSH2 0x307E JUMPI PUSH1 0x0 DUP1 REVERT JUMPDEST POP PUSH2 0x308B DUP9 DUP3 DUP10 ADD PUSH2 0x2DD4 JUMP JUMPDEST SWAP2 POP POP SWAP3 SWAP6 POP SWAP3 SWAP6 SWAP1 SWAP4 POP JUMP JUMPDEST PUSH1 0x0 DUP1 DUP4 PUSH1 0x1F DUP5 ADD SLT PUSH2 0x30AA JUMPI PUSH1 0x0 DUP1 REVERT JUMPDEST POP DUP2 CALLDATALOAD PUSH1 0x1 PUSH1 0x1 PUSH1 0x40 SHL SUB DUP2 GT ISZERO PUSH2 0x30C1 JUMPI PUSH1 0x0 DUP1 REVERT JUMPDEST PUSH1 0x20 DUP4 ADD SWAP2 POP DUP4 PUSH1 0x20 DUP3 DUP6 ADD ADD GT ISZERO PUSH2 0x30D9 JUMPI PUSH1 0x0 DUP1 REVERT JUMPDEST SWAP3 POP SWAP3 SWAP1 POP JUMP JUMPDEST PUSH1 0x0 DUP1 PUSH1 0x20 DUP4 DUP6 SUB SLT ISZERO PUSH2 0x30F3 JUMPI PUSH1 0x0 DUP1 REVERT JUMPDEST DUP3 CALLDATALOAD PUSH1 0x1 PUSH1 0x1 PUSH1 0x40 SHL SUB DUP2 GT ISZERO PUSH2 0x3109 JUMPI PUSH1 0x0 DUP1 REVERT JUMPDEST PUSH2 0x3115 DUP6 DUP3 DUP7 ADD PUSH2 0x3098 JUMP JUMPDEST SWAP1 SWAP7 SWAP1 SWAP6 POP SWAP4 POP POP POP POP JUMP JUMPDEST PUSH1 0x0 DUP1 PUSH1 0x40 DUP4 DUP6 SUB SLT ISZERO PUSH2 0x3134 JUMPI PUSH1 0x0 DUP1 REVERT JUMPDEST DUP3 CALLDATALOAD PUSH1 0x1 PUSH1 0x1 PUSH1 0x40 SHL SUB DUP1 DUP3 GT ISZERO PUSH2 0x314B JUMPI PUSH1 0x0 DUP1 REVERT JUMPDEST DUP2 DUP6 ADD SWAP2 POP DUP6 PUSH1 0x1F DUP4 ADD SLT PUSH2 0x315F JUMPI PUSH1 0x0 DUP1 REVERT JUMPDEST DUP2 CALLDATALOAD PUSH1 0x20 PUSH2 0x316C DUP3 PUSH2 0x2F57 JUMP JUMPDEST PUSH1 0x40 MLOAD PUSH2 0x3179 DUP3 DUP3 PUSH2 0x2D59 JUMP JUMPDEST DUP4 DUP2 MSTORE PUSH1 0x5 SWAP4 SWAP1 SWAP4 SHL DUP6 ADD DUP3 ADD SWAP3 DUP3 DUP2 ADD SWAP2 POP DUP10 DUP5 GT ISZERO PUSH2 0x3199 JUMPI PUSH1 0x0 DUP1 REVERT JUMPDEST SWAP5 DUP3 ADD SWAP5 JUMPDEST DUP4 DUP7 LT ISZERO PUSH2 0x31C0 JUMPI DUP6 CALLDATALOAD PUSH2 0x31B1 DUP2 PUSH2 0x2CCF JUMP JUMPDEST DUP3 MSTORE SWAP5 DUP3 ADD SWAP5 SWAP1 DUP3 ADD SWAP1 PUSH2 0x319E JUMP JUMPDEST SWAP7 POP POP DUP7 ADD CALLDATALOAD SWAP3 POP POP DUP1 DUP3 GT ISZERO PUSH2 0x31D6 JUMPI PUSH1 0x0 DUP1 REVERT JUMPDEST POP PUSH2 0x31E3 DUP6 DUP3 DUP7 ADD PUSH2 0x2F7A JUMP JUMPDEST SWAP2 POP POP SWAP3 POP SWAP3 SWAP1 POP JUMP JUMPDEST PUSH1 0x0 DUP2 MLOAD DUP1 DUP5 MSTORE PUSH1 0x20 DUP1 DUP6 ADD SWAP5 POP DUP1 DUP5 ADD PUSH1 0x0 JUMPDEST DUP4 DUP2 LT ISZERO PUSH2 0x321D JUMPI DUP2 MLOAD DUP8 MSTORE SWAP6 DUP3 ADD SWAP6 SWAP1 DUP3 ADD SWAP1 PUSH1 0x1 ADD PUSH2 0x3201 JUMP JUMPDEST POP SWAP5 SWAP6 SWAP5 POP POP POP POP POP JUMP JUMPDEST PUSH1 0x20 DUP2 MSTORE PUSH1 0x0 PUSH2 0x2850 PUSH1 0x20 DUP4 ADD DUP5 PUSH2 0x31ED JUMP JUMPDEST PUSH1 0x0 PUSH1 0x20 DUP3 DUP5 SUB SLT ISZERO PUSH2 0x324D JUMPI PUSH1 0x0 DUP1 REVERT JUMPDEST DUP2 CALLDATALOAD PUSH1 0x1 PUSH1 0x1 PUSH1 0x40 SHL SUB DUP2 GT ISZERO PUSH2 0x3263 JUMPI PUSH1 0x0 DUP1 REVERT JUMPDEST PUSH2 0xEBB DUP5 DUP3 DUP6 ADD PUSH2 0x2DD4 JUMP JUMPDEST DUP3 ISZERO ISZERO DUP2 MSTORE PUSH1 0x40 PUSH1 0x20 DUP3 ADD MSTORE PUSH1 0x0 PUSH2 0xEBB PUSH1 0x40 DUP4 ADD DUP5 PUSH2 0x2EE1 JUMP JUMPDEST DUP5 DUP2 MSTORE PUSH1 0x0 PUSH1 0x20 PUSH1 0x80 DUP2 DUP5 ADD MSTORE PUSH2 0x32A4 PUSH1 0x80 DUP5 ADD DUP8 PUSH2 0x2EE1 JUMP JUMPDEST DUP4 DUP2 SUB PUSH1 0x40 DUP6 ADD MSTORE PUSH2 0x32B6 DUP2 DUP8 PUSH2 0x2EE1 JUMP JUMPDEST SWAP1 POP DUP4 DUP2 SUB PUSH1 0x60 DUP6 ADD MSTORE DUP1 DUP6 MLOAD DUP1 DUP4 MSTORE DUP4 DUP4 ADD SWAP2 POP DUP4 DUP2 PUSH1 0x5 SHL DUP5 ADD ADD DUP5 DUP9 ADD PUSH1 0x0 JUMPDEST DUP4 DUP2 LT ISZERO PUSH2 0x3307 JUMPI PUSH1 0x1F NOT DUP7 DUP5 SUB ADD DUP6 MSTORE PUSH2 0x32F5 DUP4 DUP4 MLOAD PUSH2 0x2EE1 JUMP JUMPDEST SWAP5 DUP8 ADD SWAP5 SWAP3 POP SWAP1 DUP7 ADD SWAP1 PUSH1 0x1 ADD PUSH2 0x32D9 JUMP JUMPDEST POP SWAP1 SWAP12 SWAP11 POP POP POP POP POP POP POP POP POP POP POP JUMP JUMPDEST PUSH1 0x0 DUP1 PUSH1 0x40 DUP4 DUP6 SUB SLT ISZERO PUSH2 0x332B JUMPI PUSH1 0x0 DUP1 REVERT JUMPDEST DUP3 CALLDATALOAD PUSH2 0x3336 DUP2 PUSH2 0x2CCF JUMP JUMPDEST SWAP2 POP PUSH1 0x20 DUP4 ADD CALLDATALOAD DUP1 ISZERO ISZERO DUP2 EQ PUSH2 0x334B JUMPI PUSH1 0x0 DUP1 REVERT JUMPDEST DUP1 SWAP2 POP POP SWAP3 POP SWAP3 SWAP1 POP JUMP JUMPDEST PUSH4 0x4E487B71 PUSH1 0xE0 SHL PUSH1 0x0 MSTORE PUSH1 0x21 PUSH1 0x4 MSTORE PUSH1 0x24 PUSH1 0x0 REVERT JUMPDEST PUSH1 0x4 DUP2 LT PUSH2 0x337C JUMPI PUSH2 0x337C PUSH2 0x3356 JUMP JUMPDEST SWAP1 MSTORE JUMP JUMPDEST PUSH1 0x1 PUSH1 0x1 PUSH1 0xA0 SHL SUB DUP5 AND DUP2 MSTORE PUSH1 0x60 PUSH1 0x20 DUP3 ADD DUP2 SWAP1 MSTORE PUSH1 0x0 SWAP1 PUSH2 0x33A4 SWAP1 DUP4 ADD DUP6 PUSH2 0x2EE1 JUMP JUMPDEST SWAP1 POP PUSH2 0xEBB PUSH1 0x40 DUP4 ADD DUP5 PUSH2 0x336C JUMP JUMPDEST DUP1 CALLDATALOAD PUSH1 0x2 DUP2 LT PUSH2 0x2F37 JUMPI PUSH1 0x0 DUP1 REVERT JUMPDEST DUP1 CALLDATALOAD PUSH1 0x1 DUP2 LT PUSH2 0x2F37 JUMPI PUSH1 0x0 DUP1 REVERT JUMPDEST PUSH1 0x0 DUP3 PUSH1 0x1F DUP4 ADD SLT PUSH2 0x33E2 JUMPI PUSH1 0x0 DUP1 REVERT JUMPDEST DUP2 CALLDATALOAD PUSH1 0x20 PUSH2 0x33EF DUP3 PUSH2 0x2F57 JUMP JUMPDEST PUSH1 0x40 MLOAD PUSH2 0x33FC DUP3 DUP3 PUSH2 0x2D59 JUMP JUMPDEST DUP4 DUP2 MSTORE PUSH1 0x5 SWAP4 SWAP1 SWAP4 SHL DUP6 ADD DUP3 ADD SWAP3 DUP3 DUP2 ADD SWAP2 POP DUP7 DUP5 GT ISZERO PUSH2 0x341C JUMPI PUSH1 0x0 DUP1 REVERT JUMPDEST DUP3 DUP7 ADD JUMPDEST DUP5 DUP2 LT ISZERO PUSH2 0x2FE0 JUMPI DUP1 CALLDATALOAD PUSH1 0x1 PUSH1 0x1 PUSH1 0x40 SHL SUB DUP2 GT ISZERO PUSH2 0x343F JUMPI PUSH1 0x0 DUP1 DUP2 REVERT JUMPDEST PUSH2 0x344D DUP10 DUP7 DUP4 DUP12 ADD ADD PUSH2 0x2DD4 JUMP JUMPDEST DUP5 MSTORE POP SWAP2 DUP4 ADD SWAP2 DUP4 ADD PUSH2 0x3420 JUMP JUMPDEST DUP1 CALLDATALOAD PUSH4 0xFFFFFFFF DUP2 AND DUP2 EQ PUSH2 0x2F37 JUMPI PUSH1 0x0 DUP1 REVERT JUMPDEST PUSH1 0x0 DUP1 PUSH1 0x0 DUP1 PUSH1 0x80 DUP6 DUP8 SUB SLT ISZERO PUSH2 0x3485 JUMPI PUSH1 0x0 DUP1 REVERT JUMPDEST DUP5 CALLDATALOAD PUSH1 0x1 PUSH1 0x1 PUSH1 0x40 SHL SUB DUP1 DUP3 GT ISZERO PUSH2 0x349C JUMPI PUSH1 0x0 DUP1 REVERT JUMPDEST SWAP1 DUP7 ADD SWAP1 PUSH1 0xC0 DUP3 DUP10 SUB SLT ISZERO PUSH2 0x34B0 JUMPI PUSH1 0x0 DUP1 REVERT JUMPDEST PUSH2 0x34B8 PUSH2 0x2D85 JUMP JUMPDEST PUSH2 0x34C1 DUP4 PUSH2 0x33B3 JUMP JUMPDEST DUP2 MSTORE PUSH2 0x34CF PUSH1 0x20 DUP5 ADD PUSH2 0x33B3 JUMP JUMPDEST PUSH1 0x20 DUP3 ADD MSTORE PUSH2 0x34E0 PUSH1 0x40 DUP5 ADD PUSH2 0x33C2 JUMP JUMPDEST PUSH1 0x40 DUP3 ADD MSTORE PUSH1 0x60 DUP4 ADD CALLDATALOAD DUP3 DUP2 GT ISZERO PUSH2 0x34F7 JUMPI PUSH1 0x0 DUP1 REVERT JUMPDEST PUSH2 0x3503 DUP11 DUP3 DUP7 ADD PUSH2 0x2DD4 JUMP JUMPDEST PUSH1 0x60 DUP4 ADD MSTORE POP PUSH1 0x80 DUP4 ADD CALLDATALOAD DUP3 DUP2 GT ISZERO PUSH2 0x351B JUMPI PUSH1 0x0 DUP1 REVERT JUMPDEST PUSH2 0x3527 DUP11 DUP3 DUP7 ADD PUSH2 0x2DD4 JUMP JUMPDEST PUSH1 0x80 DUP4 ADD MSTORE POP PUSH1 0xA0 DUP4 ADD CALLDATALOAD DUP3 DUP2 GT ISZERO PUSH2 0x353F JUMPI PUSH1 0x0 DUP1 REVERT JUMPDEST PUSH2 0x354B DUP11 DUP3 DUP7 ADD PUSH2 0x33D1 JUMP JUMPDEST PUSH1 0xA0 DUP4 ADD MSTORE POP SWAP6 POP PUSH2 0x3562 SWAP2 POP POP PUSH1 0x20 DUP7 ADD PUSH2 0x2F20 JUMP JUMPDEST SWAP3 POP PUSH2 0x3570 PUSH1 0x40 DUP7 ADD PUSH2 0x345B JUMP JUMPDEST SWAP4 SWAP7 SWAP3 SWAP6 POP SWAP3 SWAP4 PUSH1 0x60 ADD CALLDATALOAD SWAP3 POP POP JUMP JUMPDEST PUSH1 0x0 PUSH1 0x3 DUP9 LT PUSH2 0x3592 JUMPI PUSH2 0x3592 PUSH2 0x3356 JUMP JUMPDEST DUP8 DUP3 MSTORE DUP7 PUSH1 0x20 DUP4 ADD MSTORE DUP6 PUSH1 0x40 DUP4 ADD MSTORE PUSH1 0x1 DUP1 PUSH1 0xA0 SHL SUB DUP6 AND PUSH1 0x60 DUP4 ADD MSTORE PUSH1 0xC0 PUSH1 0x80 DUP4 ADD MSTORE PUSH2 0x35C3 PUSH1 0xC0 DUP4 ADD DUP6 PUSH2 0x2EE1 JUMP JUMPDEST SWAP1 POP PUSH2 0x35D2 PUSH1 0xA0 DUP4 ADD DUP5 PUSH2 0x336C JUMP JUMPDEST SWAP8 SWAP7 POP POP POP POP POP POP POP JUMP JUMPDEST PUSH1 0x0 DUP1 PUSH1 0x40 DUP4 DUP6 SUB SLT ISZERO PUSH2 0x35F0 JUMPI PUSH1 0x0 DUP1 REVERT JUMPDEST DUP3 CALLDATALOAD PUSH2 0x35FB DUP2 PUSH2 0x2CCF JUMP JUMPDEST SWAP2 POP PUSH1 0x20 DUP4 ADD CALLDATALOAD PUSH2 0x334B DUP2 PUSH2 0x2CCF JUMP JUMPDEST PUSH1 0x0 DUP1 PUSH1 0x0 DUP1 PUSH1 0x0 PUSH1 0xA0 DUP7 DUP9 SUB SLT ISZERO PUSH2 0x3623 JUMPI PUSH1 0x0 DUP1 REVERT JUMPDEST DUP6 CALLDATALOAD PUSH2 0x362E DUP2 PUSH2 0x2CCF JUMP JUMPDEST SWAP5 POP PUSH1 0x20 DUP7 ADD CALLDATALOAD PUSH2 0x363E DUP2 PUSH2 0x2CCF JUMP JUMPDEST SWAP4 POP PUSH1 0x40 DUP7 ADD CALLDATALOAD SWAP3 POP PUSH1 0x60 DUP7 ADD CALLDATALOAD SWAP2 POP PUSH1 0x80 DUP7 ADD CALLDATALOAD PUSH1 0x1 PUSH1 0x1 PUSH1 0x40 SHL SUB DUP2 GT ISZERO PUSH2 0x3667 JUMPI PUSH1 0x0 DUP1 REVERT JUMPDEST PUSH2 0x308B DUP9 DUP3 DUP10 ADD PUSH2 0x2DD4 JUMP JUMPDEST PUSH1 0x0 PUSH1 0x20 DUP3 DUP5 SUB SLT ISZERO PUSH2 0x3685 JUMPI PUSH1 0x0 DUP1 REVERT JUMPDEST DUP2 CALLDATALOAD PUSH2 0x2850 DUP2 PUSH2 0x2CCF JUMP JUMPDEST PUSH1 0x1 DUP2 DUP2 SHR SWAP1 DUP3 AND DUP1 PUSH2 0x36A4 JUMPI PUSH1 0x7F DUP3 AND SWAP2 POP JUMPDEST PUSH1 0x20 DUP3 LT DUP2 SUB PUSH2 0x36C4 JUMPI PUSH4 0x4E487B71 PUSH1 0xE0 SHL PUSH1 0x0 MSTORE PUSH1 0x22 PUSH1 0x4 MSTORE PUSH1 0x24 PUSH1 0x0 REVERT JUMPDEST POP SWAP2 SWAP1 POP JUMP JUMPDEST PUSH1 0x20 DUP1 DUP3 MSTORE PUSH1 0x2E SWAP1 DUP3 ADD MSTORE PUSH32 0x455243313135353A2063616C6C6572206973206E6F7420746F6B656E206F776E PUSH1 0x40 DUP3 ADD MSTORE PUSH14 0x195C881BDC88185C1C1C9BDD9959 PUSH1 0x92 SHL PUSH1 0x60 DUP3 ADD MSTORE PUSH1 0x80 ADD SWAP1 JUMP JUMPDEST PUSH4 0x4E487B71 PUSH1 0xE0 SHL PUSH1 0x0 MSTORE PUSH1 0x32 PUSH1 0x4 MSTORE PUSH1 0x24 PUSH1 0x0 REVERT JUMPDEST PUSH4 0x4E487B71 PUSH1 0xE0 SHL PUSH1 0x0 MSTORE PUSH1 0x11 PUSH1 0x4 MSTORE PUSH1 0x24 PUSH1 0x0 REVERT JUMPDEST PUSH1 0x0 PUSH1 0x1 DUP3 ADD PUSH2 0x3756 JUMPI PUSH2 0x3756 PUSH2 0x372E JUMP JUMPDEST POP PUSH1 0x1 ADD SWAP1 JUMP JUMPDEST PUSH1 0x0 PUSH1 0x20 DUP3 DUP5 SUB SLT ISZERO PUSH2 0x376F JUMPI PUSH1 0x0 DUP1 REVERT JUMPDEST DUP2 MLOAD PUSH1 0x1 PUSH1 0x1 PUSH1 0x40 SHL SUB DUP2 GT ISZERO PUSH2 0x3785 JUMPI PUSH1 0x0 DUP1 REVERT JUMPDEST DUP3 ADD PUSH1 0x1F DUP2 ADD DUP5 SGT PUSH2 0x3796 JUMPI PUSH1 0x0 DUP1 REVERT JUMPDEST DUP1 MLOAD PUSH2 0x37A1 DUP2 PUSH2 0x2DAD JUMP JUMPDEST PUSH1 0x40 MLOAD PUSH2 0x37AE DUP3 DUP3 PUSH2 0x2D59 JUMP JUMPDEST DUP3 DUP2 MSTORE DUP7 PUSH1 0x20 DUP5 DUP7 ADD ADD GT ISZERO PUSH2 0x37C3 JUMPI PUSH1 0x0 DUP1 REVERT JUMPDEST PUSH2 0x37D4 DUP4 PUSH1 0x20 DUP4 ADD PUSH1 0x20 DUP8 ADD PUSH2 0x2EB5 JUMP JUMPDEST SWAP7 SWAP6 POP POP POP POP POP POP JUMP JUMPDEST PUSH1 0x1 PUSH1 0x1 PUSH1 0x40 SHL SUB DUP6 AND DUP2 MSTORE PUSH1 0x80 PUSH1 0x20 DUP3 ADD MSTORE PUSH1 0x0 PUSH2 0x3800 PUSH1 0x80 DUP4 ADD DUP7 PUSH2 0x2EE1 JUMP JUMPDEST PUSH4 0xFFFFFFFF SWAP5 SWAP1 SWAP5 AND PUSH1 0x40 DUP4 ADD MSTORE POP PUSH1 0x60 ADD MSTORE SWAP3 SWAP2 POP POP JUMP JUMPDEST PUSH1 0x0 PUSH1 0x20 DUP3 DUP5 SUB SLT ISZERO PUSH2 0x382B JUMPI PUSH1 0x0 DUP1 REVERT JUMPDEST DUP2 MLOAD PUSH12 0xFFFFFFFFFFFFFFFFFFFFFFFF DUP2 AND DUP2 EQ PUSH2 0x2850 JUMPI PUSH1 0x0 DUP1 REVERT JUMPDEST PUSH1 0x40 DUP2 MSTORE PUSH1 0x0 PUSH2 0x385A PUSH1 0x40 DUP4 ADD DUP6 PUSH2 0x2EE1 JUMP JUMPDEST DUP3 DUP2 SUB PUSH1 0x20 DUP5 ADD MSTORE PUSH2 0x386C DUP2 DUP6 PUSH2 0x2EE1 JUMP JUMPDEST SWAP6 SWAP5 POP POP POP POP POP JUMP JUMPDEST PUSH1 0x20 DUP1 DUP3 MSTORE PUSH1 0x25 SWAP1 DUP3 ADD MSTORE PUSH32 0x455243313135353A207472616E7366657220746F20746865207A65726F206164 PUSH1 0x40 DUP3 ADD MSTORE PUSH5 0x6472657373 PUSH1 0xD8 SHL PUSH1 0x60 DUP3 ADD MSTORE PUSH1 0x80 ADD SWAP1 JUMP JUMPDEST PUSH1 0x20 DUP1 DUP3 MSTORE PUSH1 0x2A SWAP1 DUP3 ADD MSTORE PUSH32 0x455243313135353A20696E73756666696369656E742062616C616E636520666F PUSH1 0x40 DUP3 ADD MSTORE PUSH10 0x39103A3930B739B332B9 PUSH1 0xB1 SHL PUSH1 0x60 DUP3 ADD MSTORE PUSH1 0x80 ADD SWAP1 JUMP JUMPDEST PUSH1 0x0 DUP3 NOT DUP3 GT ISZERO PUSH2 0x3917 JUMPI PUSH2 0x3917 PUSH2 0x372E JUMP JUMPDEST POP ADD SWAP1 JUMP JUMPDEST PUSH1 0x40 DUP2 MSTORE PUSH1 0x0 PUSH2 0x392F PUSH1 0x40 DUP4 ADD DUP6 PUSH2 0x31ED JUMP JUMPDEST DUP3 DUP2 SUB PUSH1 0x20 DUP5 ADD MSTORE PUSH2 0x386C DUP2 DUP6 PUSH2 0x31ED JUMP JUMPDEST PUSH1 0x0 DUP3 DUP3 LT ISZERO PUSH2 0x3953 JUMPI PUSH2 0x3953 PUSH2 0x372E JUMP JUMPDEST POP SUB SWAP1 JUMP JUMPDEST PUSH1 0x1 PUSH1 0x1 PUSH1 0xA0 SHL SUB DUP5 AND DUP2 MSTORE PUSH1 0x20 DUP1 DUP3 ADD DUP5 SWAP1 MSTORE PUSH1 0x60 PUSH1 0x40 DUP4 ADD MSTORE DUP3 SLOAD PUSH1 0x0 SWAP2 SWAP1 DUP3 SWAP1 PUSH1 0x1 DUP2 DUP2 SHR SWAP1 DUP3 DUP2 AND DUP1 PUSH2 0x3990 JUMPI PUSH1 0x7F DUP4 AND SWAP3 POP JUMPDEST DUP6 DUP4 LT DUP2 SUB PUSH2 0x39AD JUMPI PUSH4 0x4E487B71 PUSH1 0xE0 SHL DUP6 MSTORE PUSH1 0x22 PUSH1 0x4 MSTORE PUSH1 0x24 DUP6 REVERT JUMPDEST PUSH1 0x60 DUP9 ADD DUP4 SWAP1 MSTORE PUSH1 0x80 DUP9 ADD DUP2 DUP1 ISZERO PUSH2 0x39CC JUMPI PUSH1 0x1 DUP2 EQ PUSH2 0x39DD JUMPI PUSH2 0x3A08 JUMP JUMPDEST PUSH1 0xFF NOT DUP7 AND DUP3 MSTORE DUP8 DUP3 ADD SWAP7 POP PUSH2 0x3A08 JUMP JUMPDEST PUSH1 0x0 DUP12 DUP2 MSTORE PUSH1 0x20 SWAP1 KECCAK256 PUSH1 0x0 JUMPDEST DUP7 DUP2 LT ISZERO PUSH2 0x3A02 JUMPI DUP2 SLOAD DUP5 DUP3 ADD MSTORE SWAP1 DUP6 ADD SWAP1 DUP10 ADD PUSH2 0x39E9 JUMP JUMPDEST DUP4 ADD SWAP8 POP POP JUMPDEST POP SWAP5 SWAP12 SWAP11 POP POP POP POP POP POP POP POP POP POP POP JUMP JUMPDEST PUSH1 0x1 PUSH1 0x1 PUSH1 0xA0 SHL SUB DUP7 DUP2 AND DUP3 MSTORE DUP6 AND PUSH1 0x20 DUP3 ADD MSTORE PUSH1 0xA0 PUSH1 0x40 DUP3 ADD DUP2 SWAP1 MSTORE PUSH1 0x0 SWAP1 PUSH2 0x3A45 SWAP1 DUP4 ADD DUP7 PUSH2 0x31ED JUMP JUMPDEST DUP3 DUP2 SUB PUSH1 0x60 DUP5 ADD MSTORE PUSH2 0x3A57 DUP2 DUP7 PUSH2 0x31ED JUMP JUMPDEST SWAP1 POP DUP3 DUP2 SUB PUSH1 0x80 DUP5 ADD MSTORE PUSH2 0x3A6B DUP2 DUP6 PUSH2 0x2EE1 JUMP JUMPDEST SWAP9 SWAP8 POP POP POP POP POP POP POP POP JUMP JUMPDEST PUSH1 0x0 PUSH1 0x20 DUP3 DUP5 SUB SLT ISZERO PUSH2 0x3A89 JUMPI PUSH1 0x0 DUP1 REVERT JUMPDEST DUP2 MLOAD PUSH2 0x2850 DUP2 PUSH2 0x2D10 JUMP JUMPDEST PUSH1 0x0 PUSH1 0x3 RETURNDATASIZE GT ISZERO PUSH2 0x3AAD JUMPI PUSH1 0x4 PUSH1 0x0 DUP1 RETURNDATACOPY POP PUSH1 0x0 MLOAD PUSH1 0xE0 SHR JUMPDEST SWAP1 JUMP JUMPDEST PUSH1 0x0 PUSH1 0x44 RETURNDATASIZE LT ISZERO PUSH2 0x3ABE JUMPI SWAP1 JUMP JUMPDEST PUSH1 0x40 MLOAD PUSH1 0x3 NOT RETURNDATASIZE DUP2 ADD PUSH1 0x4 DUP4 RETURNDATACOPY DUP2 MLOAD RETURNDATASIZE PUSH1 0x1 PUSH1 0x1 PUSH1 0x40 SHL SUB DUP2 PUSH1 0x24 DUP5 ADD GT DUP2 DUP5 GT OR ISZERO PUSH2 0x3AED JUMPI POP POP POP POP POP SWAP1 JUMP JUMPDEST DUP3 DUP6 ADD SWAP2 POP DUP2 MLOAD DUP2 DUP2 GT ISZERO PUSH2 0x3B05 JUMPI POP POP POP POP POP POP SWAP1 JUMP JUMPDEST DUP5 RETURNDATASIZE DUP8 ADD ADD PUSH1 0x20 DUP3 DUP6 ADD ADD GT ISZERO PUSH2 0x3B1F JUMPI POP POP POP POP POP POP SWAP1 JUMP JUMPDEST PUSH2 0x3B2E PUSH1 0x20 DUP3 DUP7 ADD ADD DUP8 PUSH2 0x2D59 JUMP JUMPDEST POP SWAP1 SWAP6 SWAP5 POP POP POP POP POP JUMP JUMPDEST PUSH1 0x20 DUP1 DUP3 MSTORE PUSH1 0x28 SWAP1 DUP3 ADD MSTORE PUSH32 0x455243313135353A204552433131353552656365697665722072656A65637465 PUSH1 0x40 DUP3 ADD MSTORE PUSH8 0x6420746F6B656E73 PUSH1 0xC0 SHL PUSH1 0x60 DUP3 ADD MSTORE PUSH1 0x80 ADD SWAP1 JUMP JUMPDEST PUSH1 0x1 DUP1 PUSH1 0xA0 SHL SUB DUP5 AND DUP2 MSTORE DUP3 PUSH1 0x20 DUP3 ADD MSTORE PUSH1 0x60 PUSH1 0x40 DUP3 ADD MSTORE PUSH1 0x0 PUSH2 0xEB8 PUSH1 0x60 DUP4 ADD DUP5 PUSH2 0x2EE1 JUMP JUMPDEST PUSH1 0x1 DUP1 PUSH1 0xA0 SHL SUB DUP6 AND DUP2 MSTORE DUP4 PUSH1 0x20 DUP3 ADD MSTORE PUSH1 0x80 PUSH1 0x40 DUP3 ADD MSTORE PUSH1 0x0 PUSH2 0x3BCF PUSH1 0x80 DUP4 ADD DUP6 PUSH2 0x2EE1 JUMP JUMPDEST SWAP1 POP PUSH2 0x386C PUSH1 0x60 DUP4 ADD DUP5 PUSH2 0x336C JUMP JUMPDEST PUSH1 0x0 DUP3 PUSH2 0x3BFB JUMPI PUSH4 0x4E487B71 PUSH1 0xE0 SHL PUSH1 0x0 MSTORE PUSH1 0x12 PUSH1 0x4 MSTORE PUSH1 0x24 PUSH1 0x0 REVERT JUMPDEST POP MOD SWAP1 JUMP JUMPDEST PUSH1 0x1 PUSH1 0x1 PUSH1 0xA0 SHL SUB DUP7 DUP2 AND DUP3 MSTORE DUP6 AND PUSH1 0x20 DUP3 ADD MSTORE PUSH1 0x40 DUP2 ADD DUP5 SWAP1 MSTORE PUSH1 0x60 DUP2 ADD DUP4 SWAP1 MSTORE PUSH1 0xA0 PUSH1 0x80 DUP3 ADD DUP2 SWAP1 MSTORE PUSH1 0x0 SWAP1 PUSH2 0x35D2 SWAP1 DUP4 ADD DUP5 PUSH2 0x2EE1 JUMP JUMPDEST PUSH1 0x1 PUSH1 0x1 PUSH1 0x40 SHL SUB DUP5 AND DUP2 MSTORE PUSH1 0x60 PUSH1 0x20 DUP3 ADD MSTORE PUSH1 0x0 PUSH2 0x3C5C PUSH1 0x60 DUP4 ADD DUP6 PUSH2 0x2EE1 JUMP JUMPDEST SWAP1 POP PUSH4 0xFFFFFFFF DUP4 AND PUSH1 0x40 DUP4 ADD MSTORE SWAP5 SWAP4 POP POP POP POP JUMP JUMPDEST PUSH1 0x0 PUSH1 0x20 DUP3 DUP5 SUB SLT ISZERO PUSH2 0x3C84 JUMPI PUSH1 0x0 DUP1 REVERT JUMPDEST POP MLOAD SWAP2 SWAP1 POP JUMP JUMPDEST PUSH1 0x0 PUSH1 0x20 DUP3 DUP5 SUB SLT ISZERO PUSH2 0x3C9D JUMPI PUSH1 0x0 DUP1 REVERT JUMPDEST DUP2 MLOAD PUSH2 0x2850 DUP2 PUSH2 0x2CCF JUMP JUMPDEST PUSH1 0x0 DUP2 PUSH1 0x0 NOT DIV DUP4 GT DUP3 ISZERO ISZERO AND ISZERO PUSH2 0x3CC2 JUMPI PUSH2 0x3CC2 PUSH2 0x372E JUMP JUMPDEST POP MUL SWAP1 JUMP JUMPDEST PUSH1 0x1 DUP2 DUP2 JUMPDEST DUP1 DUP6 GT ISZERO PUSH2 0x3D02 JUMPI DUP2 PUSH1 0x0 NOT DIV DUP3 GT ISZERO PUSH2 0x3CE8 JUMPI PUSH2 0x3CE8 PUSH2 0x372E JUMP JUMPDEST DUP1 DUP6 AND ISZERO PUSH2 0x3CF5 JUMPI SWAP2 DUP2 MUL SWAP2 JUMPDEST SWAP4 DUP5 SHR SWAP4 SWAP1 DUP1 MUL SWAP1 PUSH2 0x3CCC JUMP JUMPDEST POP SWAP3 POP SWAP3 SWAP1 POP JUMP JUMPDEST PUSH1 0x0 DUP3 PUSH2 0x3D19 JUMPI POP PUSH1 0x1 PUSH2 0x5C6 JUMP JUMPDEST DUP2 PUSH2 0x3D26 JUMPI POP PUSH1 0x0 PUSH2 0x5C6 JUMP JUMPDEST DUP2 PUSH1 0x1 DUP2 EQ PUSH2 0x3D3C JUMPI PUSH1 0x2 DUP2 EQ PUSH2 0x3D46 JUMPI PUSH2 0x3D62 JUMP JUMPDEST PUSH1 0x1 SWAP2 POP POP PUSH2 0x5C6 JUMP JUMPDEST PUSH1 0xFF DUP5 GT ISZERO PUSH2 0x3D57 JUMPI PUSH2 0x3D57 PUSH2 0x372E JUMP JUMPDEST POP POP PUSH1 0x1 DUP3 SHL PUSH2 0x5C6 JUMP JUMPDEST POP PUSH1 0x20 DUP4 LT PUSH2 0x133 DUP4 LT AND PUSH1 0x4E DUP5 LT PUSH1 0xB DUP5 LT AND OR ISZERO PUSH2 0x3D85 JUMPI POP DUP2 DUP2 EXP PUSH2 0x5C6 JUMP JUMPDEST PUSH2 0x3D8F DUP4 DUP4 PUSH2 0x3CC7 JUMP JUMPDEST DUP1 PUSH1 0x0 NOT DIV DUP3 GT ISZERO PUSH2 0x3DA3 JUMPI PUSH2 0x3DA3 PUSH2 0x372E JUMP JUMPDEST MUL SWAP4 SWAP3 POP POP POP JUMP JUMPDEST PUSH1 0x0 PUSH2 0x2850 DUP4 DUP4 PUSH2 0x3D0A JUMP INVALID LOG2 PUSH5 0x6970667358 0x22 SLT KECCAK256 0xDB PUSH22 0x93FE373AFD1670F8AF24A4B7D9DA40223137A9194E4F REVERT 0xC9 0x4E SHR DUP16 INVALID 0xD1 PUSH15 0x64736F6C634300080D003300000000 ",
  "sha1": "c36f783e5421a5f81bfbc6344241079ce0b4e5b5",
  "source": "// SPDX-License-Identifier: MIT\npragma solidity ^0.8.7;\n\nimport {AutomationCompatibleInterface} from \"@chainlink/contracts/src/v0.8/AutomationCompatible.sol\";\nimport {CIDProcessorQueue} from \"./libs/CIDProcessorQueue.sol\";\nimport {ERC1155IPFS} from \"./libs/ERC1155IPFS.sol\";\nimport {FunctionsWrapper} from \"./libs/FunctionsWrapper.sol\";\n\ncontract PrimeCrusaders is ERC1155IPFS, FunctionsWrapper, AutomationCompatibleInterface {\n  using CIDProcessorQueue for CIDProcessorQueue.Queue;\n  using CIDProcessorQueue for CIDProcessorQueue.State;\n  using CIDProcessorQueue for CIDProcessorQueue.Result;\n  \n  uint256 public mintInterval; //HIGHLY considering updating to 'minterval'\n  uint256 public mintBatchSize; \n  uint256 public lastUpkeepTimeStamp;\n\n  CIDProcessorQueue.Queue private mintingQueue;\n\n  /**\n   * @notice Executes once when a contract is created to initialize state variables\n   *\n   * @param oracle The FunctionsOracle contract\n   * @param subscriptionId The Functions billing subscription ID used to pay for Functions requests\n   * @param fulfillGasLimit Maximum amount of gas used to call the client contract's `handleOracleFulfillment` function\n   * @param _mintInterval Time interval at which Chainlink Automation should call performUpkeep\n   */\n  constructor(\n    address oracle, //Sepolia Functions Oracle address: \"0x649a2C205BE7A3d5e99206CEEFF30c794f0E31EC\"\n    string memory sourceCode,\n    uint64 subscriptionId,\n    uint32 fulfillGasLimit,\n    uint256 _mintInterval,\n    uint256 _mintBatchSize\n  ) ERC1155IPFS() FunctionsWrapper(oracle, sourceCode, subscriptionId, fulfillGasLimit) {\n    mintInterval = _mintInterval;\n    mintBatchSize = _mintBatchSize;\n    // lastUpkeepTimeStamp = block.timestamp; //uneeded until batch processing implemented  \n\n    mintingQueue.initiate();\n  }\n\n  /**\n   * @notice Used by Automation to check if performUpkeep should be called.\n   *\n   * The function's argument is unused in this example, but there is an option to have Automation pass custom data\n   * that can be used by the checkUpkeep function.\n   *\n   * Returns a tuple where the first element is a boolean which determines if upkeep is needed and the\n   * second element contains custom bytes data which is passed to performUpkeep when it is called by Automation.\n   */\n  function checkUpkeep(bytes memory) public view override returns (bool upkeepNeeded, bytes memory) {\n    upkeepNeeded = false;\n    if (mintingQueue.state == CIDProcessorQueue.State.IDLE) {\n      upkeepNeeded = mintingQueue.tickets.curr_ticket_no < mintingQueue.tickets.num_tickets;\n    } else if (gotFunctionResponse()) {\n      upkeepNeeded = true;\n    } \n    return (upkeepNeeded, \"\"); //not needed for returning, but we might use the bytes data retun later\n  }\n\n  /**\n   * @notice Called by Automation to trigger a Functions request\n   *\n   * The function's argument is unused in this example, but there is an option to have Automation pass custom data\n   * returned by checkUpkeep (See Chainlink Automation documentation)\n   */\n  function performUpkeep(bytes calldata) external override {\n    (bool upkeepNeeded, ) = checkUpkeep(\"\");\n    require(upkeepNeeded, \"upkeep not needed\");\n    // lastUpkeepTimeStamp = block.timestamp; //uneeded until batch processing implemented\n\n    if (mintingQueue.state == CIDProcessorQueue.State.IDLE){\n      submit();\n    }else {\n      issue();\n      resetFunctionResponse();\n    }\n    mintingQueue.update_state();\n  }\n\n  function joinQueue(string calldata ipfsURL) public{\n    mintingQueue.join(msg.sender, ipfsURL);\n  }\n\n    //sends mint request off to Chainlink Functions to be verified \n  function submit() internal {\n    mintingQueue.build_batch();\n    executeRequest(\"\", mintingQueue.submissionBatch); //secrets unused for now\n  }\n\n    //mints valid NFTs\n  function issue() internal {\n    require (validFunctionResponse(mintingQueue.submissionBatch.length));\n    address user;\n    string memory ipfs_url;\n    for (uint256 i; i < mintingQueue.submissionBatch.length; i++){\n        //TODO: update for batch processing\n      (user, ipfs_url, ) = mintingQueue.current_ticket();\n      if(latestResponse[responseHeaderSize + i] == \"1\"){\n        mintToken(user, ipfs_url, 1);\n        mintingQueue.ticket_approved(true);\n      } else {\n        mintingQueue.ticket_approved(false);\n      }\n    }\n  }\n\n  function queue_status() public view returns (CIDProcessorQueue.State state, uint256 num_tickets, uint256 curr_ticket_no, address user, string memory ipfs_url, CIDProcessorQueue.Result result) {\n    state = mintingQueue.state;\n    num_tickets = mintingQueue.tickets.num_tickets;\n    curr_ticket_no = mintingQueue.tickets.curr_ticket_no;\n    (user, ipfs_url, result) = mintingQueue.current_ticket();\n  }\n\n  function ticket_status(uint256 ticket_no) public view returns (address user, string memory ipfs_url, CIDProcessorQueue.Result result) {\n    (user, ipfs_url, result) = mintingQueue.view_ticket(ticket_no);\n  }\n\n  function functions_status() public view returns (bytes32, bytes memory, bytes memory, string[] memory) {\n    return (\n      latestRequestId, \n      latestResponse, \n      latestError,\n      mintingQueue.submissionBatch\n    );\n  }\n\n  function debug() public view returns (uint256, bool){\n    return (latestResponse.length, validFunctionResponse(mintingQueue.submissionBatch.length));\n  }\n  //TODO: add resetting function\n}\n",
  "sourcePath": "contracts/PrimeCrusaders.sol",
  "type": "contract"
}